{
  "abi": [
    {
      "inputs": [
        {
          "internalType": "string",
          "name": "uri",
          "type": "string"
        }
      ],
      "stateMutability": "nonpayable",
      "type": "constructor"
    },
    {
      "anonymous": false,
      "inputs": [
        {
          "indexed": true,
          "internalType": "address",
          "name": "account",
          "type": "address"
        },
        {
          "indexed": true,
          "internalType": "address",
          "name": "operator",
          "type": "address"
        },
        {
          "indexed": false,
          "internalType": "bool",
          "name": "approved",
          "type": "bool"
        }
      ],
      "name": "ApprovalForAll",
      "type": "event"
    },
    {
      "anonymous": false,
      "inputs": [
        {
          "indexed": true,
          "internalType": "address",
          "name": "operator",
          "type": "address"
        },
        {
          "indexed": true,
          "internalType": "address",
          "name": "from",
          "type": "address"
        },
        {
          "indexed": true,
          "internalType": "address",
          "name": "to",
          "type": "address"
        },
        {
          "indexed": false,
          "internalType": "uint256[]",
          "name": "ids",
          "type": "uint256[]"
        },
        {
          "indexed": false,
          "internalType": "uint256[]",
          "name": "values",
          "type": "uint256[]"
        }
      ],
      "name": "TransferBatch",
      "type": "event"
    },
    {
      "anonymous": false,
      "inputs": [
        {
          "indexed": true,
          "internalType": "address",
          "name": "operator",
          "type": "address"
        },
        {
          "indexed": true,
          "internalType": "address",
          "name": "from",
          "type": "address"
        },
        {
          "indexed": true,
          "internalType": "address",
          "name": "to",
          "type": "address"
        },
        {
          "indexed": false,
          "internalType": "uint256",
          "name": "id",
          "type": "uint256"
        },
        {
          "indexed": false,
          "internalType": "uint256",
          "name": "value",
          "type": "uint256"
        }
      ],
      "name": "TransferSingle",
      "type": "event"
    },
    {
      "anonymous": false,
      "inputs": [
        {
          "indexed": false,
          "internalType": "string",
          "name": "value",
          "type": "string"
        },
        {
          "indexed": true,
          "internalType": "uint256",
          "name": "id",
          "type": "uint256"
        }
      ],
      "name": "URI",
      "type": "event"
    },
    {
      "inputs": [
        {
          "internalType": "address",
          "name": "account",
          "type": "address"
        },
        {
          "internalType": "uint256",
          "name": "id",
          "type": "uint256"
        }
      ],
      "name": "balanceOf",
      "outputs": [
        {
          "internalType": "uint256",
          "name": "",
          "type": "uint256"
        }
      ],
      "stateMutability": "view",
      "type": "function"
    },
    {
      "inputs": [
        {
          "internalType": "address[]",
          "name": "accounts",
          "type": "address[]"
        },
        {
          "internalType": "uint256[]",
          "name": "ids",
          "type": "uint256[]"
        }
      ],
      "name": "balanceOfBatch",
      "outputs": [
        {
          "internalType": "uint256[]",
          "name": "",
          "type": "uint256[]"
        }
      ],
      "stateMutability": "view",
      "type": "function"
    },
    {
      "inputs": [
        {
          "internalType": "address",
          "name": "owner",
          "type": "address"
        },
        {
          "internalType": "uint256",
          "name": "id",
          "type": "uint256"
        },
        {
          "internalType": "uint256",
          "name": "value",
          "type": "uint256"
        }
      ],
      "name": "burn",
      "outputs": [],
      "stateMutability": "nonpayable",
      "type": "function"
    },
    {
      "inputs": [
        {
          "internalType": "address",
          "name": "owner",
          "type": "address"
        },
        {
          "internalType": "uint256[]",
          "name": "ids",
          "type": "uint256[]"
        },
        {
          "internalType": "uint256[]",
          "name": "values",
          "type": "uint256[]"
        }
      ],
      "name": "burnBatch",
      "outputs": [],
      "stateMutability": "nonpayable",
      "type": "function"
    },
    {
      "inputs": [
        {
          "internalType": "uint256",
          "name": "id",
          "type": "uint256"
        }
      ],
      "name": "exists",
      "outputs": [
        {
          "internalType": "bool",
          "name": "",
          "type": "bool"
        }
      ],
      "stateMutability": "view",
      "type": "function"
    },
    {
      "inputs": [
        {
          "internalType": "address",
          "name": "account",
          "type": "address"
        },
        {
          "internalType": "address",
          "name": "operator",
          "type": "address"
        }
      ],
      "name": "isApprovedForAll",
      "outputs": [
        {
          "internalType": "bool",
          "name": "",
          "type": "bool"
        }
      ],
      "stateMutability": "view",
      "type": "function"
    },
    {
      "inputs": [
        {
          "internalType": "address",
          "name": "to",
          "type": "address"
        },
        {
          "internalType": "uint256",
          "name": "id",
          "type": "uint256"
        },
        {
          "internalType": "uint256",
          "name": "value",
          "type": "uint256"
        },
        {
          "internalType": "bytes",
          "name": "data",
          "type": "bytes"
        }
      ],
      "name": "mint",
      "outputs": [],
      "stateMutability": "nonpayable",
      "type": "function"
    },
    {
      "inputs": [
        {
          "internalType": "address",
          "name": "to",
          "type": "address"
        },
        {
          "internalType": "uint256[]",
          "name": "ids",
          "type": "uint256[]"
        },
        {
          "internalType": "uint256[]",
          "name": "values",
          "type": "uint256[]"
        },
        {
          "internalType": "bytes",
          "name": "data",
          "type": "bytes"
        }
      ],
      "name": "mintBatch",
      "outputs": [],
      "stateMutability": "nonpayable",
      "type": "function"
    },
    {
      "inputs": [
        {
          "internalType": "address",
          "name": "from",
          "type": "address"
        },
        {
          "internalType": "address",
          "name": "to",
          "type": "address"
        },
        {
          "internalType": "uint256[]",
          "name": "ids",
          "type": "uint256[]"
        },
        {
          "internalType": "uint256[]",
          "name": "amounts",
          "type": "uint256[]"
        },
        {
          "internalType": "bytes",
          "name": "data",
          "type": "bytes"
        }
      ],
      "name": "safeBatchTransferFrom",
      "outputs": [],
      "stateMutability": "nonpayable",
      "type": "function"
    },
    {
      "inputs": [
        {
          "internalType": "address",
          "name": "from",
          "type": "address"
        },
        {
          "internalType": "address",
          "name": "to",
          "type": "address"
        },
        {
          "internalType": "uint256",
          "name": "id",
          "type": "uint256"
        },
        {
          "internalType": "uint256",
          "name": "amount",
          "type": "uint256"
        },
        {
          "internalType": "bytes",
          "name": "data",
          "type": "bytes"
        }
      ],
      "name": "safeTransferFrom",
      "outputs": [],
      "stateMutability": "nonpayable",
      "type": "function"
    },
    {
      "inputs": [
        {
          "internalType": "address",
          "name": "operator",
          "type": "address"
        },
        {
          "internalType": "bool",
          "name": "approved",
          "type": "bool"
        }
      ],
      "name": "setApprovalForAll",
      "outputs": [],
      "stateMutability": "nonpayable",
      "type": "function"
    },
    {
      "inputs": [
        {
          "internalType": "string",
          "name": "newuri",
          "type": "string"
        }
      ],
      "name": "setURI",
      "outputs": [],
      "stateMutability": "nonpayable",
      "type": "function"
    },
    {
      "inputs": [
        {
          "internalType": "bytes4",
          "name": "interfaceId",
          "type": "bytes4"
        }
      ],
      "name": "supportsInterface",
      "outputs": [
        {
          "internalType": "bool",
          "name": "",
          "type": "bool"
        }
      ],
      "stateMutability": "view",
      "type": "function"
    },
    {
      "inputs": [
        {
          "internalType": "uint256",
          "name": "id",
          "type": "uint256"
        }
      ],
      "name": "totalSupply",
      "outputs": [
        {
          "internalType": "uint256",
          "name": "",
          "type": "uint256"
        }
      ],
      "stateMutability": "view",
      "type": "function"
    },
    {
      "inputs": [
        {
          "internalType": "uint256",
          "name": "",
          "type": "uint256"
        }
      ],
      "name": "uri",
      "outputs": [
        {
          "internalType": "string",
          "name": "",
          "type": "string"
        }
      ],
      "stateMutability": "view",
      "type": "function"
    }
  ],
  "bytecode": "60806040523480156200001157600080fd5b50604051620020f0380380620020f083398101604081905262000034916200011f565b808062000041816200004a565b50505062000238565b80516200005f90600290602084019062000063565b5050565b8280546200007190620001fb565b90600052602060002090601f016020900481019282620000955760008555620000e0565b82601f10620000b057805160ff1916838001178555620000e0565b82800160010185558215620000e0579182015b82811115620000e0578251825591602001919060010190620000c3565b50620000ee929150620000f2565b5090565b5b80821115620000ee5760008155600101620000f3565b634e487b7160e01b600052604160045260246000fd5b600060208083850312156200013357600080fd5b82516001600160401b03808211156200014b57600080fd5b818501915085601f8301126200016057600080fd5b81518181111562000175576200017562000109565b604051601f8201601f19908116603f01168101908382118183101715620001a057620001a062000109565b816040528281528886848701011115620001b957600080fd5b600093505b82841015620001dd5784840186015181850187015292850192620001be565b82841115620001ef5760008684830101525b98975050505050505050565b600181811c908216806200021057607f821691505b602082108114156200023257634e487b7160e01b600052602260045260246000fd5b50919050565b611ea880620002486000396000f3fe608060405234801561001057600080fd5b50600436106100f45760003560e01c80634f558e7911610097578063bd85b03911610066578063bd85b03914610218578063e985e9c514610238578063f242432a14610274578063f5298aca1461028757600080fd5b80634f558e79146101bd5780636b20c454146101df578063731133e9146101f2578063a22cb4651461020557600080fd5b80630e89341c116100d35780630e89341c146101575780631f7fdffa146101775780632eb2c2d61461018a5780634e1273f41461019d57600080fd5b8062fdd58e146100f957806301ffc9a71461011f57806302fe530514610142575b600080fd5b61010c610107366004611396565b61029a565b6040519081526020015b60405180910390f35b61013261012d3660046113d6565b610331565b6040519015158152602001610116565b61015561015036600461149b565b610383565b005b61016a6101653660046114ec565b61038f565b6040516101169190611552565b61015561018536600461161a565b610423565b6101556101983660046116b3565b610435565b6101b06101ab36600461175d565b6104cc565b6040516101169190611863565b6101326101cb3660046114ec565b600090815260036020526040902054151590565b6101556101ed366004611876565b6105f6565b6101556102003660046118ea565b610606565b61015561021336600461193f565b610612565b61010c6102263660046114ec565b60009081526003602052604090205490565b61013261024636600461197b565b6001600160a01b03918216600090815260016020908152604080832093909416825291909152205460ff1690565b6101556102823660046119ae565b6106e9565b610155610295366004611a13565b610770565b60006001600160a01b03831661030b5760405162461bcd60e51b815260206004820152602b60248201527f455243313135353a2062616c616e636520717565727920666f7220746865207a60448201526a65726f206164647265737360a81b60648201526084015b60405180910390fd5b506000908152602081815260408083206001600160a01b03949094168352929052205490565b60006001600160e01b03198216636cdb3d1360e11b148061036257506001600160e01b031982166303a24d0760e21b145b8061037d57506301ffc9a760e01b6001600160e01b03198316145b92915050565b61038c8161077b565b50565b60606002805461039e90611a46565b80601f01602080910402602001604051908101604052809291908181526020018280546103ca90611a46565b80156104175780601f106103ec57610100808354040283529160200191610417565b820191906000526020600020905b8154815290600101906020018083116103fa57829003601f168201915b50505050509050919050565b61042f84848484610792565b50505050565b6001600160a01b03851633148061045157506104518533610246565b6104b85760405162461bcd60e51b815260206004820152603260248201527f455243313135353a207472616e736665722063616c6c6572206973206e6f74206044820152711bdddb995c881b9bdc88185c1c1c9bdd995960721b6064820152608401610302565b6104c5858585858561079e565b5050505050565b606081518351146105315760405162461bcd60e51b815260206004820152602960248201527f455243313135353a206163636f756e747320616e6420696473206c656e677468604482015268040dad2e6dac2e8c6d60bb1b6064820152608401610302565b6000835167ffffffffffffffff81111561054d5761054d6113fa565b604051908082528060200260200182016040528015610576578160200160208202803683370190505b50905060005b84518110156105ee576105c185828151811061059a5761059a611a81565b60200260200101518583815181106105b4576105b4611a81565b602002602001015161029a565b8282815181106105d3576105d3611a81565b60209081029190910101526105e781611aad565b905061057c565b509392505050565b61060183838361093a565b505050565b61042f84848484610945565b336001600160a01b038316141561067d5760405162461bcd60e51b815260206004820152602960248201527f455243313135353a2073657474696e6720617070726f76616c20737461747573604482015268103337b91039b2b63360b91b6064820152608401610302565b3360008181526001602090815260408083206001600160a01b03871680855290835292819020805460ff191686151590811790915590519081529192917f17307eab39ab6107e8899845ad3d59bd9653f200f220920489ca2b5937696c31910160405180910390a35050565b6001600160a01b03851633148061070557506107058533610246565b6107635760405162461bcd60e51b815260206004820152602960248201527f455243313135353a2063616c6c6572206973206e6f74206f776e6572206e6f7260448201526808185c1c1c9bdd995960ba1b6064820152608401610302565b6104c58585858585610951565b610601838383610a77565b805161078e9060029060208401906112e1565b5050565b61042f84848484610a82565b81518351146107bf5760405162461bcd60e51b815260040161030290611ac8565b6001600160a01b0384166107e55760405162461bcd60e51b815260040161030290611b10565b3360005b84518110156108cc57600085828151811061080657610806611a81565b60200260200101519050600085838151811061082457610824611a81565b602090810291909101810151600084815280835260408082206001600160a01b038e1683529093529190912054909150818110156108745760405162461bcd60e51b815260040161030290611b55565b6000838152602081815260408083206001600160a01b038e8116855292528083208585039055908b168252812080548492906108b1908490611b9f565b92505081905550505050806108c590611aad565b90506107e9565b50846001600160a01b0316866001600160a01b0316826001600160a01b03167f4a39dc06d4c0dbc64b70af90fd698a233a518aa5d07e595d983b8c0526c8f7fb878760405161091c929190611bb7565b60405180910390a4610932818787878787610b05565b505050505050565b610601838383610c61565b61042f84848484610ce3565b6001600160a01b0384166109775760405162461bcd60e51b815260040161030290611b10565b3361099081878761098788610d18565b6104c588610d18565b6000848152602081815260408083206001600160a01b038a168452909152902054838110156109d15760405162461bcd60e51b815260040161030290611b55565b6000858152602081815260408083206001600160a01b038b8116855292528083208785039055908816825281208054869290610a0e908490611b9f565b909155505060408051868152602081018690526001600160a01b03808916928a821692918616917fc3d58168c5ae7397731d063d5bbf3d657854427343f4c083240f7aacaa2d0f62910160405180910390a4610a6e828888888888610d63565b50505050505050565b610601838383610e1e565b610a8e84848484610e51565b60005b83518110156104c557828181518110610aac57610aac611a81565b602002602001015160036000868481518110610aca57610aca611a81565b602002602001015181526020019081526020016000206000828254610aef9190611b9f565b90915550610afe905081611aad565b9050610a91565b6001600160a01b0384163b156109325760405163bc197c8160e01b81526001600160a01b0385169063bc197c8190610b499089908990889088908890600401611be5565b6020604051808303816000875af1925050508015610b84575060408051601f3d908101601f19168201909252610b8191810190611c43565b60015b610c3157610b90611c60565b806308c379a01415610bca5750610ba5611c7c565b80610bb05750610bcc565b8060405162461bcd60e51b81526004016103029190611552565b505b60405162461bcd60e51b815260206004820152603460248201527f455243313135353a207472616e7366657220746f206e6f6e20455243313135356044820152732932b1b2b4bb32b91034b6b83632b6b2b73a32b960611b6064820152608401610302565b6001600160e01b0319811663bc197c8160e01b14610a6e5760405162461bcd60e51b815260040161030290611d06565b610c6c838383610f9c565b60005b825181101561042f57818181518110610c8a57610c8a611a81565b602002602001015160036000858481518110610ca857610ca8611a81565b602002602001015181526020019081526020016000206000828254610ccd9190611d4e565b90915550610cdc905081611aad565b9050610c6f565b610cef84848484611118565b60008381526003602052604081208054849290610d0d908490611b9f565b909155505050505050565b60408051600180825281830190925260609160009190602080830190803683370190505090508281600081518110610d5257610d52611a81565b602090810291909101015292915050565b6001600160a01b0384163b156109325760405163f23a6e6160e01b81526001600160a01b0385169063f23a6e6190610da79089908990889088908890600401611d65565b6020604051808303816000875af1925050508015610de2575060408051601f3d908101601f19168201909252610ddf91810190611c43565b60015b610dee57610b90611c60565b6001600160e01b0319811663f23a6e6160e01b14610a6e5760405162461bcd60e51b815260040161030290611d06565b610e298383836111df565b60008281526003602052604081208054839290610e47908490611d4e565b9091555050505050565b6001600160a01b038416610e775760405162461bcd60e51b815260040161030290611daa565b8151835114610e985760405162461bcd60e51b815260040161030290611ac8565b3360005b8451811015610f3457838181518110610eb757610eb7611a81565b6020026020010151600080878481518110610ed457610ed4611a81565b602002602001015181526020019081526020016000206000886001600160a01b03166001600160a01b031681526020019081526020016000206000828254610f1c9190611b9f565b90915550819050610f2c81611aad565b915050610e9c565b50846001600160a01b031660006001600160a01b0316826001600160a01b03167f4a39dc06d4c0dbc64b70af90fd698a233a518aa5d07e595d983b8c0526c8f7fb8787604051610f85929190611bb7565b60405180910390a46104c581600087878787610b05565b6001600160a01b038316610fc25760405162461bcd60e51b815260040161030290611deb565b8051825114610fe35760405162461bcd60e51b815260040161030290611ac8565b604080516020810190915260009081905233905b83518110156110b957600084828151811061101457611014611a81565b60200260200101519050600084838151811061103257611032611a81565b602090810291909101810151600084815280835260408082206001600160a01b038c1683529093529190912054909150818110156110825760405162461bcd60e51b815260040161030290611e2e565b6000928352602083815260408085206001600160a01b038b16865290915290922091039055806110b181611aad565b915050610ff7565b5060006001600160a01b0316846001600160a01b0316826001600160a01b03167f4a39dc06d4c0dbc64b70af90fd698a233a518aa5d07e595d983b8c0526c8f7fb868660405161110a929190611bb7565b60405180910390a450505050565b6001600160a01b03841661113e5760405162461bcd60e51b815260040161030290611daa565b3361114f8160008761098788610d18565b6000848152602081815260408083206001600160a01b03891684529091528120805485929061117f908490611b9f565b909155505060408051858152602081018590526001600160a01b0380881692600092918516917fc3d58168c5ae7397731d063d5bbf3d657854427343f4c083240f7aacaa2d0f62910160405180910390a46104c581600087878787610d63565b6001600160a01b0383166112055760405162461bcd60e51b815260040161030290611deb565b336112358185600061121687610d18565b61121f87610d18565b5050604080516020810190915260009052505050565b6000838152602081815260408083206001600160a01b0388168452909152902054828110156112765760405162461bcd60e51b815260040161030290611e2e565b6000848152602081815260408083206001600160a01b03898116808652918452828520888703905582518981529384018890529092908616917fc3d58168c5ae7397731d063d5bbf3d657854427343f4c083240f7aacaa2d0f62910160405180910390a45050505050565b8280546112ed90611a46565b90600052602060002090601f01602090048101928261130f5760008555611355565b82601f1061132857805160ff1916838001178555611355565b82800160010185558215611355579182015b8281111561135557825182559160200191906001019061133a565b50611361929150611365565b5090565b5b808211156113615760008155600101611366565b80356001600160a01b038116811461139157600080fd5b919050565b600080604083850312156113a957600080fd5b6113b28361137a565b946020939093013593505050565b6001600160e01b03198116811461038c57600080fd5b6000602082840312156113e857600080fd5b81356113f3816113c0565b9392505050565b634e487b7160e01b600052604160045260246000fd5b601f8201601f1916810167ffffffffffffffff81118282101715611436576114366113fa565b6040525050565b600067ffffffffffffffff831115611457576114576113fa565b60405161146e601f8501601f191660200182611410565b80915083815284848401111561148357600080fd5b83836020830137600060208583010152509392505050565b6000602082840312156114ad57600080fd5b813567ffffffffffffffff8111156114c457600080fd5b8201601f810184136114d557600080fd5b6114e48482356020840161143d565b949350505050565b6000602082840312156114fe57600080fd5b5035919050565b6000815180845260005b8181101561152b5760208185018101518683018201520161150f565b8181111561153d576000602083870101525b50601f01601f19169290920160200192915050565b6020815260006113f36020830184611505565b600067ffffffffffffffff82111561157f5761157f6113fa565b5060051b60200190565b600082601f83011261159a57600080fd5b813560206115a782611565565b6040516115b48282611410565b83815260059390931b85018201928281019150868411156115d457600080fd5b8286015b848110156115ef57803583529183019183016115d8565b509695505050505050565b600082601f83011261160b57600080fd5b6113f38383356020850161143d565b6000806000806080858703121561163057600080fd5b6116398561137a565b9350602085013567ffffffffffffffff8082111561165657600080fd5b61166288838901611589565b9450604087013591508082111561167857600080fd5b61168488838901611589565b9350606087013591508082111561169a57600080fd5b506116a7878288016115fa565b91505092959194509250565b600080600080600060a086880312156116cb57600080fd5b6116d48661137a565b94506116e26020870161137a565b9350604086013567ffffffffffffffff808211156116ff57600080fd5b61170b89838a01611589565b9450606088013591508082111561172157600080fd5b61172d89838a01611589565b9350608088013591508082111561174357600080fd5b50611750888289016115fa565b9150509295509295909350565b6000806040838503121561177057600080fd5b823567ffffffffffffffff8082111561178857600080fd5b818501915085601f83011261179c57600080fd5b813560206117a982611565565b6040516117b68282611410565b83815260059390931b85018201928281019150898411156117d657600080fd5b948201945b838610156117fb576117ec8661137a565b825294820194908201906117db565b9650508601359250508082111561181157600080fd5b5061181e85828601611589565b9150509250929050565b600081518084526020808501945080840160005b838110156118585781518752958201959082019060010161183c565b509495945050505050565b6020815260006113f36020830184611828565b60008060006060848603121561188b57600080fd5b6118948461137a565b9250602084013567ffffffffffffffff808211156118b157600080fd5b6118bd87838801611589565b935060408601359150808211156118d357600080fd5b506118e086828701611589565b9150509250925092565b6000806000806080858703121561190057600080fd5b6119098561137a565b93506020850135925060408501359150606085013567ffffffffffffffff81111561193357600080fd5b6116a7878288016115fa565b6000806040838503121561195257600080fd5b61195b8361137a565b91506020830135801515811461197057600080fd5b809150509250929050565b6000806040838503121561198e57600080fd5b6119978361137a565b91506119a56020840161137a565b90509250929050565b600080600080600060a086880312156119c657600080fd5b6119cf8661137a565b94506119dd6020870161137a565b93506040860135925060608601359150608086013567ffffffffffffffff811115611a0757600080fd5b611750888289016115fa565b600080600060608486031215611a2857600080fd5b611a318461137a565b95602085013595506040909401359392505050565b600181811c90821680611a5a57607f821691505b60208210811415611a7b57634e487b7160e01b600052602260045260246000fd5b50919050565b634e487b7160e01b600052603260045260246000fd5b634e487b7160e01b600052601160045260246000fd5b6000600019821415611ac157611ac1611a97565b5060010190565b60208082526028908201527f455243313135353a2069647320616e6420616d6f756e7473206c656e677468206040820152670dad2e6dac2e8c6d60c31b606082015260800190565b60208082526025908201527f455243313135353a207472616e7366657220746f20746865207a65726f206164604082015264647265737360d81b606082015260800190565b6020808252602a908201527f455243313135353a20696e73756666696369656e742062616c616e636520666f60408201526939103a3930b739b332b960b11b606082015260800190565b60008219821115611bb257611bb2611a97565b500190565b604081526000611bca6040830185611828565b8281036020840152611bdc8185611828565b95945050505050565b6001600160a01b0386811682528516602082015260a060408201819052600090611c1190830186611828565b8281036060840152611c238186611828565b90508281036080840152611c378185611505565b98975050505050505050565b600060208284031215611c5557600080fd5b81516113f3816113c0565b600060033d1115611c795760046000803e5060005160e01c5b90565b600060443d1015611c8a5790565b6040516003193d81016004833e81513d67ffffffffffffffff8160248401118184111715611cba57505050505090565b8285019150815181811115611cd25750505050505090565b843d8701016020828501011115611cec5750505050505090565b611cfb60208286010187611410565b509095945050505050565b60208082526028908201527f455243313135353a204552433131353552656365697665722072656a656374656040820152676420746f6b656e7360c01b606082015260800190565b600082821015611d6057611d60611a97565b500390565b6001600160a01b03868116825285166020820152604081018490526060810183905260a060808201819052600090611d9f90830184611505565b979650505050505050565b60208082526021908201527f455243313135353a206d696e7420746f20746865207a65726f206164647265736040820152607360f81b606082015260800190565b60208082526023908201527f455243313135353a206275726e2066726f6d20746865207a65726f206164647260408201526265737360e81b606082015260800190565b60208082526024908201527f455243313135353a206275726e20616d6f756e7420657863656564732062616c604082015263616e636560e01b60608201526080019056fea2646970667358221220e934cbbb92889b8b6612348cde099449865104e185b480bbbad65da22bfb719264736f6c634300080c0033",
  "bytecodeSha1": "1861bba1222a12b82915744cb216d7687447832c",
  "compiler": {
    "evm_version": "istanbul",
    "optimizer": {
      "enabled": true,
      "runs": 200
    },
    "version": "0.8.12+commit.f00d7308"
  },
  "contractName": "ERC1155SupplyMock",
  "language": "Solidity",
  "natspec": {
    "kind": "dev",
    "methods": {
      "balanceOf(address,uint256)": {
        "details": "See {IERC1155-balanceOf}. Requirements: - `account` cannot be the zero address."
      },
      "balanceOfBatch(address[],uint256[])": {
        "details": "See {IERC1155-balanceOfBatch}. Requirements: - `accounts` and `ids` must have the same length."
      },
      "exists(uint256)": {
        "details": "Indicates weither any token exist with a given id, or not."
      },
      "isApprovedForAll(address,address)": {
        "details": "See {IERC1155-isApprovedForAll}."
      },
      "safeBatchTransferFrom(address,address,uint256[],uint256[],bytes)": {
        "details": "See {IERC1155-safeBatchTransferFrom}."
      },
      "safeTransferFrom(address,address,uint256,uint256,bytes)": {
        "details": "See {IERC1155-safeTransferFrom}."
      },
      "setApprovalForAll(address,bool)": {
        "details": "See {IERC1155-setApprovalForAll}."
      },
      "supportsInterface(bytes4)": {
        "details": "See {IERC165-supportsInterface}."
      },
      "totalSupply(uint256)": {
        "details": "Total amount of tokens in with a given id."
      },
      "uri(uint256)": {
        "details": "See {IERC1155MetadataURI-uri}. This implementation returns the same URI for *all* token types. It relies on the token type ID substitution mechanism https://eips.ethereum.org/EIPS/eip-1155#metadata[defined in the EIP]. Clients calling this function must replace the `\\{id\\}` substring with the actual token type ID."
      }
    },
    "version": 1
  },
  "opcodes": "PUSH1 0x80 PUSH1 0x40 MSTORE CALLVALUE DUP1 ISZERO PUSH2 0x10 JUMPI PUSH1 0x0 DUP1 REVERT JUMPDEST POP PUSH1 0x4 CALLDATASIZE LT PUSH2 0xF4 JUMPI PUSH1 0x0 CALLDATALOAD PUSH1 0xE0 SHR DUP1 PUSH4 0x4F558E79 GT PUSH2 0x97 JUMPI DUP1 PUSH4 0xBD85B039 GT PUSH2 0x66 JUMPI DUP1 PUSH4 0xBD85B039 EQ PUSH2 0x218 JUMPI DUP1 PUSH4 0xE985E9C5 EQ PUSH2 0x238 JUMPI DUP1 PUSH4 0xF242432A EQ PUSH2 0x274 JUMPI DUP1 PUSH4 0xF5298ACA EQ PUSH2 0x287 JUMPI PUSH1 0x0 DUP1 REVERT JUMPDEST DUP1 PUSH4 0x4F558E79 EQ PUSH2 0x1BD JUMPI DUP1 PUSH4 0x6B20C454 EQ PUSH2 0x1DF JUMPI DUP1 PUSH4 0x731133E9 EQ PUSH2 0x1F2 JUMPI DUP1 PUSH4 0xA22CB465 EQ PUSH2 0x205 JUMPI PUSH1 0x0 DUP1 REVERT JUMPDEST DUP1 PUSH4 0xE89341C GT PUSH2 0xD3 JUMPI DUP1 PUSH4 0xE89341C EQ PUSH2 0x157 JUMPI DUP1 PUSH4 0x1F7FDFFA EQ PUSH2 0x177 JUMPI DUP1 PUSH4 0x2EB2C2D6 EQ PUSH2 0x18A JUMPI DUP1 PUSH4 0x4E1273F4 EQ PUSH2 0x19D JUMPI PUSH1 0x0 DUP1 REVERT JUMPDEST DUP1 PUSH3 0xFDD58E EQ PUSH2 0xF9 JUMPI DUP1 PUSH4 0x1FFC9A7 EQ PUSH2 0x11F JUMPI DUP1 PUSH4 0x2FE5305 EQ PUSH2 0x142 JUMPI JUMPDEST PUSH1 0x0 DUP1 REVERT JUMPDEST PUSH2 0x10C PUSH2 0x107 CALLDATASIZE PUSH1 0x4 PUSH2 0x1396 JUMP JUMPDEST PUSH2 0x29A JUMP JUMPDEST PUSH1 0x40 MLOAD SWAP1 DUP2 MSTORE PUSH1 0x20 ADD JUMPDEST PUSH1 0x40 MLOAD DUP1 SWAP2 SUB SWAP1 RETURN JUMPDEST PUSH2 0x132 PUSH2 0x12D CALLDATASIZE PUSH1 0x4 PUSH2 0x13D6 JUMP JUMPDEST PUSH2 0x331 JUMP JUMPDEST PUSH1 0x40 MLOAD SWAP1 ISZERO ISZERO DUP2 MSTORE PUSH1 0x20 ADD PUSH2 0x116 JUMP JUMPDEST PUSH2 0x155 PUSH2 0x150 CALLDATASIZE PUSH1 0x4 PUSH2 0x149B JUMP JUMPDEST PUSH2 0x383 JUMP JUMPDEST STOP JUMPDEST PUSH2 0x16A PUSH2 0x165 CALLDATASIZE PUSH1 0x4 PUSH2 0x14EC JUMP JUMPDEST PUSH2 0x38F JUMP JUMPDEST PUSH1 0x40 MLOAD PUSH2 0x116 SWAP2 SWAP1 PUSH2 0x1552 JUMP JUMPDEST PUSH2 0x155 PUSH2 0x185 CALLDATASIZE PUSH1 0x4 PUSH2 0x161A JUMP JUMPDEST PUSH2 0x423 JUMP JUMPDEST PUSH2 0x155 PUSH2 0x198 CALLDATASIZE PUSH1 0x4 PUSH2 0x16B3 JUMP JUMPDEST PUSH2 0x435 JUMP JUMPDEST PUSH2 0x1B0 PUSH2 0x1AB CALLDATASIZE PUSH1 0x4 PUSH2 0x175D JUMP JUMPDEST PUSH2 0x4CC JUMP JUMPDEST PUSH1 0x40 MLOAD PUSH2 0x116 SWAP2 SWAP1 PUSH2 0x1863 JUMP JUMPDEST PUSH2 0x132 PUSH2 0x1CB CALLDATASIZE PUSH1 0x4 PUSH2 0x14EC JUMP JUMPDEST PUSH1 0x0 SWAP1 DUP2 MSTORE PUSH1 0x3 PUSH1 0x20 MSTORE PUSH1 0x40 SWAP1 KECCAK256 SLOAD ISZERO ISZERO SWAP1 JUMP JUMPDEST PUSH2 0x155 PUSH2 0x1ED CALLDATASIZE PUSH1 0x4 PUSH2 0x1876 JUMP JUMPDEST PUSH2 0x5F6 JUMP JUMPDEST PUSH2 0x155 PUSH2 0x200 CALLDATASIZE PUSH1 0x4 PUSH2 0x18EA JUMP JUMPDEST PUSH2 0x606 JUMP JUMPDEST PUSH2 0x155 PUSH2 0x213 CALLDATASIZE PUSH1 0x4 PUSH2 0x193F JUMP JUMPDEST PUSH2 0x612 JUMP JUMPDEST PUSH2 0x10C PUSH2 0x226 CALLDATASIZE PUSH1 0x4 PUSH2 0x14EC JUMP JUMPDEST PUSH1 0x0 SWAP1 DUP2 MSTORE PUSH1 0x3 PUSH1 0x20 MSTORE PUSH1 0x40 SWAP1 KECCAK256 SLOAD SWAP1 JUMP JUMPDEST PUSH2 0x132 PUSH2 0x246 CALLDATASIZE PUSH1 0x4 PUSH2 0x197B JUMP JUMPDEST PUSH1 0x1 PUSH1 0x1 PUSH1 0xA0 SHL SUB SWAP2 DUP3 AND PUSH1 0x0 SWAP1 DUP2 MSTORE PUSH1 0x1 PUSH1 0x20 SWAP1 DUP2 MSTORE PUSH1 0x40 DUP1 DUP4 KECCAK256 SWAP4 SWAP1 SWAP5 AND DUP3 MSTORE SWAP2 SWAP1 SWAP2 MSTORE KECCAK256 SLOAD PUSH1 0xFF AND SWAP1 JUMP JUMPDEST PUSH2 0x155 PUSH2 0x282 CALLDATASIZE PUSH1 0x4 PUSH2 0x19AE JUMP JUMPDEST PUSH2 0x6E9 JUMP JUMPDEST PUSH2 0x155 PUSH2 0x295 CALLDATASIZE PUSH1 0x4 PUSH2 0x1A13 JUMP JUMPDEST PUSH2 0x770 JUMP JUMPDEST PUSH1 0x0 PUSH1 0x1 PUSH1 0x1 PUSH1 0xA0 SHL SUB DUP4 AND PUSH2 0x30B JUMPI PUSH1 0x40 MLOAD PUSH3 0x461BCD PUSH1 0xE5 SHL DUP2 MSTORE PUSH1 0x20 PUSH1 0x4 DUP3 ADD MSTORE PUSH1 0x2B PUSH1 0x24 DUP3 ADD MSTORE PUSH32 0x455243313135353A2062616C616E636520717565727920666F7220746865207A PUSH1 0x44 DUP3 ADD MSTORE PUSH11 0x65726F2061646472657373 PUSH1 0xA8 SHL PUSH1 0x64 DUP3 ADD MSTORE PUSH1 0x84 ADD JUMPDEST PUSH1 0x40 MLOAD DUP1 SWAP2 SUB SWAP1 REVERT JUMPDEST POP PUSH1 0x0 SWAP1 DUP2 MSTORE PUSH1 0x20 DUP2 DUP2 MSTORE PUSH1 0x40 DUP1 DUP4 KECCAK256 PUSH1 0x1 PUSH1 0x1 PUSH1 0xA0 SHL SUB SWAP5 SWAP1 SWAP5 AND DUP4 MSTORE SWAP3 SWAP1 MSTORE KECCAK256 SLOAD SWAP1 JUMP JUMPDEST PUSH1 0x0 PUSH1 0x1 PUSH1 0x1 PUSH1 0xE0 SHL SUB NOT DUP3 AND PUSH4 0x6CDB3D13 PUSH1 0xE1 SHL EQ DUP1 PUSH2 0x362 JUMPI POP PUSH1 0x1 PUSH1 0x1 PUSH1 0xE0 SHL SUB NOT DUP3 AND PUSH4 0x3A24D07 PUSH1 0xE2 SHL EQ JUMPDEST DUP1 PUSH2 0x37D JUMPI POP PUSH4 0x1FFC9A7 PUSH1 0xE0 SHL PUSH1 0x1 PUSH1 0x1 PUSH1 0xE0 SHL SUB NOT DUP4 AND EQ JUMPDEST SWAP3 SWAP2 POP POP JUMP JUMPDEST PUSH2 0x38C DUP2 PUSH2 0x77B JUMP JUMPDEST POP JUMP JUMPDEST PUSH1 0x60 PUSH1 0x2 DUP1 SLOAD PUSH2 0x39E SWAP1 PUSH2 0x1A46 JUMP JUMPDEST DUP1 PUSH1 0x1F ADD PUSH1 0x20 DUP1 SWAP2 DIV MUL PUSH1 0x20 ADD PUSH1 0x40 MLOAD SWAP1 DUP2 ADD PUSH1 0x40 MSTORE DUP1 SWAP3 SWAP2 SWAP1 DUP2 DUP2 MSTORE PUSH1 0x20 ADD DUP3 DUP1 SLOAD PUSH2 0x3CA SWAP1 PUSH2 0x1A46 JUMP JUMPDEST DUP1 ISZERO PUSH2 0x417 JUMPI DUP1 PUSH1 0x1F LT PUSH2 0x3EC JUMPI PUSH2 0x100 DUP1 DUP4 SLOAD DIV MUL DUP4 MSTORE SWAP2 PUSH1 0x20 ADD SWAP2 PUSH2 0x417 JUMP JUMPDEST DUP3 ADD SWAP2 SWAP1 PUSH1 0x0 MSTORE PUSH1 0x20 PUSH1 0x0 KECCAK256 SWAP1 JUMPDEST DUP2 SLOAD DUP2 MSTORE SWAP1 PUSH1 0x1 ADD SWAP1 PUSH1 0x20 ADD DUP1 DUP4 GT PUSH2 0x3FA JUMPI DUP3 SWAP1 SUB PUSH1 0x1F AND DUP3 ADD SWAP2 JUMPDEST POP POP POP POP POP SWAP1 POP SWAP2 SWAP1 POP JUMP JUMPDEST PUSH2 0x42F DUP5 DUP5 DUP5 DUP5 PUSH2 0x792 JUMP JUMPDEST POP POP POP POP JUMP JUMPDEST PUSH1 0x1 PUSH1 0x1 PUSH1 0xA0 SHL SUB DUP6 AND CALLER EQ DUP1 PUSH2 0x451 JUMPI POP PUSH2 0x451 DUP6 CALLER PUSH2 0x246 JUMP JUMPDEST PUSH2 0x4B8 JUMPI PUSH1 0x40 MLOAD PUSH3 0x461BCD PUSH1 0xE5 SHL DUP2 MSTORE PUSH1 0x20 PUSH1 0x4 DUP3 ADD MSTORE PUSH1 0x32 PUSH1 0x24 DUP3 ADD MSTORE PUSH32 0x455243313135353A207472616E736665722063616C6C6572206973206E6F7420 PUSH1 0x44 DUP3 ADD MSTORE PUSH18 0x1BDDDB995C881B9BDC88185C1C1C9BDD9959 PUSH1 0x72 SHL PUSH1 0x64 DUP3 ADD MSTORE PUSH1 0x84 ADD PUSH2 0x302 JUMP JUMPDEST PUSH2 0x4C5 DUP6 DUP6 DUP6 DUP6 DUP6 PUSH2 0x79E JUMP JUMPDEST POP POP POP POP POP JUMP JUMPDEST PUSH1 0x60 DUP2 MLOAD DUP4 MLOAD EQ PUSH2 0x531 JUMPI PUSH1 0x40 MLOAD PUSH3 0x461BCD PUSH1 0xE5 SHL DUP2 MSTORE PUSH1 0x20 PUSH1 0x4 DUP3 ADD MSTORE PUSH1 0x29 PUSH1 0x24 DUP3 ADD MSTORE PUSH32 0x455243313135353A206163636F756E747320616E6420696473206C656E677468 PUSH1 0x44 DUP3 ADD MSTORE PUSH9 0x40DAD2E6DAC2E8C6D PUSH1 0xBB SHL PUSH1 0x64 DUP3 ADD MSTORE PUSH1 0x84 ADD PUSH2 0x302 JUMP JUMPDEST PUSH1 0x0 DUP4 MLOAD PUSH8 0xFFFFFFFFFFFFFFFF DUP2 GT ISZERO PUSH2 0x54D JUMPI PUSH2 0x54D PUSH2 0x13FA JUMP JUMPDEST PUSH1 0x40 MLOAD SWAP1 DUP1 DUP3 MSTORE DUP1 PUSH1 0x20 MUL PUSH1 0x20 ADD DUP3 ADD PUSH1 0x40 MSTORE DUP1 ISZERO PUSH2 0x576 JUMPI DUP2 PUSH1 0x20 ADD PUSH1 0x20 DUP3 MUL DUP1 CALLDATASIZE DUP4 CALLDATACOPY ADD SWAP1 POP JUMPDEST POP SWAP1 POP PUSH1 0x0 JUMPDEST DUP5 MLOAD DUP2 LT ISZERO PUSH2 0x5EE JUMPI PUSH2 0x5C1 DUP6 DUP3 DUP2 MLOAD DUP2 LT PUSH2 0x59A JUMPI PUSH2 0x59A PUSH2 0x1A81 JUMP JUMPDEST PUSH1 0x20 MUL PUSH1 0x20 ADD ADD MLOAD DUP6 DUP4 DUP2 MLOAD DUP2 LT PUSH2 0x5B4 JUMPI PUSH2 0x5B4 PUSH2 0x1A81 JUMP JUMPDEST PUSH1 0x20 MUL PUSH1 0x20 ADD ADD MLOAD PUSH2 0x29A JUMP JUMPDEST DUP3 DUP3 DUP2 MLOAD DUP2 LT PUSH2 0x5D3 JUMPI PUSH2 0x5D3 PUSH2 0x1A81 JUMP JUMPDEST PUSH1 0x20 SWAP1 DUP2 MUL SWAP2 SWAP1 SWAP2 ADD ADD MSTORE PUSH2 0x5E7 DUP2 PUSH2 0x1AAD JUMP JUMPDEST SWAP1 POP PUSH2 0x57C JUMP JUMPDEST POP SWAP4 SWAP3 POP POP POP JUMP JUMPDEST PUSH2 0x601 DUP4 DUP4 DUP4 PUSH2 0x93A JUMP JUMPDEST POP POP POP JUMP JUMPDEST PUSH2 0x42F DUP5 DUP5 DUP5 DUP5 PUSH2 0x945 JUMP JUMPDEST CALLER PUSH1 0x1 PUSH1 0x1 PUSH1 0xA0 SHL SUB DUP4 AND EQ ISZERO PUSH2 0x67D JUMPI PUSH1 0x40 MLOAD PUSH3 0x461BCD PUSH1 0xE5 SHL DUP2 MSTORE PUSH1 0x20 PUSH1 0x4 DUP3 ADD MSTORE PUSH1 0x29 PUSH1 0x24 DUP3 ADD MSTORE PUSH32 0x455243313135353A2073657474696E6720617070726F76616C20737461747573 PUSH1 0x44 DUP3 ADD MSTORE PUSH9 0x103337B91039B2B633 PUSH1 0xB9 SHL PUSH1 0x64 DUP3 ADD MSTORE PUSH1 0x84 ADD PUSH2 0x302 JUMP JUMPDEST CALLER PUSH1 0x0 DUP2 DUP2 MSTORE PUSH1 0x1 PUSH1 0x20 SWAP1 DUP2 MSTORE PUSH1 0x40 DUP1 DUP4 KECCAK256 PUSH1 0x1 PUSH1 0x1 PUSH1 0xA0 SHL SUB DUP8 AND DUP1 DUP6 MSTORE SWAP1 DUP4 MSTORE SWAP3 DUP2 SWAP1 KECCAK256 DUP1 SLOAD PUSH1 0xFF NOT AND DUP7 ISZERO ISZERO SWAP1 DUP2 OR SWAP1 SWAP2 SSTORE SWAP1 MLOAD SWAP1 DUP2 MSTORE SWAP2 SWAP3 SWAP2 PUSH32 0x17307EAB39AB6107E8899845AD3D59BD9653F200F220920489CA2B5937696C31 SWAP2 ADD PUSH1 0x40 MLOAD DUP1 SWAP2 SUB SWAP1 LOG3 POP POP JUMP JUMPDEST PUSH1 0x1 PUSH1 0x1 PUSH1 0xA0 SHL SUB DUP6 AND CALLER EQ DUP1 PUSH2 0x705 JUMPI POP PUSH2 0x705 DUP6 CALLER PUSH2 0x246 JUMP JUMPDEST PUSH2 0x763 JUMPI PUSH1 0x40 MLOAD PUSH3 0x461BCD PUSH1 0xE5 SHL DUP2 MSTORE PUSH1 0x20 PUSH1 0x4 DUP3 ADD MSTORE PUSH1 0x29 PUSH1 0x24 DUP3 ADD MSTORE PUSH32 0x455243313135353A2063616C6C6572206973206E6F74206F776E6572206E6F72 PUSH1 0x44 DUP3 ADD MSTORE PUSH9 0x8185C1C1C9BDD9959 PUSH1 0xBA SHL PUSH1 0x64 DUP3 ADD MSTORE PUSH1 0x84 ADD PUSH2 0x302 JUMP JUMPDEST PUSH2 0x4C5 DUP6 DUP6 DUP6 DUP6 DUP6 PUSH2 0x951 JUMP JUMPDEST PUSH2 0x601 DUP4 DUP4 DUP4 PUSH2 0xA77 JUMP JUMPDEST DUP1 MLOAD PUSH2 0x78E SWAP1 PUSH1 0x2 SWAP1 PUSH1 0x20 DUP5 ADD SWAP1 PUSH2 0x12E1 JUMP JUMPDEST POP POP JUMP JUMPDEST PUSH2 0x42F DUP5 DUP5 DUP5 DUP5 PUSH2 0xA82 JUMP JUMPDEST DUP2 MLOAD DUP4 MLOAD EQ PUSH2 0x7BF JUMPI PUSH1 0x40 MLOAD PUSH3 0x461BCD PUSH1 0xE5 SHL DUP2 MSTORE PUSH1 0x4 ADD PUSH2 0x302 SWAP1 PUSH2 0x1AC8 JUMP JUMPDEST PUSH1 0x1 PUSH1 0x1 PUSH1 0xA0 SHL SUB DUP5 AND PUSH2 0x7E5 JUMPI PUSH1 0x40 MLOAD PUSH3 0x461BCD PUSH1 0xE5 SHL DUP2 MSTORE PUSH1 0x4 ADD PUSH2 0x302 SWAP1 PUSH2 0x1B10 JUMP JUMPDEST CALLER PUSH1 0x0 JUMPDEST DUP5 MLOAD DUP2 LT ISZERO PUSH2 0x8CC JUMPI PUSH1 0x0 DUP6 DUP3 DUP2 MLOAD DUP2 LT PUSH2 0x806 JUMPI PUSH2 0x806 PUSH2 0x1A81 JUMP JUMPDEST PUSH1 0x20 MUL PUSH1 0x20 ADD ADD MLOAD SWAP1 POP PUSH1 0x0 DUP6 DUP4 DUP2 MLOAD DUP2 LT PUSH2 0x824 JUMPI PUSH2 0x824 PUSH2 0x1A81 JUMP JUMPDEST PUSH1 0x20 SWAP1 DUP2 MUL SWAP2 SWAP1 SWAP2 ADD DUP2 ADD MLOAD PUSH1 0x0 DUP5 DUP2 MSTORE DUP1 DUP4 MSTORE PUSH1 0x40 DUP1 DUP3 KECCAK256 PUSH1 0x1 PUSH1 0x1 PUSH1 0xA0 SHL SUB DUP15 AND DUP4 MSTORE SWAP1 SWAP4 MSTORE SWAP2 SWAP1 SWAP2 KECCAK256 SLOAD SWAP1 SWAP2 POP DUP2 DUP2 LT ISZERO PUSH2 0x874 JUMPI PUSH1 0x40 MLOAD PUSH3 0x461BCD PUSH1 0xE5 SHL DUP2 MSTORE PUSH1 0x4 ADD PUSH2 0x302 SWAP1 PUSH2 0x1B55 JUMP JUMPDEST PUSH1 0x0 DUP4 DUP2 MSTORE PUSH1 0x20 DUP2 DUP2 MSTORE PUSH1 0x40 DUP1 DUP4 KECCAK256 PUSH1 0x1 PUSH1 0x1 PUSH1 0xA0 SHL SUB DUP15 DUP2 AND DUP6 MSTORE SWAP3 MSTORE DUP1 DUP4 KECCAK256 DUP6 DUP6 SUB SWAP1 SSTORE SWAP1 DUP12 AND DUP3 MSTORE DUP2 KECCAK256 DUP1 SLOAD DUP5 SWAP3 SWAP1 PUSH2 0x8B1 SWAP1 DUP5 SWAP1 PUSH2 0x1B9F JUMP JUMPDEST SWAP3 POP POP DUP2 SWAP1 SSTORE POP POP POP POP DUP1 PUSH2 0x8C5 SWAP1 PUSH2 0x1AAD JUMP JUMPDEST SWAP1 POP PUSH2 0x7E9 JUMP JUMPDEST POP DUP5 PUSH1 0x1 PUSH1 0x1 PUSH1 0xA0 SHL SUB AND DUP7 PUSH1 0x1 PUSH1 0x1 PUSH1 0xA0 SHL SUB AND DUP3 PUSH1 0x1 PUSH1 0x1 PUSH1 0xA0 SHL SUB AND PUSH32 0x4A39DC06D4C0DBC64B70AF90FD698A233A518AA5D07E595D983B8C0526C8F7FB DUP8 DUP8 PUSH1 0x40 MLOAD PUSH2 0x91C SWAP3 SWAP2 SWAP1 PUSH2 0x1BB7 JUMP JUMPDEST PUSH1 0x40 MLOAD DUP1 SWAP2 SUB SWAP1 LOG4 PUSH2 0x932 DUP2 DUP8 DUP8 DUP8 DUP8 DUP8 PUSH2 0xB05 JUMP JUMPDEST POP POP POP POP POP POP JUMP JUMPDEST PUSH2 0x601 DUP4 DUP4 DUP4 PUSH2 0xC61 JUMP JUMPDEST PUSH2 0x42F DUP5 DUP5 DUP5 DUP5 PUSH2 0xCE3 JUMP JUMPDEST PUSH1 0x1 PUSH1 0x1 PUSH1 0xA0 SHL SUB DUP5 AND PUSH2 0x977 JUMPI PUSH1 0x40 MLOAD PUSH3 0x461BCD PUSH1 0xE5 SHL DUP2 MSTORE PUSH1 0x4 ADD PUSH2 0x302 SWAP1 PUSH2 0x1B10 JUMP JUMPDEST CALLER PUSH2 0x990 DUP2 DUP8 DUP8 PUSH2 0x987 DUP9 PUSH2 0xD18 JUMP JUMPDEST PUSH2 0x4C5 DUP9 PUSH2 0xD18 JUMP JUMPDEST PUSH1 0x0 DUP5 DUP2 MSTORE PUSH1 0x20 DUP2 DUP2 MSTORE PUSH1 0x40 DUP1 DUP4 KECCAK256 PUSH1 0x1 PUSH1 0x1 PUSH1 0xA0 SHL SUB DUP11 AND DUP5 MSTORE SWAP1 SWAP2 MSTORE SWAP1 KECCAK256 SLOAD DUP4 DUP2 LT ISZERO PUSH2 0x9D1 JUMPI PUSH1 0x40 MLOAD PUSH3 0x461BCD PUSH1 0xE5 SHL DUP2 MSTORE PUSH1 0x4 ADD PUSH2 0x302 SWAP1 PUSH2 0x1B55 JUMP JUMPDEST PUSH1 0x0 DUP6 DUP2 MSTORE PUSH1 0x20 DUP2 DUP2 MSTORE PUSH1 0x40 DUP1 DUP4 KECCAK256 PUSH1 0x1 PUSH1 0x1 PUSH1 0xA0 SHL SUB DUP12 DUP2 AND DUP6 MSTORE SWAP3 MSTORE DUP1 DUP4 KECCAK256 DUP8 DUP6 SUB SWAP1 SSTORE SWAP1 DUP9 AND DUP3 MSTORE DUP2 KECCAK256 DUP1 SLOAD DUP7 SWAP3 SWAP1 PUSH2 0xA0E SWAP1 DUP5 SWAP1 PUSH2 0x1B9F JUMP JUMPDEST SWAP1 SWAP2 SSTORE POP POP PUSH1 0x40 DUP1 MLOAD DUP7 DUP2 MSTORE PUSH1 0x20 DUP2 ADD DUP7 SWAP1 MSTORE PUSH1 0x1 PUSH1 0x1 PUSH1 0xA0 SHL SUB DUP1 DUP10 AND SWAP3 DUP11 DUP3 AND SWAP3 SWAP2 DUP7 AND SWAP2 PUSH32 0xC3D58168C5AE7397731D063D5BBF3D657854427343F4C083240F7AACAA2D0F62 SWAP2 ADD PUSH1 0x40 MLOAD DUP1 SWAP2 SUB SWAP1 LOG4 PUSH2 0xA6E DUP3 DUP9 DUP9 DUP9 DUP9 DUP9 PUSH2 0xD63 JUMP JUMPDEST POP POP POP POP POP POP POP JUMP JUMPDEST PUSH2 0x601 DUP4 DUP4 DUP4 PUSH2 0xE1E JUMP JUMPDEST PUSH2 0xA8E DUP5 DUP5 DUP5 DUP5 PUSH2 0xE51 JUMP JUMPDEST PUSH1 0x0 JUMPDEST DUP4 MLOAD DUP2 LT ISZERO PUSH2 0x4C5 JUMPI DUP3 DUP2 DUP2 MLOAD DUP2 LT PUSH2 0xAAC JUMPI PUSH2 0xAAC PUSH2 0x1A81 JUMP JUMPDEST PUSH1 0x20 MUL PUSH1 0x20 ADD ADD MLOAD PUSH1 0x3 PUSH1 0x0 DUP7 DUP5 DUP2 MLOAD DUP2 LT PUSH2 0xACA JUMPI PUSH2 0xACA PUSH2 0x1A81 JUMP JUMPDEST PUSH1 0x20 MUL PUSH1 0x20 ADD ADD MLOAD DUP2 MSTORE PUSH1 0x20 ADD SWAP1 DUP2 MSTORE PUSH1 0x20 ADD PUSH1 0x0 KECCAK256 PUSH1 0x0 DUP3 DUP3 SLOAD PUSH2 0xAEF SWAP2 SWAP1 PUSH2 0x1B9F JUMP JUMPDEST SWAP1 SWAP2 SSTORE POP PUSH2 0xAFE SWAP1 POP DUP2 PUSH2 0x1AAD JUMP JUMPDEST SWAP1 POP PUSH2 0xA91 JUMP JUMPDEST PUSH1 0x1 PUSH1 0x1 PUSH1 0xA0 SHL SUB DUP5 AND EXTCODESIZE ISZERO PUSH2 0x932 JUMPI PUSH1 0x40 MLOAD PUSH4 0xBC197C81 PUSH1 0xE0 SHL DUP2 MSTORE PUSH1 0x1 PUSH1 0x1 PUSH1 0xA0 SHL SUB DUP6 AND SWAP1 PUSH4 0xBC197C81 SWAP1 PUSH2 0xB49 SWAP1 DUP10 SWAP1 DUP10 SWAP1 DUP9 SWAP1 DUP9 SWAP1 DUP9 SWAP1 PUSH1 0x4 ADD PUSH2 0x1BE5 JUMP JUMPDEST PUSH1 0x20 PUSH1 0x40 MLOAD DUP1 DUP4 SUB DUP2 PUSH1 0x0 DUP8 GAS CALL SWAP3 POP POP POP DUP1 ISZERO PUSH2 0xB84 JUMPI POP PUSH1 0x40 DUP1 MLOAD PUSH1 0x1F RETURNDATASIZE SWAP1 DUP2 ADD PUSH1 0x1F NOT AND DUP3 ADD SWAP1 SWAP3 MSTORE PUSH2 0xB81 SWAP2 DUP2 ADD SWAP1 PUSH2 0x1C43 JUMP JUMPDEST PUSH1 0x1 JUMPDEST PUSH2 0xC31 JUMPI PUSH2 0xB90 PUSH2 0x1C60 JUMP JUMPDEST DUP1 PUSH4 0x8C379A0 EQ ISZERO PUSH2 0xBCA JUMPI POP PUSH2 0xBA5 PUSH2 0x1C7C JUMP JUMPDEST DUP1 PUSH2 0xBB0 JUMPI POP PUSH2 0xBCC JUMP JUMPDEST DUP1 PUSH1 0x40 MLOAD PUSH3 0x461BCD PUSH1 0xE5 SHL DUP2 MSTORE PUSH1 0x4 ADD PUSH2 0x302 SWAP2 SWAP1 PUSH2 0x1552 JUMP JUMPDEST POP JUMPDEST PUSH1 0x40 MLOAD PUSH3 0x461BCD PUSH1 0xE5 SHL DUP2 MSTORE PUSH1 0x20 PUSH1 0x4 DUP3 ADD MSTORE PUSH1 0x34 PUSH1 0x24 DUP3 ADD MSTORE PUSH32 0x455243313135353A207472616E7366657220746F206E6F6E2045524331313535 PUSH1 0x44 DUP3 ADD MSTORE PUSH20 0x2932B1B2B4BB32B91034B6B83632B6B2B73A32B9 PUSH1 0x61 SHL PUSH1 0x64 DUP3 ADD MSTORE PUSH1 0x84 ADD PUSH2 0x302 JUMP JUMPDEST PUSH1 0x1 PUSH1 0x1 PUSH1 0xE0 SHL SUB NOT DUP2 AND PUSH4 0xBC197C81 PUSH1 0xE0 SHL EQ PUSH2 0xA6E JUMPI PUSH1 0x40 MLOAD PUSH3 0x461BCD PUSH1 0xE5 SHL DUP2 MSTORE PUSH1 0x4 ADD PUSH2 0x302 SWAP1 PUSH2 0x1D06 JUMP JUMPDEST PUSH2 0xC6C DUP4 DUP4 DUP4 PUSH2 0xF9C JUMP JUMPDEST PUSH1 0x0 JUMPDEST DUP3 MLOAD DUP2 LT ISZERO PUSH2 0x42F JUMPI DUP2 DUP2 DUP2 MLOAD DUP2 LT PUSH2 0xC8A JUMPI PUSH2 0xC8A PUSH2 0x1A81 JUMP JUMPDEST PUSH1 0x20 MUL PUSH1 0x20 ADD ADD MLOAD PUSH1 0x3 PUSH1 0x0 DUP6 DUP5 DUP2 MLOAD DUP2 LT PUSH2 0xCA8 JUMPI PUSH2 0xCA8 PUSH2 0x1A81 JUMP JUMPDEST PUSH1 0x20 MUL PUSH1 0x20 ADD ADD MLOAD DUP2 MSTORE PUSH1 0x20 ADD SWAP1 DUP2 MSTORE PUSH1 0x20 ADD PUSH1 0x0 KECCAK256 PUSH1 0x0 DUP3 DUP3 SLOAD PUSH2 0xCCD SWAP2 SWAP1 PUSH2 0x1D4E JUMP JUMPDEST SWAP1 SWAP2 SSTORE POP PUSH2 0xCDC SWAP1 POP DUP2 PUSH2 0x1AAD JUMP JUMPDEST SWAP1 POP PUSH2 0xC6F JUMP JUMPDEST PUSH2 0xCEF DUP5 DUP5 DUP5 DUP5 PUSH2 0x1118 JUMP JUMPDEST PUSH1 0x0 DUP4 DUP2 MSTORE PUSH1 0x3 PUSH1 0x20 MSTORE PUSH1 0x40 DUP2 KECCAK256 DUP1 SLOAD DUP5 SWAP3 SWAP1 PUSH2 0xD0D SWAP1 DUP5 SWAP1 PUSH2 0x1B9F JUMP JUMPDEST SWAP1 SWAP2 SSTORE POP POP POP POP POP POP JUMP JUMPDEST PUSH1 0x40 DUP1 MLOAD PUSH1 0x1 DUP1 DUP3 MSTORE DUP2 DUP4 ADD SWAP1 SWAP3 MSTORE PUSH1 0x60 SWAP2 PUSH1 0x0 SWAP2 SWAP1 PUSH1 0x20 DUP1 DUP4 ADD SWAP1 DUP1 CALLDATASIZE DUP4 CALLDATACOPY ADD SWAP1 POP POP SWAP1 POP DUP3 DUP2 PUSH1 0x0 DUP2 MLOAD DUP2 LT PUSH2 0xD52 JUMPI PUSH2 0xD52 PUSH2 0x1A81 JUMP JUMPDEST PUSH1 0x20 SWAP1 DUP2 MUL SWAP2 SWAP1 SWAP2 ADD ADD MSTORE SWAP3 SWAP2 POP POP JUMP JUMPDEST PUSH1 0x1 PUSH1 0x1 PUSH1 0xA0 SHL SUB DUP5 AND EXTCODESIZE ISZERO PUSH2 0x932 JUMPI PUSH1 0x40 MLOAD PUSH4 0xF23A6E61 PUSH1 0xE0 SHL DUP2 MSTORE PUSH1 0x1 PUSH1 0x1 PUSH1 0xA0 SHL SUB DUP6 AND SWAP1 PUSH4 0xF23A6E61 SWAP1 PUSH2 0xDA7 SWAP1 DUP10 SWAP1 DUP10 SWAP1 DUP9 SWAP1 DUP9 SWAP1 DUP9 SWAP1 PUSH1 0x4 ADD PUSH2 0x1D65 JUMP JUMPDEST PUSH1 0x20 PUSH1 0x40 MLOAD DUP1 DUP4 SUB DUP2 PUSH1 0x0 DUP8 GAS CALL SWAP3 POP POP POP DUP1 ISZERO PUSH2 0xDE2 JUMPI POP PUSH1 0x40 DUP1 MLOAD PUSH1 0x1F RETURNDATASIZE SWAP1 DUP2 ADD PUSH1 0x1F NOT AND DUP3 ADD SWAP1 SWAP3 MSTORE PUSH2 0xDDF SWAP2 DUP2 ADD SWAP1 PUSH2 0x1C43 JUMP JUMPDEST PUSH1 0x1 JUMPDEST PUSH2 0xDEE JUMPI PUSH2 0xB90 PUSH2 0x1C60 JUMP JUMPDEST PUSH1 0x1 PUSH1 0x1 PUSH1 0xE0 SHL SUB NOT DUP2 AND PUSH4 0xF23A6E61 PUSH1 0xE0 SHL EQ PUSH2 0xA6E JUMPI PUSH1 0x40 MLOAD PUSH3 0x461BCD PUSH1 0xE5 SHL DUP2 MSTORE PUSH1 0x4 ADD PUSH2 0x302 SWAP1 PUSH2 0x1D06 JUMP JUMPDEST PUSH2 0xE29 DUP4 DUP4 DUP4 PUSH2 0x11DF JUMP JUMPDEST PUSH1 0x0 DUP3 DUP2 MSTORE PUSH1 0x3 PUSH1 0x20 MSTORE PUSH1 0x40 DUP2 KECCAK256 DUP1 SLOAD DUP4 SWAP3 SWAP1 PUSH2 0xE47 SWAP1 DUP5 SWAP1 PUSH2 0x1D4E JUMP JUMPDEST SWAP1 SWAP2 SSTORE POP POP POP POP POP JUMP JUMPDEST PUSH1 0x1 PUSH1 0x1 PUSH1 0xA0 SHL SUB DUP5 AND PUSH2 0xE77 JUMPI PUSH1 0x40 MLOAD PUSH3 0x461BCD PUSH1 0xE5 SHL DUP2 MSTORE PUSH1 0x4 ADD PUSH2 0x302 SWAP1 PUSH2 0x1DAA JUMP JUMPDEST DUP2 MLOAD DUP4 MLOAD EQ PUSH2 0xE98 JUMPI PUSH1 0x40 MLOAD PUSH3 0x461BCD PUSH1 0xE5 SHL DUP2 MSTORE PUSH1 0x4 ADD PUSH2 0x302 SWAP1 PUSH2 0x1AC8 JUMP JUMPDEST CALLER PUSH1 0x0 JUMPDEST DUP5 MLOAD DUP2 LT ISZERO PUSH2 0xF34 JUMPI DUP4 DUP2 DUP2 MLOAD DUP2 LT PUSH2 0xEB7 JUMPI PUSH2 0xEB7 PUSH2 0x1A81 JUMP JUMPDEST PUSH1 0x20 MUL PUSH1 0x20 ADD ADD MLOAD PUSH1 0x0 DUP1 DUP8 DUP5 DUP2 MLOAD DUP2 LT PUSH2 0xED4 JUMPI PUSH2 0xED4 PUSH2 0x1A81 JUMP JUMPDEST PUSH1 0x20 MUL PUSH1 0x20 ADD ADD MLOAD DUP2 MSTORE PUSH1 0x20 ADD SWAP1 DUP2 MSTORE PUSH1 0x20 ADD PUSH1 0x0 KECCAK256 PUSH1 0x0 DUP9 PUSH1 0x1 PUSH1 0x1 PUSH1 0xA0 SHL SUB AND PUSH1 0x1 PUSH1 0x1 PUSH1 0xA0 SHL SUB AND DUP2 MSTORE PUSH1 0x20 ADD SWAP1 DUP2 MSTORE PUSH1 0x20 ADD PUSH1 0x0 KECCAK256 PUSH1 0x0 DUP3 DUP3 SLOAD PUSH2 0xF1C SWAP2 SWAP1 PUSH2 0x1B9F JUMP JUMPDEST SWAP1 SWAP2 SSTORE POP DUP2 SWAP1 POP PUSH2 0xF2C DUP2 PUSH2 0x1AAD JUMP JUMPDEST SWAP2 POP POP PUSH2 0xE9C JUMP JUMPDEST POP DUP5 PUSH1 0x1 PUSH1 0x1 PUSH1 0xA0 SHL SUB AND PUSH1 0x0 PUSH1 0x1 PUSH1 0x1 PUSH1 0xA0 SHL SUB AND DUP3 PUSH1 0x1 PUSH1 0x1 PUSH1 0xA0 SHL SUB AND PUSH32 0x4A39DC06D4C0DBC64B70AF90FD698A233A518AA5D07E595D983B8C0526C8F7FB DUP8 DUP8 PUSH1 0x40 MLOAD PUSH2 0xF85 SWAP3 SWAP2 SWAP1 PUSH2 0x1BB7 JUMP JUMPDEST PUSH1 0x40 MLOAD DUP1 SWAP2 SUB SWAP1 LOG4 PUSH2 0x4C5 DUP2 PUSH1 0x0 DUP8 DUP8 DUP8 DUP8 PUSH2 0xB05 JUMP JUMPDEST PUSH1 0x1 PUSH1 0x1 PUSH1 0xA0 SHL SUB DUP4 AND PUSH2 0xFC2 JUMPI PUSH1 0x40 MLOAD PUSH3 0x461BCD PUSH1 0xE5 SHL DUP2 MSTORE PUSH1 0x4 ADD PUSH2 0x302 SWAP1 PUSH2 0x1DEB JUMP JUMPDEST DUP1 MLOAD DUP3 MLOAD EQ PUSH2 0xFE3 JUMPI PUSH1 0x40 MLOAD PUSH3 0x461BCD PUSH1 0xE5 SHL DUP2 MSTORE PUSH1 0x4 ADD PUSH2 0x302 SWAP1 PUSH2 0x1AC8 JUMP JUMPDEST PUSH1 0x40 DUP1 MLOAD PUSH1 0x20 DUP2 ADD SWAP1 SWAP2 MSTORE PUSH1 0x0 SWAP1 DUP2 SWAP1 MSTORE CALLER SWAP1 JUMPDEST DUP4 MLOAD DUP2 LT ISZERO PUSH2 0x10B9 JUMPI PUSH1 0x0 DUP5 DUP3 DUP2 MLOAD DUP2 LT PUSH2 0x1014 JUMPI PUSH2 0x1014 PUSH2 0x1A81 JUMP JUMPDEST PUSH1 0x20 MUL PUSH1 0x20 ADD ADD MLOAD SWAP1 POP PUSH1 0x0 DUP5 DUP4 DUP2 MLOAD DUP2 LT PUSH2 0x1032 JUMPI PUSH2 0x1032 PUSH2 0x1A81 JUMP JUMPDEST PUSH1 0x20 SWAP1 DUP2 MUL SWAP2 SWAP1 SWAP2 ADD DUP2 ADD MLOAD PUSH1 0x0 DUP5 DUP2 MSTORE DUP1 DUP4 MSTORE PUSH1 0x40 DUP1 DUP3 KECCAK256 PUSH1 0x1 PUSH1 0x1 PUSH1 0xA0 SHL SUB DUP13 AND DUP4 MSTORE SWAP1 SWAP4 MSTORE SWAP2 SWAP1 SWAP2 KECCAK256 SLOAD SWAP1 SWAP2 POP DUP2 DUP2 LT ISZERO PUSH2 0x1082 JUMPI PUSH1 0x40 MLOAD PUSH3 0x461BCD PUSH1 0xE5 SHL DUP2 MSTORE PUSH1 0x4 ADD PUSH2 0x302 SWAP1 PUSH2 0x1E2E JUMP JUMPDEST PUSH1 0x0 SWAP3 DUP4 MSTORE PUSH1 0x20 DUP4 DUP2 MSTORE PUSH1 0x40 DUP1 DUP6 KECCAK256 PUSH1 0x1 PUSH1 0x1 PUSH1 0xA0 SHL SUB DUP12 AND DUP7 MSTORE SWAP1 SWAP2 MSTORE SWAP1 SWAP3 KECCAK256 SWAP2 SUB SWAP1 SSTORE DUP1 PUSH2 0x10B1 DUP2 PUSH2 0x1AAD JUMP JUMPDEST SWAP2 POP POP PUSH2 0xFF7 JUMP JUMPDEST POP PUSH1 0x0 PUSH1 0x1 PUSH1 0x1 PUSH1 0xA0 SHL SUB AND DUP5 PUSH1 0x1 PUSH1 0x1 PUSH1 0xA0 SHL SUB AND DUP3 PUSH1 0x1 PUSH1 0x1 PUSH1 0xA0 SHL SUB AND PUSH32 0x4A39DC06D4C0DBC64B70AF90FD698A233A518AA5D07E595D983B8C0526C8F7FB DUP7 DUP7 PUSH1 0x40 MLOAD PUSH2 0x110A SWAP3 SWAP2 SWAP1 PUSH2 0x1BB7 JUMP JUMPDEST PUSH1 0x40 MLOAD DUP1 SWAP2 SUB SWAP1 LOG4 POP POP POP POP JUMP JUMPDEST PUSH1 0x1 PUSH1 0x1 PUSH1 0xA0 SHL SUB DUP5 AND PUSH2 0x113E JUMPI PUSH1 0x40 MLOAD PUSH3 0x461BCD PUSH1 0xE5 SHL DUP2 MSTORE PUSH1 0x4 ADD PUSH2 0x302 SWAP1 PUSH2 0x1DAA JUMP JUMPDEST CALLER PUSH2 0x114F DUP2 PUSH1 0x0 DUP8 PUSH2 0x987 DUP9 PUSH2 0xD18 JUMP JUMPDEST PUSH1 0x0 DUP5 DUP2 MSTORE PUSH1 0x20 DUP2 DUP2 MSTORE PUSH1 0x40 DUP1 DUP4 KECCAK256 PUSH1 0x1 PUSH1 0x1 PUSH1 0xA0 SHL SUB DUP10 AND DUP5 MSTORE SWAP1 SWAP2 MSTORE DUP2 KECCAK256 DUP1 SLOAD DUP6 SWAP3 SWAP1 PUSH2 0x117F SWAP1 DUP5 SWAP1 PUSH2 0x1B9F JUMP JUMPDEST SWAP1 SWAP2 SSTORE POP POP PUSH1 0x40 DUP1 MLOAD DUP6 DUP2 MSTORE PUSH1 0x20 DUP2 ADD DUP6 SWAP1 MSTORE PUSH1 0x1 PUSH1 0x1 PUSH1 0xA0 SHL SUB DUP1 DUP9 AND SWAP3 PUSH1 0x0 SWAP3 SWAP2 DUP6 AND SWAP2 PUSH32 0xC3D58168C5AE7397731D063D5BBF3D657854427343F4C083240F7AACAA2D0F62 SWAP2 ADD PUSH1 0x40 MLOAD DUP1 SWAP2 SUB SWAP1 LOG4 PUSH2 0x4C5 DUP2 PUSH1 0x0 DUP8 DUP8 DUP8 DUP8 PUSH2 0xD63 JUMP JUMPDEST PUSH1 0x1 PUSH1 0x1 PUSH1 0xA0 SHL SUB DUP4 AND PUSH2 0x1205 JUMPI PUSH1 0x40 MLOAD PUSH3 0x461BCD PUSH1 0xE5 SHL DUP2 MSTORE PUSH1 0x4 ADD PUSH2 0x302 SWAP1 PUSH2 0x1DEB JUMP JUMPDEST CALLER PUSH2 0x1235 DUP2 DUP6 PUSH1 0x0 PUSH2 0x1216 DUP8 PUSH2 0xD18 JUMP JUMPDEST PUSH2 0x121F DUP8 PUSH2 0xD18 JUMP JUMPDEST POP POP PUSH1 0x40 DUP1 MLOAD PUSH1 0x20 DUP2 ADD SWAP1 SWAP2 MSTORE PUSH1 0x0 SWAP1 MSTORE POP POP POP JUMP JUMPDEST PUSH1 0x0 DUP4 DUP2 MSTORE PUSH1 0x20 DUP2 DUP2 MSTORE PUSH1 0x40 DUP1 DUP4 KECCAK256 PUSH1 0x1 PUSH1 0x1 PUSH1 0xA0 SHL SUB DUP9 AND DUP5 MSTORE SWAP1 SWAP2 MSTORE SWAP1 KECCAK256 SLOAD DUP3 DUP2 LT ISZERO PUSH2 0x1276 JUMPI PUSH1 0x40 MLOAD PUSH3 0x461BCD PUSH1 0xE5 SHL DUP2 MSTORE PUSH1 0x4 ADD PUSH2 0x302 SWAP1 PUSH2 0x1E2E JUMP JUMPDEST PUSH1 0x0 DUP5 DUP2 MSTORE PUSH1 0x20 DUP2 DUP2 MSTORE PUSH1 0x40 DUP1 DUP4 KECCAK256 PUSH1 0x1 PUSH1 0x1 PUSH1 0xA0 SHL SUB DUP10 DUP2 AND DUP1 DUP7 MSTORE SWAP2 DUP5 MSTORE DUP3 DUP6 KECCAK256 DUP9 DUP8 SUB SWAP1 SSTORE DUP3 MLOAD DUP10 DUP2 MSTORE SWAP4 DUP5 ADD DUP9 SWAP1 MSTORE SWAP1 SWAP3 SWAP1 DUP7 AND SWAP2 PUSH32 0xC3D58168C5AE7397731D063D5BBF3D657854427343F4C083240F7AACAA2D0F62 SWAP2 ADD PUSH1 0x40 MLOAD DUP1 SWAP2 SUB SWAP1 LOG4 POP POP POP POP POP JUMP JUMPDEST DUP3 DUP1 SLOAD PUSH2 0x12ED SWAP1 PUSH2 0x1A46 JUMP JUMPDEST SWAP1 PUSH1 0x0 MSTORE PUSH1 0x20 PUSH1 0x0 KECCAK256 SWAP1 PUSH1 0x1F ADD PUSH1 0x20 SWAP1 DIV DUP2 ADD SWAP3 DUP3 PUSH2 0x130F JUMPI PUSH1 0x0 DUP6 SSTORE PUSH2 0x1355 JUMP JUMPDEST DUP3 PUSH1 0x1F LT PUSH2 0x1328 JUMPI DUP1 MLOAD PUSH1 0xFF NOT AND DUP4 DUP1 ADD OR DUP6 SSTORE PUSH2 0x1355 JUMP JUMPDEST DUP3 DUP1 ADD PUSH1 0x1 ADD DUP6 SSTORE DUP3 ISZERO PUSH2 0x1355 JUMPI SWAP2 DUP3 ADD JUMPDEST DUP3 DUP2 GT ISZERO PUSH2 0x1355 JUMPI DUP3 MLOAD DUP3 SSTORE SWAP2 PUSH1 0x20 ADD SWAP2 SWAP1 PUSH1 0x1 ADD SWAP1 PUSH2 0x133A JUMP JUMPDEST POP PUSH2 0x1361 SWAP3 SWAP2 POP PUSH2 0x1365 JUMP JUMPDEST POP SWAP1 JUMP JUMPDEST JUMPDEST DUP1 DUP3 GT ISZERO PUSH2 0x1361 JUMPI PUSH1 0x0 DUP2 SSTORE PUSH1 0x1 ADD PUSH2 0x1366 JUMP JUMPDEST DUP1 CALLDATALOAD PUSH1 0x1 PUSH1 0x1 PUSH1 0xA0 SHL SUB DUP2 AND DUP2 EQ PUSH2 0x1391 JUMPI PUSH1 0x0 DUP1 REVERT JUMPDEST SWAP2 SWAP1 POP JUMP JUMPDEST PUSH1 0x0 DUP1 PUSH1 0x40 DUP4 DUP6 SUB SLT ISZERO PUSH2 0x13A9 JUMPI PUSH1 0x0 DUP1 REVERT JUMPDEST PUSH2 0x13B2 DUP4 PUSH2 0x137A JUMP JUMPDEST SWAP5 PUSH1 0x20 SWAP4 SWAP1 SWAP4 ADD CALLDATALOAD SWAP4 POP POP POP JUMP JUMPDEST PUSH1 0x1 PUSH1 0x1 PUSH1 0xE0 SHL SUB NOT DUP2 AND DUP2 EQ PUSH2 0x38C JUMPI PUSH1 0x0 DUP1 REVERT JUMPDEST PUSH1 0x0 PUSH1 0x20 DUP3 DUP5 SUB SLT ISZERO PUSH2 0x13E8 JUMPI PUSH1 0x0 DUP1 REVERT JUMPDEST DUP2 CALLDATALOAD PUSH2 0x13F3 DUP2 PUSH2 0x13C0 JUMP JUMPDEST SWAP4 SWAP3 POP POP POP JUMP JUMPDEST PUSH4 0x4E487B71 PUSH1 0xE0 SHL PUSH1 0x0 MSTORE PUSH1 0x41 PUSH1 0x4 MSTORE PUSH1 0x24 PUSH1 0x0 REVERT JUMPDEST PUSH1 0x1F DUP3 ADD PUSH1 0x1F NOT AND DUP2 ADD PUSH8 0xFFFFFFFFFFFFFFFF DUP2 GT DUP3 DUP3 LT OR ISZERO PUSH2 0x1436 JUMPI PUSH2 0x1436 PUSH2 0x13FA JUMP JUMPDEST PUSH1 0x40 MSTORE POP POP JUMP JUMPDEST PUSH1 0x0 PUSH8 0xFFFFFFFFFFFFFFFF DUP4 GT ISZERO PUSH2 0x1457 JUMPI PUSH2 0x1457 PUSH2 0x13FA JUMP JUMPDEST PUSH1 0x40 MLOAD PUSH2 0x146E PUSH1 0x1F DUP6 ADD PUSH1 0x1F NOT AND PUSH1 0x20 ADD DUP3 PUSH2 0x1410 JUMP JUMPDEST DUP1 SWAP2 POP DUP4 DUP2 MSTORE DUP5 DUP5 DUP5 ADD GT ISZERO PUSH2 0x1483 JUMPI PUSH1 0x0 DUP1 REVERT JUMPDEST DUP4 DUP4 PUSH1 0x20 DUP4 ADD CALLDATACOPY PUSH1 0x0 PUSH1 0x20 DUP6 DUP4 ADD ADD MSTORE POP SWAP4 SWAP3 POP POP POP JUMP JUMPDEST PUSH1 0x0 PUSH1 0x20 DUP3 DUP5 SUB SLT ISZERO PUSH2 0x14AD JUMPI PUSH1 0x0 DUP1 REVERT JUMPDEST DUP2 CALLDATALOAD PUSH8 0xFFFFFFFFFFFFFFFF DUP2 GT ISZERO PUSH2 0x14C4 JUMPI PUSH1 0x0 DUP1 REVERT JUMPDEST DUP3 ADD PUSH1 0x1F DUP2 ADD DUP5 SGT PUSH2 0x14D5 JUMPI PUSH1 0x0 DUP1 REVERT JUMPDEST PUSH2 0x14E4 DUP5 DUP3 CALLDATALOAD PUSH1 0x20 DUP5 ADD PUSH2 0x143D JUMP JUMPDEST SWAP5 SWAP4 POP POP POP POP JUMP JUMPDEST PUSH1 0x0 PUSH1 0x20 DUP3 DUP5 SUB SLT ISZERO PUSH2 0x14FE JUMPI PUSH1 0x0 DUP1 REVERT JUMPDEST POP CALLDATALOAD SWAP2 SWAP1 POP JUMP JUMPDEST PUSH1 0x0 DUP2 MLOAD DUP1 DUP5 MSTORE PUSH1 0x0 JUMPDEST DUP2 DUP2 LT ISZERO PUSH2 0x152B JUMPI PUSH1 0x20 DUP2 DUP6 ADD DUP2 ADD MLOAD DUP7 DUP4 ADD DUP3 ADD MSTORE ADD PUSH2 0x150F JUMP JUMPDEST DUP2 DUP2 GT ISZERO PUSH2 0x153D JUMPI PUSH1 0x0 PUSH1 0x20 DUP4 DUP8 ADD ADD MSTORE JUMPDEST POP PUSH1 0x1F ADD PUSH1 0x1F NOT AND SWAP3 SWAP1 SWAP3 ADD PUSH1 0x20 ADD SWAP3 SWAP2 POP POP JUMP JUMPDEST PUSH1 0x20 DUP2 MSTORE PUSH1 0x0 PUSH2 0x13F3 PUSH1 0x20 DUP4 ADD DUP5 PUSH2 0x1505 JUMP JUMPDEST PUSH1 0x0 PUSH8 0xFFFFFFFFFFFFFFFF DUP3 GT ISZERO PUSH2 0x157F JUMPI PUSH2 0x157F PUSH2 0x13FA JUMP JUMPDEST POP PUSH1 0x5 SHL PUSH1 0x20 ADD SWAP1 JUMP JUMPDEST PUSH1 0x0 DUP3 PUSH1 0x1F DUP4 ADD SLT PUSH2 0x159A JUMPI PUSH1 0x0 DUP1 REVERT JUMPDEST DUP2 CALLDATALOAD PUSH1 0x20 PUSH2 0x15A7 DUP3 PUSH2 0x1565 JUMP JUMPDEST PUSH1 0x40 MLOAD PUSH2 0x15B4 DUP3 DUP3 PUSH2 0x1410 JUMP JUMPDEST DUP4 DUP2 MSTORE PUSH1 0x5 SWAP4 SWAP1 SWAP4 SHL DUP6 ADD DUP3 ADD SWAP3 DUP3 DUP2 ADD SWAP2 POP DUP7 DUP5 GT ISZERO PUSH2 0x15D4 JUMPI PUSH1 0x0 DUP1 REVERT JUMPDEST DUP3 DUP7 ADD JUMPDEST DUP5 DUP2 LT ISZERO PUSH2 0x15EF JUMPI DUP1 CALLDATALOAD DUP4 MSTORE SWAP2 DUP4 ADD SWAP2 DUP4 ADD PUSH2 0x15D8 JUMP JUMPDEST POP SWAP7 SWAP6 POP POP POP POP POP POP JUMP JUMPDEST PUSH1 0x0 DUP3 PUSH1 0x1F DUP4 ADD SLT PUSH2 0x160B JUMPI PUSH1 0x0 DUP1 REVERT JUMPDEST PUSH2 0x13F3 DUP4 DUP4 CALLDATALOAD PUSH1 0x20 DUP6 ADD PUSH2 0x143D JUMP JUMPDEST PUSH1 0x0 DUP1 PUSH1 0x0 DUP1 PUSH1 0x80 DUP6 DUP8 SUB SLT ISZERO PUSH2 0x1630 JUMPI PUSH1 0x0 DUP1 REVERT JUMPDEST PUSH2 0x1639 DUP6 PUSH2 0x137A JUMP JUMPDEST SWAP4 POP PUSH1 0x20 DUP6 ADD CALLDATALOAD PUSH8 0xFFFFFFFFFFFFFFFF DUP1 DUP3 GT ISZERO PUSH2 0x1656 JUMPI PUSH1 0x0 DUP1 REVERT JUMPDEST PUSH2 0x1662 DUP9 DUP4 DUP10 ADD PUSH2 0x1589 JUMP JUMPDEST SWAP5 POP PUSH1 0x40 DUP8 ADD CALLDATALOAD SWAP2 POP DUP1 DUP3 GT ISZERO PUSH2 0x1678 JUMPI PUSH1 0x0 DUP1 REVERT JUMPDEST PUSH2 0x1684 DUP9 DUP4 DUP10 ADD PUSH2 0x1589 JUMP JUMPDEST SWAP4 POP PUSH1 0x60 DUP8 ADD CALLDATALOAD SWAP2 POP DUP1 DUP3 GT ISZERO PUSH2 0x169A JUMPI PUSH1 0x0 DUP1 REVERT JUMPDEST POP PUSH2 0x16A7 DUP8 DUP3 DUP9 ADD PUSH2 0x15FA JUMP JUMPDEST SWAP2 POP POP SWAP3 SWAP6 SWAP2 SWAP5 POP SWAP3 POP JUMP JUMPDEST PUSH1 0x0 DUP1 PUSH1 0x0 DUP1 PUSH1 0x0 PUSH1 0xA0 DUP7 DUP9 SUB SLT ISZERO PUSH2 0x16CB JUMPI PUSH1 0x0 DUP1 REVERT JUMPDEST PUSH2 0x16D4 DUP7 PUSH2 0x137A JUMP JUMPDEST SWAP5 POP PUSH2 0x16E2 PUSH1 0x20 DUP8 ADD PUSH2 0x137A JUMP JUMPDEST SWAP4 POP PUSH1 0x40 DUP7 ADD CALLDATALOAD PUSH8 0xFFFFFFFFFFFFFFFF DUP1 DUP3 GT ISZERO PUSH2 0x16FF JUMPI PUSH1 0x0 DUP1 REVERT JUMPDEST PUSH2 0x170B DUP10 DUP4 DUP11 ADD PUSH2 0x1589 JUMP JUMPDEST SWAP5 POP PUSH1 0x60 DUP9 ADD CALLDATALOAD SWAP2 POP DUP1 DUP3 GT ISZERO PUSH2 0x1721 JUMPI PUSH1 0x0 DUP1 REVERT JUMPDEST PUSH2 0x172D DUP10 DUP4 DUP11 ADD PUSH2 0x1589 JUMP JUMPDEST SWAP4 POP PUSH1 0x80 DUP9 ADD CALLDATALOAD SWAP2 POP DUP1 DUP3 GT ISZERO PUSH2 0x1743 JUMPI PUSH1 0x0 DUP1 REVERT JUMPDEST POP PUSH2 0x1750 DUP9 DUP3 DUP10 ADD PUSH2 0x15FA JUMP JUMPDEST SWAP2 POP POP SWAP3 SWAP6 POP SWAP3 SWAP6 SWAP1 SWAP4 POP JUMP JUMPDEST PUSH1 0x0 DUP1 PUSH1 0x40 DUP4 DUP6 SUB SLT ISZERO PUSH2 0x1770 JUMPI PUSH1 0x0 DUP1 REVERT JUMPDEST DUP3 CALLDATALOAD PUSH8 0xFFFFFFFFFFFFFFFF DUP1 DUP3 GT ISZERO PUSH2 0x1788 JUMPI PUSH1 0x0 DUP1 REVERT JUMPDEST DUP2 DUP6 ADD SWAP2 POP DUP6 PUSH1 0x1F DUP4 ADD SLT PUSH2 0x179C JUMPI PUSH1 0x0 DUP1 REVERT JUMPDEST DUP2 CALLDATALOAD PUSH1 0x20 PUSH2 0x17A9 DUP3 PUSH2 0x1565 JUMP JUMPDEST PUSH1 0x40 MLOAD PUSH2 0x17B6 DUP3 DUP3 PUSH2 0x1410 JUMP JUMPDEST DUP4 DUP2 MSTORE PUSH1 0x5 SWAP4 SWAP1 SWAP4 SHL DUP6 ADD DUP3 ADD SWAP3 DUP3 DUP2 ADD SWAP2 POP DUP10 DUP5 GT ISZERO PUSH2 0x17D6 JUMPI PUSH1 0x0 DUP1 REVERT JUMPDEST SWAP5 DUP3 ADD SWAP5 JUMPDEST DUP4 DUP7 LT ISZERO PUSH2 0x17FB JUMPI PUSH2 0x17EC DUP7 PUSH2 0x137A JUMP JUMPDEST DUP3 MSTORE SWAP5 DUP3 ADD SWAP5 SWAP1 DUP3 ADD SWAP1 PUSH2 0x17DB JUMP JUMPDEST SWAP7 POP POP DUP7 ADD CALLDATALOAD SWAP3 POP POP DUP1 DUP3 GT ISZERO PUSH2 0x1811 JUMPI PUSH1 0x0 DUP1 REVERT JUMPDEST POP PUSH2 0x181E DUP6 DUP3 DUP7 ADD PUSH2 0x1589 JUMP JUMPDEST SWAP2 POP POP SWAP3 POP SWAP3 SWAP1 POP JUMP JUMPDEST PUSH1 0x0 DUP2 MLOAD DUP1 DUP5 MSTORE PUSH1 0x20 DUP1 DUP6 ADD SWAP5 POP DUP1 DUP5 ADD PUSH1 0x0 JUMPDEST DUP4 DUP2 LT ISZERO PUSH2 0x1858 JUMPI DUP2 MLOAD DUP8 MSTORE SWAP6 DUP3 ADD SWAP6 SWAP1 DUP3 ADD SWAP1 PUSH1 0x1 ADD PUSH2 0x183C JUMP JUMPDEST POP SWAP5 SWAP6 SWAP5 POP POP POP POP POP JUMP JUMPDEST PUSH1 0x20 DUP2 MSTORE PUSH1 0x0 PUSH2 0x13F3 PUSH1 0x20 DUP4 ADD DUP5 PUSH2 0x1828 JUMP JUMPDEST PUSH1 0x0 DUP1 PUSH1 0x0 PUSH1 0x60 DUP5 DUP7 SUB SLT ISZERO PUSH2 0x188B JUMPI PUSH1 0x0 DUP1 REVERT JUMPDEST PUSH2 0x1894 DUP5 PUSH2 0x137A JUMP JUMPDEST SWAP3 POP PUSH1 0x20 DUP5 ADD CALLDATALOAD PUSH8 0xFFFFFFFFFFFFFFFF DUP1 DUP3 GT ISZERO PUSH2 0x18B1 JUMPI PUSH1 0x0 DUP1 REVERT JUMPDEST PUSH2 0x18BD DUP8 DUP4 DUP9 ADD PUSH2 0x1589 JUMP JUMPDEST SWAP4 POP PUSH1 0x40 DUP7 ADD CALLDATALOAD SWAP2 POP DUP1 DUP3 GT ISZERO PUSH2 0x18D3 JUMPI PUSH1 0x0 DUP1 REVERT JUMPDEST POP PUSH2 0x18E0 DUP7 DUP3 DUP8 ADD PUSH2 0x1589 JUMP JUMPDEST SWAP2 POP POP SWAP3 POP SWAP3 POP SWAP3 JUMP JUMPDEST PUSH1 0x0 DUP1 PUSH1 0x0 DUP1 PUSH1 0x80 DUP6 DUP8 SUB SLT ISZERO PUSH2 0x1900 JUMPI PUSH1 0x0 DUP1 REVERT JUMPDEST PUSH2 0x1909 DUP6 PUSH2 0x137A JUMP JUMPDEST SWAP4 POP PUSH1 0x20 DUP6 ADD CALLDATALOAD SWAP3 POP PUSH1 0x40 DUP6 ADD CALLDATALOAD SWAP2 POP PUSH1 0x60 DUP6 ADD CALLDATALOAD PUSH8 0xFFFFFFFFFFFFFFFF DUP2 GT ISZERO PUSH2 0x1933 JUMPI PUSH1 0x0 DUP1 REVERT JUMPDEST PUSH2 0x16A7 DUP8 DUP3 DUP9 ADD PUSH2 0x15FA JUMP JUMPDEST PUSH1 0x0 DUP1 PUSH1 0x40 DUP4 DUP6 SUB SLT ISZERO PUSH2 0x1952 JUMPI PUSH1 0x0 DUP1 REVERT JUMPDEST PUSH2 0x195B DUP4 PUSH2 0x137A JUMP JUMPDEST SWAP2 POP PUSH1 0x20 DUP4 ADD CALLDATALOAD DUP1 ISZERO ISZERO DUP2 EQ PUSH2 0x1970 JUMPI PUSH1 0x0 DUP1 REVERT JUMPDEST DUP1 SWAP2 POP POP SWAP3 POP SWAP3 SWAP1 POP JUMP JUMPDEST PUSH1 0x0 DUP1 PUSH1 0x40 DUP4 DUP6 SUB SLT ISZERO PUSH2 0x198E JUMPI PUSH1 0x0 DUP1 REVERT JUMPDEST PUSH2 0x1997 DUP4 PUSH2 0x137A JUMP JUMPDEST SWAP2 POP PUSH2 0x19A5 PUSH1 0x20 DUP5 ADD PUSH2 0x137A JUMP JUMPDEST SWAP1 POP SWAP3 POP SWAP3 SWAP1 POP JUMP JUMPDEST PUSH1 0x0 DUP1 PUSH1 0x0 DUP1 PUSH1 0x0 PUSH1 0xA0 DUP7 DUP9 SUB SLT ISZERO PUSH2 0x19C6 JUMPI PUSH1 0x0 DUP1 REVERT JUMPDEST PUSH2 0x19CF DUP7 PUSH2 0x137A JUMP JUMPDEST SWAP5 POP PUSH2 0x19DD PUSH1 0x20 DUP8 ADD PUSH2 0x137A JUMP JUMPDEST SWAP4 POP PUSH1 0x40 DUP7 ADD CALLDATALOAD SWAP3 POP PUSH1 0x60 DUP7 ADD CALLDATALOAD SWAP2 POP PUSH1 0x80 DUP7 ADD CALLDATALOAD PUSH8 0xFFFFFFFFFFFFFFFF DUP2 GT ISZERO PUSH2 0x1A07 JUMPI PUSH1 0x0 DUP1 REVERT JUMPDEST PUSH2 0x1750 DUP9 DUP3 DUP10 ADD PUSH2 0x15FA JUMP JUMPDEST PUSH1 0x0 DUP1 PUSH1 0x0 PUSH1 0x60 DUP5 DUP7 SUB SLT ISZERO PUSH2 0x1A28 JUMPI PUSH1 0x0 DUP1 REVERT JUMPDEST PUSH2 0x1A31 DUP5 PUSH2 0x137A JUMP JUMPDEST SWAP6 PUSH1 0x20 DUP6 ADD CALLDATALOAD SWAP6 POP PUSH1 0x40 SWAP1 SWAP5 ADD CALLDATALOAD SWAP4 SWAP3 POP POP POP JUMP JUMPDEST PUSH1 0x1 DUP2 DUP2 SHR SWAP1 DUP3 AND DUP1 PUSH2 0x1A5A JUMPI PUSH1 0x7F DUP3 AND SWAP2 POP JUMPDEST PUSH1 0x20 DUP3 LT DUP2 EQ ISZERO PUSH2 0x1A7B JUMPI PUSH4 0x4E487B71 PUSH1 0xE0 SHL PUSH1 0x0 MSTORE PUSH1 0x22 PUSH1 0x4 MSTORE PUSH1 0x24 PUSH1 0x0 REVERT JUMPDEST POP SWAP2 SWAP1 POP JUMP JUMPDEST PUSH4 0x4E487B71 PUSH1 0xE0 SHL PUSH1 0x0 MSTORE PUSH1 0x32 PUSH1 0x4 MSTORE PUSH1 0x24 PUSH1 0x0 REVERT JUMPDEST PUSH4 0x4E487B71 PUSH1 0xE0 SHL PUSH1 0x0 MSTORE PUSH1 0x11 PUSH1 0x4 MSTORE PUSH1 0x24 PUSH1 0x0 REVERT JUMPDEST PUSH1 0x0 PUSH1 0x0 NOT DUP3 EQ ISZERO PUSH2 0x1AC1 JUMPI PUSH2 0x1AC1 PUSH2 0x1A97 JUMP JUMPDEST POP PUSH1 0x1 ADD SWAP1 JUMP JUMPDEST PUSH1 0x20 DUP1 DUP3 MSTORE PUSH1 0x28 SWAP1 DUP3 ADD MSTORE PUSH32 0x455243313135353A2069647320616E6420616D6F756E7473206C656E67746820 PUSH1 0x40 DUP3 ADD MSTORE PUSH8 0xDAD2E6DAC2E8C6D PUSH1 0xC3 SHL PUSH1 0x60 DUP3 ADD MSTORE PUSH1 0x80 ADD SWAP1 JUMP JUMPDEST PUSH1 0x20 DUP1 DUP3 MSTORE PUSH1 0x25 SWAP1 DUP3 ADD MSTORE PUSH32 0x455243313135353A207472616E7366657220746F20746865207A65726F206164 PUSH1 0x40 DUP3 ADD MSTORE PUSH5 0x6472657373 PUSH1 0xD8 SHL PUSH1 0x60 DUP3 ADD MSTORE PUSH1 0x80 ADD SWAP1 JUMP JUMPDEST PUSH1 0x20 DUP1 DUP3 MSTORE PUSH1 0x2A SWAP1 DUP3 ADD MSTORE PUSH32 0x455243313135353A20696E73756666696369656E742062616C616E636520666F PUSH1 0x40 DUP3 ADD MSTORE PUSH10 0x39103A3930B739B332B9 PUSH1 0xB1 SHL PUSH1 0x60 DUP3 ADD MSTORE PUSH1 0x80 ADD SWAP1 JUMP JUMPDEST PUSH1 0x0 DUP3 NOT DUP3 GT ISZERO PUSH2 0x1BB2 JUMPI PUSH2 0x1BB2 PUSH2 0x1A97 JUMP JUMPDEST POP ADD SWAP1 JUMP JUMPDEST PUSH1 0x40 DUP2 MSTORE PUSH1 0x0 PUSH2 0x1BCA PUSH1 0x40 DUP4 ADD DUP6 PUSH2 0x1828 JUMP JUMPDEST DUP3 DUP2 SUB PUSH1 0x20 DUP5 ADD MSTORE PUSH2 0x1BDC DUP2 DUP6 PUSH2 0x1828 JUMP JUMPDEST SWAP6 SWAP5 POP POP POP POP POP JUMP JUMPDEST PUSH1 0x1 PUSH1 0x1 PUSH1 0xA0 SHL SUB DUP7 DUP2 AND DUP3 MSTORE DUP6 AND PUSH1 0x20 DUP3 ADD MSTORE PUSH1 0xA0 PUSH1 0x40 DUP3 ADD DUP2 SWAP1 MSTORE PUSH1 0x0 SWAP1 PUSH2 0x1C11 SWAP1 DUP4 ADD DUP7 PUSH2 0x1828 JUMP JUMPDEST DUP3 DUP2 SUB PUSH1 0x60 DUP5 ADD MSTORE PUSH2 0x1C23 DUP2 DUP7 PUSH2 0x1828 JUMP JUMPDEST SWAP1 POP DUP3 DUP2 SUB PUSH1 0x80 DUP5 ADD MSTORE PUSH2 0x1C37 DUP2 DUP6 PUSH2 0x1505 JUMP JUMPDEST SWAP9 SWAP8 POP POP POP POP POP POP POP POP JUMP JUMPDEST PUSH1 0x0 PUSH1 0x20 DUP3 DUP5 SUB SLT ISZERO PUSH2 0x1C55 JUMPI PUSH1 0x0 DUP1 REVERT JUMPDEST DUP2 MLOAD PUSH2 0x13F3 DUP2 PUSH2 0x13C0 JUMP JUMPDEST PUSH1 0x0 PUSH1 0x3 RETURNDATASIZE GT ISZERO PUSH2 0x1C79 JUMPI PUSH1 0x4 PUSH1 0x0 DUP1 RETURNDATACOPY POP PUSH1 0x0 MLOAD PUSH1 0xE0 SHR JUMPDEST SWAP1 JUMP JUMPDEST PUSH1 0x0 PUSH1 0x44 RETURNDATASIZE LT ISZERO PUSH2 0x1C8A JUMPI SWAP1 JUMP JUMPDEST PUSH1 0x40 MLOAD PUSH1 0x3 NOT RETURNDATASIZE DUP2 ADD PUSH1 0x4 DUP4 RETURNDATACOPY DUP2 MLOAD RETURNDATASIZE PUSH8 0xFFFFFFFFFFFFFFFF DUP2 PUSH1 0x24 DUP5 ADD GT DUP2 DUP5 GT OR ISZERO PUSH2 0x1CBA JUMPI POP POP POP POP POP SWAP1 JUMP JUMPDEST DUP3 DUP6 ADD SWAP2 POP DUP2 MLOAD DUP2 DUP2 GT ISZERO PUSH2 0x1CD2 JUMPI POP POP POP POP POP POP SWAP1 JUMP JUMPDEST DUP5 RETURNDATASIZE DUP8 ADD ADD PUSH1 0x20 DUP3 DUP6 ADD ADD GT ISZERO PUSH2 0x1CEC JUMPI POP POP POP POP POP POP SWAP1 JUMP JUMPDEST PUSH2 0x1CFB PUSH1 0x20 DUP3 DUP7 ADD ADD DUP8 PUSH2 0x1410 JUMP JUMPDEST POP SWAP1 SWAP6 SWAP5 POP POP POP POP POP JUMP JUMPDEST PUSH1 0x20 DUP1 DUP3 MSTORE PUSH1 0x28 SWAP1 DUP3 ADD MSTORE PUSH32 0x455243313135353A204552433131353552656365697665722072656A65637465 PUSH1 0x40 DUP3 ADD MSTORE PUSH8 0x6420746F6B656E73 PUSH1 0xC0 SHL PUSH1 0x60 DUP3 ADD MSTORE PUSH1 0x80 ADD SWAP1 JUMP JUMPDEST PUSH1 0x0 DUP3 DUP3 LT ISZERO PUSH2 0x1D60 JUMPI PUSH2 0x1D60 PUSH2 0x1A97 JUMP JUMPDEST POP SUB SWAP1 JUMP JUMPDEST PUSH1 0x1 PUSH1 0x1 PUSH1 0xA0 SHL SUB DUP7 DUP2 AND DUP3 MSTORE DUP6 AND PUSH1 0x20 DUP3 ADD MSTORE PUSH1 0x40 DUP2 ADD DUP5 SWAP1 MSTORE PUSH1 0x60 DUP2 ADD DUP4 SWAP1 MSTORE PUSH1 0xA0 PUSH1 0x80 DUP3 ADD DUP2 SWAP1 MSTORE PUSH1 0x0 SWAP1 PUSH2 0x1D9F SWAP1 DUP4 ADD DUP5 PUSH2 0x1505 JUMP JUMPDEST SWAP8 SWAP7 POP POP POP POP POP POP POP JUMP JUMPDEST PUSH1 0x20 DUP1 DUP3 MSTORE PUSH1 0x21 SWAP1 DUP3 ADD MSTORE PUSH32 0x455243313135353A206D696E7420746F20746865207A65726F20616464726573 PUSH1 0x40 DUP3 ADD MSTORE PUSH1 0x73 PUSH1 0xF8 SHL PUSH1 0x60 DUP3 ADD MSTORE PUSH1 0x80 ADD SWAP1 JUMP JUMPDEST PUSH1 0x20 DUP1 DUP3 MSTORE PUSH1 0x23 SWAP1 DUP3 ADD MSTORE PUSH32 0x455243313135353A206275726E2066726F6D20746865207A65726F2061646472 PUSH1 0x40 DUP3 ADD MSTORE PUSH3 0x657373 PUSH1 0xE8 SHL PUSH1 0x60 DUP3 ADD MSTORE PUSH1 0x80 ADD SWAP1 JUMP JUMPDEST PUSH1 0x20 DUP1 DUP3 MSTORE PUSH1 0x24 SWAP1 DUP3 ADD MSTORE PUSH32 0x455243313135353A206275726E20616D6F756E7420657863656564732062616C PUSH1 0x40 DUP3 ADD MSTORE PUSH4 0x616E6365 PUSH1 0xE0 SHL PUSH1 0x60 DUP3 ADD MSTORE PUSH1 0x80 ADD SWAP1 JUMP INVALID LOG2 PUSH5 0x6970667358 0x22 SLT KECCAK256 0xE9 CALLVALUE 0xCB 0xBB SWAP3 DUP9 SWAP12 DUP12 PUSH7 0x12348CDE099449 DUP7 MLOAD DIV 0xE1 DUP6 0xB4 DUP1 0xBB 0xBA 0xD6 0x5D LOG2 0x2B 0xFB PUSH18 0x9264736F6C634300080C0033000000000000 ",
  "sha1": "6b70cd0cc8caf9ab4e4efb22534c3d70916ca7ec",
  "source": "// SPDX-License-Identifier: MIT\n\npragma solidity ^0.8.0;\n\nimport \"./ERC1155Mock.sol\";\nimport \"../token/ERC1155/extensions/ERC1155Supply.sol\";\n\ncontract ERC1155SupplyMock is ERC1155Mock, ERC1155Supply {\n    constructor(string memory uri) ERC1155Mock(uri) {}\n\n    function _mint(\n        address account,\n        uint256 id,\n        uint256 amount,\n        bytes memory data\n    ) internal virtual override(ERC1155, ERC1155Supply) {\n        super._mint(account, id, amount, data);\n    }\n\n    function _mintBatch(\n        address to,\n        uint256[] memory ids,\n        uint256[] memory amounts,\n        bytes memory data\n    ) internal virtual override(ERC1155, ERC1155Supply) {\n        super._mintBatch(to, ids, amounts, data);\n    }\n\n    function _burn(\n        address account,\n        uint256 id,\n        uint256 amount\n    ) internal virtual override(ERC1155, ERC1155Supply) {\n        super._burn(account, id, amount);\n    }\n\n    function _burnBatch(\n        address account,\n        uint256[] memory ids,\n        uint256[] memory amounts\n    ) internal virtual override(ERC1155, ERC1155Supply) {\n        super._burnBatch(account, ids, amounts);\n    }\n}\n",
  "sourcePath": "contracts/openzeppelin/contracts/mocks/ERC1155SupplyMock.sol",
  "type": "contract"
}