{
  "abi": [
    {
      "inputs": [
        {
          "internalType": "address payable",
          "name": "ethtoken",
          "type": "address"
        },
        {
          "internalType": "address payable",
          "name": "usdtoken",
          "type": "address"
        }
      ],
      "stateMutability": "nonpayable",
      "type": "constructor"
    },
    {
      "inputs": [
        {
          "internalType": "address",
          "name": "account",
          "type": "address"
        },
        {
          "internalType": "uint256",
          "name": "amount",
          "type": "uint256"
        }
      ],
      "name": "lendeth",
      "outputs": [],
      "stateMutability": "nonpayable",
      "type": "function"
    },
    {
      "inputs": [
        {
          "internalType": "address",
          "name": "account",
          "type": "address"
        },
        {
          "internalType": "uint256",
          "name": "amount",
          "type": "uint256"
        }
      ],
      "name": "lendusd",
      "outputs": [],
      "stateMutability": "nonpayable",
      "type": "function"
    },
    {
      "stateMutability": "payable",
      "type": "receive"
    }
  ],
  "bytecode": "608060405234801561001057600080fd5b5060405161035338038061035383398101604081905261002f9161013d565b600080546001600160a01b038481166001600160a01b0319928316811790935560018054918516919092161790556040516340c10f1960e01b8152306004820152620186a060248201526340c10f1990604401600060405180830381600087803b15801561009c57600080fd5b505af11580156100b0573d6000803e3d6000fd5b50506001546040516340c10f1960e01b8152306004820152620186a060248201526001600160a01b0390911692506340c10f199150604401600060405180830381600087803b15801561010257600080fd5b505af1158015610116573d6000803e3d6000fd5b505050505050610170565b80516001600160a01b038116811461013857600080fd5b919050565b6000806040838503121561015057600080fd5b61015983610121565b915061016760208401610121565b90509250929050565b6101d48061017f6000396000f3fe60806040526004361061002d5760003560e01c8063312c089114610039578063caa56c851461005b57600080fd5b3661003457005b600080fd5b34801561004557600080fd5b5061005961005436600461013d565b61007b565b005b34801561006757600080fd5b5061005961007636600461013d565b6100fe565b6001546040516323b872dd60e01b81523060048201526001600160a01b03848116602483015260448201849052909116906323b872dd906064015b6020604051808303816000875af11580156100d5573d6000803e3d6000fd5b505050506040513d601f19601f820116820180604052508101906100f99190610175565b505050565b6000546040516323b872dd60e01b81523060048201526001600160a01b03848116602483015260448201849052909116906323b872dd906064016100b6565b6000806040838503121561015057600080fd5b82356001600160a01b038116811461016757600080fd5b946020939093013593505050565b60006020828403121561018757600080fd5b8151801515811461019757600080fd5b939250505056fea26469706673582212209105477c9e1bdd380fd7ba239090d10c0756fb8fd9c459e7f3161f95fb91144a64736f6c634300080c0033",
  "bytecodeSha1": "388ded318dc36b698ab73efb1cb3e82742a46d50",
  "compiler": {
    "evm_version": "istanbul",
    "optimizer": {
      "enabled": true,
      "runs": 200
    },
    "version": "0.8.12+commit.f00d7308"
  },
  "contractName": "Loaner",
  "language": "Solidity",
  "natspec": {
    "kind": "dev",
    "methods": {},
    "version": 1
  },
  "opcodes": "PUSH1 0x80 PUSH1 0x40 MSTORE PUSH1 0x4 CALLDATASIZE LT PUSH2 0x2D JUMPI PUSH1 0x0 CALLDATALOAD PUSH1 0xE0 SHR DUP1 PUSH4 0x312C0891 EQ PUSH2 0x39 JUMPI DUP1 PUSH4 0xCAA56C85 EQ PUSH2 0x5B JUMPI PUSH1 0x0 DUP1 REVERT JUMPDEST CALLDATASIZE PUSH2 0x34 JUMPI STOP JUMPDEST PUSH1 0x0 DUP1 REVERT JUMPDEST CALLVALUE DUP1 ISZERO PUSH2 0x45 JUMPI PUSH1 0x0 DUP1 REVERT JUMPDEST POP PUSH2 0x59 PUSH2 0x54 CALLDATASIZE PUSH1 0x4 PUSH2 0x13D JUMP JUMPDEST PUSH2 0x7B JUMP JUMPDEST STOP JUMPDEST CALLVALUE DUP1 ISZERO PUSH2 0x67 JUMPI PUSH1 0x0 DUP1 REVERT JUMPDEST POP PUSH2 0x59 PUSH2 0x76 CALLDATASIZE PUSH1 0x4 PUSH2 0x13D JUMP JUMPDEST PUSH2 0xFE JUMP JUMPDEST PUSH1 0x1 SLOAD PUSH1 0x40 MLOAD PUSH4 0x23B872DD PUSH1 0xE0 SHL DUP2 MSTORE ADDRESS PUSH1 0x4 DUP3 ADD MSTORE PUSH1 0x1 PUSH1 0x1 PUSH1 0xA0 SHL SUB DUP5 DUP2 AND PUSH1 0x24 DUP4 ADD MSTORE PUSH1 0x44 DUP3 ADD DUP5 SWAP1 MSTORE SWAP1 SWAP2 AND SWAP1 PUSH4 0x23B872DD SWAP1 PUSH1 0x64 ADD JUMPDEST PUSH1 0x20 PUSH1 0x40 MLOAD DUP1 DUP4 SUB DUP2 PUSH1 0x0 DUP8 GAS CALL ISZERO DUP1 ISZERO PUSH2 0xD5 JUMPI RETURNDATASIZE PUSH1 0x0 DUP1 RETURNDATACOPY RETURNDATASIZE PUSH1 0x0 REVERT JUMPDEST POP POP POP POP PUSH1 0x40 MLOAD RETURNDATASIZE PUSH1 0x1F NOT PUSH1 0x1F DUP3 ADD AND DUP3 ADD DUP1 PUSH1 0x40 MSTORE POP DUP2 ADD SWAP1 PUSH2 0xF9 SWAP2 SWAP1 PUSH2 0x175 JUMP JUMPDEST POP POP POP JUMP JUMPDEST PUSH1 0x0 SLOAD PUSH1 0x40 MLOAD PUSH4 0x23B872DD PUSH1 0xE0 SHL DUP2 MSTORE ADDRESS PUSH1 0x4 DUP3 ADD MSTORE PUSH1 0x1 PUSH1 0x1 PUSH1 0xA0 SHL SUB DUP5 DUP2 AND PUSH1 0x24 DUP4 ADD MSTORE PUSH1 0x44 DUP3 ADD DUP5 SWAP1 MSTORE SWAP1 SWAP2 AND SWAP1 PUSH4 0x23B872DD SWAP1 PUSH1 0x64 ADD PUSH2 0xB6 JUMP JUMPDEST PUSH1 0x0 DUP1 PUSH1 0x40 DUP4 DUP6 SUB SLT ISZERO PUSH2 0x150 JUMPI PUSH1 0x0 DUP1 REVERT JUMPDEST DUP3 CALLDATALOAD PUSH1 0x1 PUSH1 0x1 PUSH1 0xA0 SHL SUB DUP2 AND DUP2 EQ PUSH2 0x167 JUMPI PUSH1 0x0 DUP1 REVERT JUMPDEST SWAP5 PUSH1 0x20 SWAP4 SWAP1 SWAP4 ADD CALLDATALOAD SWAP4 POP POP POP JUMP JUMPDEST PUSH1 0x0 PUSH1 0x20 DUP3 DUP5 SUB SLT ISZERO PUSH2 0x187 JUMPI PUSH1 0x0 DUP1 REVERT JUMPDEST DUP2 MLOAD DUP1 ISZERO ISZERO DUP2 EQ PUSH2 0x197 JUMPI PUSH1 0x0 DUP1 REVERT JUMPDEST SWAP4 SWAP3 POP POP POP JUMP INVALID LOG2 PUSH5 0x6970667358 0x22 SLT KECCAK256 SWAP2 SDIV SELFBALANCE PUSH29 0x9E1BDD380FD7BA239090D10C0756FB8FD9C459E7F3161F95FB91144A64 PUSH20 0x6F6C634300080C00330000000000000000000000 ",
  "sha1": "7e604caf01533f0ab5207ef49988d6ebf07f6f8f",
  "source": "pragma solidity ^0.8.0;\n\nimport \"./openzeppelin/contracts/token/ERC20/IERC20.sol\";\nimport \"./openzeppelin/contracts/token/ERC20/ERC20.sol\";\nimport \"./eth.sol\";\nimport \"./usd.sol\";\n\ncontract Loaner{\netherToken eth;\nusdToken usd;\n\nconstructor(address payable ethtoken,address payable usdtoken) public { \n    eth=etherToken(ethtoken);\n    usd=usdToken(usdtoken);\n    eth.mint(address(this),100000);\n    usd.mint(address(this),100000);\n}\n\n\nfunction lendeth(address account, uint256 amount) external {\n        eth.transferFrom(address(this),account,amount);\n    }\n\nfunction lendusd(address account, uint256 amount) external {\n        usd.transferFrom(address(this),account,amount);\n    }\n\nreceive() external payable {}\n}",
  "sourcePath": "contracts/lender.sol",
  "type": "contract"
}