{
  "abi": [
    {
      "inputs": [
        {
          "internalType": "int256",
          "name": "a",
          "type": "int256"
        },
        {
          "internalType": "int256",
          "name": "b",
          "type": "int256"
        }
      ],
      "name": "add",
      "outputs": [
        {
          "internalType": "int256",
          "name": "",
          "type": "int256"
        }
      ],
      "stateMutability": "pure",
      "type": "function"
    },
    {
      "inputs": [
        {
          "internalType": "int256",
          "name": "a",
          "type": "int256"
        },
        {
          "internalType": "int256",
          "name": "b",
          "type": "int256"
        }
      ],
      "name": "div",
      "outputs": [
        {
          "internalType": "int256",
          "name": "",
          "type": "int256"
        }
      ],
      "stateMutability": "pure",
      "type": "function"
    },
    {
      "inputs": [
        {
          "internalType": "int256",
          "name": "a",
          "type": "int256"
        },
        {
          "internalType": "int256",
          "name": "b",
          "type": "int256"
        }
      ],
      "name": "mul",
      "outputs": [
        {
          "internalType": "int256",
          "name": "",
          "type": "int256"
        }
      ],
      "stateMutability": "pure",
      "type": "function"
    },
    {
      "inputs": [
        {
          "internalType": "int256",
          "name": "a",
          "type": "int256"
        },
        {
          "internalType": "int256",
          "name": "b",
          "type": "int256"
        }
      ],
      "name": "sub",
      "outputs": [
        {
          "internalType": "int256",
          "name": "",
          "type": "int256"
        }
      ],
      "stateMutability": "pure",
      "type": "function"
    }
  ],
  "bytecode": "608060405234801561001057600080fd5b506102c5806100206000396000f3fe608060405234801561001057600080fd5b506004361061004c5760003560e01c80634350913814610051578063a5f3c23b14610076578063adefc37b14610089578063bbe93d911461009c575b600080fd5b61006461005f366004610116565b6100af565b60405190815260200160405180910390f35b610064610084366004610116565b6100c2565b610064610097366004610116565b6100ce565b6100646100aa366004610116565b6100da565b60006100bb83836100e6565b9392505050565b60006100bb83836100f2565b60006100bb83836100fe565b60006100bb838361010a565b60006100bb828461014e565b60006100bb828461018a565b60006100bb82846101cb565b60006100bb828461020a565b6000806040838503121561012957600080fd5b50508035926020909101359150565b634e487b7160e01b600052601160045260246000fd5b60008261016b57634e487b7160e01b600052601260045260246000fd5b600160ff1b82146000198414161561018557610185610138565b500590565b600080821280156001600160ff1b03849003851316156101ac576101ac610138565b600160ff1b83900384128116156101c5576101c5610138565b50500190565b60008083128015600160ff1b8501841216156101e9576101e9610138565b6001600160ff1b038401831381161561020457610204610138565b50500390565b60006001600160ff1b038184138284138082168684048611161561023057610230610138565b600160ff1b600087128281168783058912161561024f5761024f610138565b6000871292508782058712848416161561026b5761026b610138565b8785058712818416161561028157610281610138565b50505092909302939250505056fea26469706673582212206431eda0bb1933f4698b649ca420ca57cd99fcbaf326ba1def8bb1658042a1c264736f6c634300080c0033",
  "bytecodeSha1": "11a1a4d6c450aafe720a91263b8af5ac1ba0e051",
  "compiler": {
    "evm_version": "istanbul",
    "optimizer": {
      "enabled": true,
      "runs": 200
    },
    "version": "0.8.12+commit.f00d7308"
  },
  "contractName": "SignedSafeMathMock",
  "language": "Solidity",
  "natspec": {
    "kind": "dev",
    "methods": {},
    "version": 1
  },
  "opcodes": "PUSH1 0x80 PUSH1 0x40 MSTORE CALLVALUE DUP1 ISZERO PUSH2 0x10 JUMPI PUSH1 0x0 DUP1 REVERT JUMPDEST POP PUSH1 0x4 CALLDATASIZE LT PUSH2 0x4C JUMPI PUSH1 0x0 CALLDATALOAD PUSH1 0xE0 SHR DUP1 PUSH4 0x43509138 EQ PUSH2 0x51 JUMPI DUP1 PUSH4 0xA5F3C23B EQ PUSH2 0x76 JUMPI DUP1 PUSH4 0xADEFC37B EQ PUSH2 0x89 JUMPI DUP1 PUSH4 0xBBE93D91 EQ PUSH2 0x9C JUMPI JUMPDEST PUSH1 0x0 DUP1 REVERT JUMPDEST PUSH2 0x64 PUSH2 0x5F CALLDATASIZE PUSH1 0x4 PUSH2 0x116 JUMP JUMPDEST PUSH2 0xAF JUMP JUMPDEST PUSH1 0x40 MLOAD SWAP1 DUP2 MSTORE PUSH1 0x20 ADD PUSH1 0x40 MLOAD DUP1 SWAP2 SUB SWAP1 RETURN JUMPDEST PUSH2 0x64 PUSH2 0x84 CALLDATASIZE PUSH1 0x4 PUSH2 0x116 JUMP JUMPDEST PUSH2 0xC2 JUMP JUMPDEST PUSH2 0x64 PUSH2 0x97 CALLDATASIZE PUSH1 0x4 PUSH2 0x116 JUMP JUMPDEST PUSH2 0xCE JUMP JUMPDEST PUSH2 0x64 PUSH2 0xAA CALLDATASIZE PUSH1 0x4 PUSH2 0x116 JUMP JUMPDEST PUSH2 0xDA JUMP JUMPDEST PUSH1 0x0 PUSH2 0xBB DUP4 DUP4 PUSH2 0xE6 JUMP JUMPDEST SWAP4 SWAP3 POP POP POP JUMP JUMPDEST PUSH1 0x0 PUSH2 0xBB DUP4 DUP4 PUSH2 0xF2 JUMP JUMPDEST PUSH1 0x0 PUSH2 0xBB DUP4 DUP4 PUSH2 0xFE JUMP JUMPDEST PUSH1 0x0 PUSH2 0xBB DUP4 DUP4 PUSH2 0x10A JUMP JUMPDEST PUSH1 0x0 PUSH2 0xBB DUP3 DUP5 PUSH2 0x14E JUMP JUMPDEST PUSH1 0x0 PUSH2 0xBB DUP3 DUP5 PUSH2 0x18A JUMP JUMPDEST PUSH1 0x0 PUSH2 0xBB DUP3 DUP5 PUSH2 0x1CB JUMP JUMPDEST PUSH1 0x0 PUSH2 0xBB DUP3 DUP5 PUSH2 0x20A JUMP JUMPDEST PUSH1 0x0 DUP1 PUSH1 0x40 DUP4 DUP6 SUB SLT ISZERO PUSH2 0x129 JUMPI PUSH1 0x0 DUP1 REVERT JUMPDEST POP POP DUP1 CALLDATALOAD SWAP3 PUSH1 0x20 SWAP1 SWAP2 ADD CALLDATALOAD SWAP2 POP JUMP JUMPDEST PUSH4 0x4E487B71 PUSH1 0xE0 SHL PUSH1 0x0 MSTORE PUSH1 0x11 PUSH1 0x4 MSTORE PUSH1 0x24 PUSH1 0x0 REVERT JUMPDEST PUSH1 0x0 DUP3 PUSH2 0x16B JUMPI PUSH4 0x4E487B71 PUSH1 0xE0 SHL PUSH1 0x0 MSTORE PUSH1 0x12 PUSH1 0x4 MSTORE PUSH1 0x24 PUSH1 0x0 REVERT JUMPDEST PUSH1 0x1 PUSH1 0xFF SHL DUP3 EQ PUSH1 0x0 NOT DUP5 EQ AND ISZERO PUSH2 0x185 JUMPI PUSH2 0x185 PUSH2 0x138 JUMP JUMPDEST POP SDIV SWAP1 JUMP JUMPDEST PUSH1 0x0 DUP1 DUP3 SLT DUP1 ISZERO PUSH1 0x1 PUSH1 0x1 PUSH1 0xFF SHL SUB DUP5 SWAP1 SUB DUP6 SGT AND ISZERO PUSH2 0x1AC JUMPI PUSH2 0x1AC PUSH2 0x138 JUMP JUMPDEST PUSH1 0x1 PUSH1 0xFF SHL DUP4 SWAP1 SUB DUP5 SLT DUP2 AND ISZERO PUSH2 0x1C5 JUMPI PUSH2 0x1C5 PUSH2 0x138 JUMP JUMPDEST POP POP ADD SWAP1 JUMP JUMPDEST PUSH1 0x0 DUP1 DUP4 SLT DUP1 ISZERO PUSH1 0x1 PUSH1 0xFF SHL DUP6 ADD DUP5 SLT AND ISZERO PUSH2 0x1E9 JUMPI PUSH2 0x1E9 PUSH2 0x138 JUMP JUMPDEST PUSH1 0x1 PUSH1 0x1 PUSH1 0xFF SHL SUB DUP5 ADD DUP4 SGT DUP2 AND ISZERO PUSH2 0x204 JUMPI PUSH2 0x204 PUSH2 0x138 JUMP JUMPDEST POP POP SUB SWAP1 JUMP JUMPDEST PUSH1 0x0 PUSH1 0x1 PUSH1 0x1 PUSH1 0xFF SHL SUB DUP2 DUP5 SGT DUP3 DUP5 SGT DUP1 DUP3 AND DUP7 DUP5 DIV DUP7 GT AND ISZERO PUSH2 0x230 JUMPI PUSH2 0x230 PUSH2 0x138 JUMP JUMPDEST PUSH1 0x1 PUSH1 0xFF SHL PUSH1 0x0 DUP8 SLT DUP3 DUP2 AND DUP8 DUP4 SDIV DUP10 SLT AND ISZERO PUSH2 0x24F JUMPI PUSH2 0x24F PUSH2 0x138 JUMP JUMPDEST PUSH1 0x0 DUP8 SLT SWAP3 POP DUP8 DUP3 SDIV DUP8 SLT DUP5 DUP5 AND AND ISZERO PUSH2 0x26B JUMPI PUSH2 0x26B PUSH2 0x138 JUMP JUMPDEST DUP8 DUP6 SDIV DUP8 SLT DUP2 DUP5 AND AND ISZERO PUSH2 0x281 JUMPI PUSH2 0x281 PUSH2 0x138 JUMP JUMPDEST POP POP POP SWAP3 SWAP1 SWAP4 MUL SWAP4 SWAP3 POP POP POP JUMP INVALID LOG2 PUSH5 0x6970667358 0x22 SLT KECCAK256 PUSH5 0x31EDA0BB19 CALLER DELEGATECALL PUSH10 0x8B649CA420CA57CD99FC 0xBA RETURN 0x26 0xBA SAR 0xEF DUP12 0xB1 PUSH6 0x8042A1C26473 PUSH16 0x6C634300080C00330000000000000000 ",
  "sha1": "3a20d6313b2ca73add13fe1d8d3516b80b318868",
  "source": "// SPDX-License-Identifier: MIT\n\npragma solidity ^0.8.0;\n\nimport \"../utils/math/SignedSafeMath.sol\";\n\ncontract SignedSafeMathMock {\n    function mul(int256 a, int256 b) public pure returns (int256) {\n        return SignedSafeMath.mul(a, b);\n    }\n\n    function div(int256 a, int256 b) public pure returns (int256) {\n        return SignedSafeMath.div(a, b);\n    }\n\n    function sub(int256 a, int256 b) public pure returns (int256) {\n        return SignedSafeMath.sub(a, b);\n    }\n\n    function add(int256 a, int256 b) public pure returns (int256) {\n        return SignedSafeMath.add(a, b);\n    }\n}\n",
  "sourcePath": "contracts/openzeppelin/contracts/mocks/SignedSafeMathMock.sol",
  "type": "contract"
}