{
  "abi": [
    {
      "anonymous": false,
      "inputs": [
        {
          "indexed": false,
          "internalType": "address",
          "name": "previousAdmin",
          "type": "address"
        },
        {
          "indexed": false,
          "internalType": "address",
          "name": "newAdmin",
          "type": "address"
        }
      ],
      "name": "AdminChanged",
      "type": "event"
    },
    {
      "anonymous": false,
      "inputs": [
        {
          "indexed": true,
          "internalType": "address",
          "name": "beacon",
          "type": "address"
        }
      ],
      "name": "BeaconUpgraded",
      "type": "event"
    },
    {
      "anonymous": false,
      "inputs": [
        {
          "indexed": true,
          "internalType": "address",
          "name": "implementation",
          "type": "address"
        }
      ],
      "name": "Upgraded",
      "type": "event"
    },
    {
      "inputs": [],
      "name": "current",
      "outputs": [
        {
          "internalType": "uint256",
          "name": "",
          "type": "uint256"
        }
      ],
      "stateMutability": "view",
      "type": "function"
    },
    {
      "inputs": [],
      "name": "decrement",
      "outputs": [],
      "stateMutability": "nonpayable",
      "type": "function"
    },
    {
      "inputs": [],
      "name": "increment",
      "outputs": [],
      "stateMutability": "nonpayable",
      "type": "function"
    },
    {
      "inputs": [],
      "name": "reset",
      "outputs": [],
      "stateMutability": "nonpayable",
      "type": "function"
    },
    {
      "inputs": [
        {
          "internalType": "address",
          "name": "",
          "type": "address"
        }
      ],
      "name": "upgradeTo",
      "outputs": [],
      "stateMutability": "nonpayable",
      "type": "function"
    },
    {
      "inputs": [
        {
          "internalType": "address",
          "name": "",
          "type": "address"
        },
        {
          "internalType": "bytes",
          "name": "",
          "type": "bytes"
        }
      ],
      "name": "upgradeToAndCall",
      "outputs": [],
      "stateMutability": "payable",
      "type": "function"
    }
  ],
  "bytecode": "608060405234801561001057600080fd5b506102b7806100206000396000f3fe6080604052600436106100555760003560e01c80632baeceb71461005a5780633659cfe6146100715780634f1ef2861461008f5780639fa6a6e3146100a1578063d09de08a146100c3578063d826f88f146100d8575b600080fd5b34801561006657600080fd5b5061006f6100ed565b005b34801561007d57600080fd5b5061006f61008c366004610187565b50565b61006f61009d3660046101bf565b5050565b3480156100ad57600080fd5b5060005460405190815260200160405180910390f35b3480156100cf57600080fd5b5061006f6100f9565b3480156100e457600080fd5b5061006f610107565b6100f76000610110565b565b6100f7600080546001019055565b6100f760008055565b8054806101635760405162461bcd60e51b815260206004820152601b60248201527f436f756e7465723a2064656372656d656e74206f766572666c6f770000000000604482015260640160405180910390fd5b600019019055565b80356001600160a01b038116811461018257600080fd5b919050565b60006020828403121561019957600080fd5b6101a28261016b565b9392505050565b634e487b7160e01b600052604160045260246000fd5b600080604083850312156101d257600080fd5b6101db8361016b565b9150602083013567ffffffffffffffff808211156101f857600080fd5b818501915085601f83011261020c57600080fd5b81358181111561021e5761021e6101a9565b604051601f8201601f19908116603f01168101908382118183101715610246576102466101a9565b8160405282815288602084870101111561025f57600080fd5b826020860160208301376000602084830101528095505050505050925092905056fea2646970667358221220726f68d0eec0c8052b6609aef6d3086f21bfd43bf55e50b2dd445c0e417f005a64736f6c634300080c0033",
  "bytecodeSha1": "b734ee91db54996473ffc6488b76527b6b1da720",
  "compiler": {
    "evm_version": "istanbul",
    "optimizer": {
      "enabled": true,
      "runs": 200
    },
    "version": "0.8.12+commit.f00d7308"
  },
  "contractName": "UUPSUpgradeableBrokenMock",
  "language": "Solidity",
  "natspec": {
    "kind": "dev",
    "methods": {},
    "version": 1
  },
  "opcodes": "PUSH1 0x80 PUSH1 0x40 MSTORE PUSH1 0x4 CALLDATASIZE LT PUSH2 0x55 JUMPI PUSH1 0x0 CALLDATALOAD PUSH1 0xE0 SHR DUP1 PUSH4 0x2BAECEB7 EQ PUSH2 0x5A JUMPI DUP1 PUSH4 0x3659CFE6 EQ PUSH2 0x71 JUMPI DUP1 PUSH4 0x4F1EF286 EQ PUSH2 0x8F JUMPI DUP1 PUSH4 0x9FA6A6E3 EQ PUSH2 0xA1 JUMPI DUP1 PUSH4 0xD09DE08A EQ PUSH2 0xC3 JUMPI DUP1 PUSH4 0xD826F88F EQ PUSH2 0xD8 JUMPI JUMPDEST PUSH1 0x0 DUP1 REVERT JUMPDEST CALLVALUE DUP1 ISZERO PUSH2 0x66 JUMPI PUSH1 0x0 DUP1 REVERT JUMPDEST POP PUSH2 0x6F PUSH2 0xED JUMP JUMPDEST STOP JUMPDEST CALLVALUE DUP1 ISZERO PUSH2 0x7D JUMPI PUSH1 0x0 DUP1 REVERT JUMPDEST POP PUSH2 0x6F PUSH2 0x8C CALLDATASIZE PUSH1 0x4 PUSH2 0x187 JUMP JUMPDEST POP JUMP JUMPDEST PUSH2 0x6F PUSH2 0x9D CALLDATASIZE PUSH1 0x4 PUSH2 0x1BF JUMP JUMPDEST POP POP JUMP JUMPDEST CALLVALUE DUP1 ISZERO PUSH2 0xAD JUMPI PUSH1 0x0 DUP1 REVERT JUMPDEST POP PUSH1 0x0 SLOAD PUSH1 0x40 MLOAD SWAP1 DUP2 MSTORE PUSH1 0x20 ADD PUSH1 0x40 MLOAD DUP1 SWAP2 SUB SWAP1 RETURN JUMPDEST CALLVALUE DUP1 ISZERO PUSH2 0xCF JUMPI PUSH1 0x0 DUP1 REVERT JUMPDEST POP PUSH2 0x6F PUSH2 0xF9 JUMP JUMPDEST CALLVALUE DUP1 ISZERO PUSH2 0xE4 JUMPI PUSH1 0x0 DUP1 REVERT JUMPDEST POP PUSH2 0x6F PUSH2 0x107 JUMP JUMPDEST PUSH2 0xF7 PUSH1 0x0 PUSH2 0x110 JUMP JUMPDEST JUMP JUMPDEST PUSH2 0xF7 PUSH1 0x0 DUP1 SLOAD PUSH1 0x1 ADD SWAP1 SSTORE JUMP JUMPDEST PUSH2 0xF7 PUSH1 0x0 DUP1 SSTORE JUMP JUMPDEST DUP1 SLOAD DUP1 PUSH2 0x163 JUMPI PUSH1 0x40 MLOAD PUSH3 0x461BCD PUSH1 0xE5 SHL DUP2 MSTORE PUSH1 0x20 PUSH1 0x4 DUP3 ADD MSTORE PUSH1 0x1B PUSH1 0x24 DUP3 ADD MSTORE PUSH32 0x436F756E7465723A2064656372656D656E74206F766572666C6F770000000000 PUSH1 0x44 DUP3 ADD MSTORE PUSH1 0x64 ADD PUSH1 0x40 MLOAD DUP1 SWAP2 SUB SWAP1 REVERT JUMPDEST PUSH1 0x0 NOT ADD SWAP1 SSTORE JUMP JUMPDEST DUP1 CALLDATALOAD PUSH1 0x1 PUSH1 0x1 PUSH1 0xA0 SHL SUB DUP2 AND DUP2 EQ PUSH2 0x182 JUMPI PUSH1 0x0 DUP1 REVERT JUMPDEST SWAP2 SWAP1 POP JUMP JUMPDEST PUSH1 0x0 PUSH1 0x20 DUP3 DUP5 SUB SLT ISZERO PUSH2 0x199 JUMPI PUSH1 0x0 DUP1 REVERT JUMPDEST PUSH2 0x1A2 DUP3 PUSH2 0x16B JUMP JUMPDEST SWAP4 SWAP3 POP POP POP JUMP JUMPDEST PUSH4 0x4E487B71 PUSH1 0xE0 SHL PUSH1 0x0 MSTORE PUSH1 0x41 PUSH1 0x4 MSTORE PUSH1 0x24 PUSH1 0x0 REVERT JUMPDEST PUSH1 0x0 DUP1 PUSH1 0x40 DUP4 DUP6 SUB SLT ISZERO PUSH2 0x1D2 JUMPI PUSH1 0x0 DUP1 REVERT JUMPDEST PUSH2 0x1DB DUP4 PUSH2 0x16B JUMP JUMPDEST SWAP2 POP PUSH1 0x20 DUP4 ADD CALLDATALOAD PUSH8 0xFFFFFFFFFFFFFFFF DUP1 DUP3 GT ISZERO PUSH2 0x1F8 JUMPI PUSH1 0x0 DUP1 REVERT JUMPDEST DUP2 DUP6 ADD SWAP2 POP DUP6 PUSH1 0x1F DUP4 ADD SLT PUSH2 0x20C JUMPI PUSH1 0x0 DUP1 REVERT JUMPDEST DUP2 CALLDATALOAD DUP2 DUP2 GT ISZERO PUSH2 0x21E JUMPI PUSH2 0x21E PUSH2 0x1A9 JUMP JUMPDEST PUSH1 0x40 MLOAD PUSH1 0x1F DUP3 ADD PUSH1 0x1F NOT SWAP1 DUP2 AND PUSH1 0x3F ADD AND DUP2 ADD SWAP1 DUP4 DUP3 GT DUP2 DUP4 LT OR ISZERO PUSH2 0x246 JUMPI PUSH2 0x246 PUSH2 0x1A9 JUMP JUMPDEST DUP2 PUSH1 0x40 MSTORE DUP3 DUP2 MSTORE DUP9 PUSH1 0x20 DUP5 DUP8 ADD ADD GT ISZERO PUSH2 0x25F JUMPI PUSH1 0x0 DUP1 REVERT JUMPDEST DUP3 PUSH1 0x20 DUP7 ADD PUSH1 0x20 DUP4 ADD CALLDATACOPY PUSH1 0x0 PUSH1 0x20 DUP5 DUP4 ADD ADD MSTORE DUP1 SWAP6 POP POP POP POP POP POP SWAP3 POP SWAP3 SWAP1 POP JUMP INVALID LOG2 PUSH5 0x6970667358 0x22 SLT KECCAK256 PUSH19 0x6F68D0EEC0C8052B6609AEF6D3086F21BFD43B CREATE2 0x5E POP 0xB2 0xDD DIFFICULTY 0x5C 0xE COINBASE PUSH32 0x5A64736F6C634300080C003300000000000000000000000000000000000000 ",
  "sha1": "c8a10b888a9c5a23274c596fd65f2208cf3de150",
  "source": "// SPDX-License-Identifier: MIT\n\npragma solidity ^0.8.0;\n\nimport \"../CountersImpl.sol\";\nimport \"../../proxy/utils/UUPSUpgradeable.sol\";\n\ncontract UUPSUpgradeableMock is CountersImpl, UUPSUpgradeable {\n    // Not having any checks in this function is dangerous! Do not do this outside tests!\n    function _authorizeUpgrade(address) internal virtual override {}\n}\n\ncontract UUPSUpgradeableUnsafeMock is UUPSUpgradeableMock {\n    function upgradeTo(address newImplementation) external virtual override {\n        ERC1967Upgrade._upgradeToAndCall(newImplementation, bytes(\"\"), false);\n    }\n\n    function upgradeToAndCall(address newImplementation, bytes memory data) external payable virtual override {\n        ERC1967Upgrade._upgradeToAndCall(newImplementation, data, false);\n    }\n}\n\ncontract UUPSUpgradeableBrokenMock is UUPSUpgradeableMock {\n    function upgradeTo(address) external virtual override {\n        // pass\n    }\n\n    function upgradeToAndCall(address, bytes memory) external payable virtual override {\n        // pass\n    }\n}\n",
  "sourcePath": "contracts/openzeppelin/contracts/mocks/UUPS/TestInProd.sol",
  "type": "contract"
}