{
  "abi": [
    {
      "inputs": [],
      "stateMutability": "nonpayable",
      "type": "constructor"
    },
    {
      "anonymous": false,
      "inputs": [
        {
          "indexed": true,
          "internalType": "bytes32",
          "name": "role",
          "type": "bytes32"
        },
        {
          "indexed": true,
          "internalType": "bytes32",
          "name": "previousAdminRole",
          "type": "bytes32"
        },
        {
          "indexed": true,
          "internalType": "bytes32",
          "name": "newAdminRole",
          "type": "bytes32"
        }
      ],
      "name": "RoleAdminChanged",
      "type": "event"
    },
    {
      "anonymous": false,
      "inputs": [
        {
          "indexed": true,
          "internalType": "bytes32",
          "name": "role",
          "type": "bytes32"
        },
        {
          "indexed": true,
          "internalType": "address",
          "name": "account",
          "type": "address"
        },
        {
          "indexed": true,
          "internalType": "address",
          "name": "sender",
          "type": "address"
        }
      ],
      "name": "RoleGranted",
      "type": "event"
    },
    {
      "anonymous": false,
      "inputs": [
        {
          "indexed": true,
          "internalType": "bytes32",
          "name": "role",
          "type": "bytes32"
        },
        {
          "indexed": true,
          "internalType": "address",
          "name": "account",
          "type": "address"
        },
        {
          "indexed": true,
          "internalType": "address",
          "name": "sender",
          "type": "address"
        }
      ],
      "name": "RoleRevoked",
      "type": "event"
    },
    {
      "inputs": [],
      "name": "DEFAULT_ADMIN_ROLE",
      "outputs": [
        {
          "internalType": "bytes32",
          "name": "",
          "type": "bytes32"
        }
      ],
      "stateMutability": "view",
      "type": "function"
    },
    {
      "inputs": [
        {
          "internalType": "bytes32",
          "name": "role",
          "type": "bytes32"
        }
      ],
      "name": "getRoleAdmin",
      "outputs": [
        {
          "internalType": "bytes32",
          "name": "",
          "type": "bytes32"
        }
      ],
      "stateMutability": "view",
      "type": "function"
    },
    {
      "inputs": [
        {
          "internalType": "bytes32",
          "name": "role",
          "type": "bytes32"
        },
        {
          "internalType": "uint256",
          "name": "index",
          "type": "uint256"
        }
      ],
      "name": "getRoleMember",
      "outputs": [
        {
          "internalType": "address",
          "name": "",
          "type": "address"
        }
      ],
      "stateMutability": "view",
      "type": "function"
    },
    {
      "inputs": [
        {
          "internalType": "bytes32",
          "name": "role",
          "type": "bytes32"
        }
      ],
      "name": "getRoleMemberCount",
      "outputs": [
        {
          "internalType": "uint256",
          "name": "",
          "type": "uint256"
        }
      ],
      "stateMutability": "view",
      "type": "function"
    },
    {
      "inputs": [
        {
          "internalType": "bytes32",
          "name": "role",
          "type": "bytes32"
        },
        {
          "internalType": "address",
          "name": "account",
          "type": "address"
        }
      ],
      "name": "grantRole",
      "outputs": [],
      "stateMutability": "nonpayable",
      "type": "function"
    },
    {
      "inputs": [
        {
          "internalType": "bytes32",
          "name": "role",
          "type": "bytes32"
        },
        {
          "internalType": "address",
          "name": "account",
          "type": "address"
        }
      ],
      "name": "hasRole",
      "outputs": [
        {
          "internalType": "bool",
          "name": "",
          "type": "bool"
        }
      ],
      "stateMutability": "view",
      "type": "function"
    },
    {
      "inputs": [
        {
          "internalType": "bytes32",
          "name": "role",
          "type": "bytes32"
        },
        {
          "internalType": "address",
          "name": "account",
          "type": "address"
        }
      ],
      "name": "renounceRole",
      "outputs": [],
      "stateMutability": "nonpayable",
      "type": "function"
    },
    {
      "inputs": [
        {
          "internalType": "bytes32",
          "name": "role",
          "type": "bytes32"
        },
        {
          "internalType": "address",
          "name": "account",
          "type": "address"
        }
      ],
      "name": "revokeRole",
      "outputs": [],
      "stateMutability": "nonpayable",
      "type": "function"
    },
    {
      "inputs": [
        {
          "internalType": "bytes32",
          "name": "roleId",
          "type": "bytes32"
        }
      ],
      "name": "senderProtected",
      "outputs": [],
      "stateMutability": "nonpayable",
      "type": "function"
    },
    {
      "inputs": [
        {
          "internalType": "bytes32",
          "name": "roleId",
          "type": "bytes32"
        },
        {
          "internalType": "bytes32",
          "name": "adminRoleId",
          "type": "bytes32"
        }
      ],
      "name": "setRoleAdmin",
      "outputs": [],
      "stateMutability": "nonpayable",
      "type": "function"
    },
    {
      "inputs": [
        {
          "internalType": "bytes4",
          "name": "interfaceId",
          "type": "bytes4"
        }
      ],
      "name": "supportsInterface",
      "outputs": [
        {
          "internalType": "bool",
          "name": "",
          "type": "bool"
        }
      ],
      "stateMutability": "view",
      "type": "function"
    }
  ],
  "bytecode": "608060405234801561001057600080fd5b5061001c600033610021565b610177565b610035828261005e60201b6102b71760201c565b60008281526001602090815260409091206100599183906102c161006c821b17901c565b505050565b610068828261008a565b5050565b6000610081836001600160a01b038416610128565b90505b92915050565b6000828152602081815260408083206001600160a01b038516845290915290205460ff16610068576000828152602081815260408083206001600160a01b03851684529091529020805460ff191660011790556100e43390565b6001600160a01b0316816001600160a01b0316837f2f8788117e7eff1d82e926ec794901d17c78024a50270940304540a733656f0d60405160405180910390a45050565b600081815260018301602052604081205461016f57508154600181810184556000848152602080822090930184905584548482528286019093526040902091909155610084565b506000610084565b610b16806101866000396000f3fe608060405234801561001057600080fd5b50600436106100a95760003560e01c80634b9304a4116100715780634b9304a4146101425780639010d07c1461015557806391d1485414610180578063a217fddf14610193578063ca15c8731461019b578063d547741f146101ae57600080fd5b806301ffc9a7146100ae5780631e4e0091146100d6578063248a9ca3146100eb5780632f2ff15d1461011c57806336568abe1461012f575b600080fd5b6100c16100bc3660046108aa565b6101c1565b60405190151581526020015b60405180910390f35b6100e96100e43660046108d4565b6101ec565b005b61010e6100f93660046108f6565b60009081526020819052604090206001015490565b6040519081526020016100cd565b6100e961012a36600461090f565b6101fa565b6100e961013d36600461090f565b610221565b6100e96101503660046108f6565b610243565b6101686101633660046108d4565b61024e565b6040516001600160a01b0390911681526020016100cd565b6100c161018e36600461090f565b61026d565b61010e600081565b61010e6101a93660046108f6565b610296565b6100e96101bc36600461090f565b6102ad565b60006001600160e01b03198216635a05180f60e01b14806101e657506101e6826102d6565b92915050565b6101f6828261030b565b5050565b610204828261035f565b600082815260016020526040902061021c90826102c1565b505050565b61022b8282610385565b600082815260016020526040902061021c9082610404565b806101f68133610419565b6000828152600160205260408120610266908361047d565b9392505050565b6000918252602082815260408084206001600160a01b0393909316845291905290205460ff1690565b60008181526001602052604081206101e690610489565b61022b8282610493565b6101f682826104b9565b6000610266836001600160a01b03841661053d565b60006001600160e01b03198216637965db0b60e01b14806101e657506301ffc9a760e01b6001600160e01b03198316146101e6565b600082815260208190526040902060010154819060405184907fbd79b86ffe0ab8e8776151514217cd7cacd52c909f66475c3af44e129f0b00ff90600090a460009182526020829052604090912060010155565b60008281526020819052604090206001015461037b8133610419565b61021c83836104b9565b6001600160a01b03811633146103fa5760405162461bcd60e51b815260206004820152602f60248201527f416363657373436f6e74726f6c3a2063616e206f6e6c792072656e6f756e636560448201526e103937b632b9903337b91039b2b63360891b60648201526084015b60405180910390fd5b6101f6828261058c565b6000610266836001600160a01b0384166105f1565b610423828261026d565b6101f65761043b816001600160a01b031660146106e4565b6104468360206106e4565b60405160200161045792919061097b565b60408051601f198184030181529082905262461bcd60e51b82526103f1916004016109f0565b60006102668383610880565b60006101e6825490565b6000828152602081905260409020600101546104af8133610419565b61021c838361058c565b6104c3828261026d565b6101f6576000828152602081815260408083206001600160a01b03851684529091529020805460ff191660011790556104f93390565b6001600160a01b0316816001600160a01b0316837f2f8788117e7eff1d82e926ec794901d17c78024a50270940304540a733656f0d60405160405180910390a45050565b6000818152600183016020526040812054610584575081546001818101845560008481526020808220909301849055845484825282860190935260409020919091556101e6565b5060006101e6565b610596828261026d565b156101f6576000828152602081815260408083206001600160a01b0385168085529252808320805460ff1916905551339285917ff6391f5c32d9c69d2a47ea670b442974b53935d1edc7fd64eb21e047a839171b9190a45050565b600081815260018301602052604081205480156106da576000610615600183610a39565b855490915060009061062990600190610a39565b905081811461068e57600086600001828154811061064957610649610a50565b906000526020600020015490508087600001848154811061066c5761066c610a50565b6000918252602080832090910192909255918252600188019052604090208390555b855486908061069f5761069f610a66565b6001900381819060005260206000200160009055905585600101600086815260200190815260200160002060009055600193505050506101e6565b60009150506101e6565b606060006106f3836002610a7c565b6106fe906002610a9b565b67ffffffffffffffff81111561071657610716610ab3565b6040519080825280601f01601f191660200182016040528015610740576020820181803683370190505b509050600360fc1b8160008151811061075b5761075b610a50565b60200101906001600160f81b031916908160001a905350600f60fb1b8160018151811061078a5761078a610a50565b60200101906001600160f81b031916908160001a90535060006107ae846002610a7c565b6107b9906001610a9b565b90505b6001811115610831576f181899199a1a9b1b9c1cb0b131b232b360811b85600f16601081106107ed576107ed610a50565b1a60f81b82828151811061080357610803610a50565b60200101906001600160f81b031916908160001a90535060049490941c9361082a81610ac9565b90506107bc565b5083156102665760405162461bcd60e51b815260206004820181905260248201527f537472696e67733a20686578206c656e67746820696e73756666696369656e7460448201526064016103f1565b600082600001828154811061089757610897610a50565b9060005260206000200154905092915050565b6000602082840312156108bc57600080fd5b81356001600160e01b03198116811461026657600080fd5b600080604083850312156108e757600080fd5b50508035926020909101359150565b60006020828403121561090857600080fd5b5035919050565b6000806040838503121561092257600080fd5b8235915060208301356001600160a01b038116811461094057600080fd5b809150509250929050565b60005b8381101561096657818101518382015260200161094e565b83811115610975576000848401525b50505050565b7f416363657373436f6e74726f6c3a206163636f756e74200000000000000000008152600083516109b381601785016020880161094b565b7001034b99036b4b9b9b4b733903937b6329607d1b60179184019182015283516109e481602884016020880161094b565b01602801949350505050565b6020815260008251806020840152610a0f81604085016020870161094b565b601f01601f19169190910160400192915050565b634e487b7160e01b600052601160045260246000fd5b600082821015610a4b57610a4b610a23565b500390565b634e487b7160e01b600052603260045260246000fd5b634e487b7160e01b600052603160045260246000fd5b6000816000190483118215151615610a9657610a96610a23565b500290565b60008219821115610aae57610aae610a23565b500190565b634e487b7160e01b600052604160045260246000fd5b600081610ad857610ad8610a23565b50600019019056fea264697066735822122001c7b0f3b213a1d4cf89141974cdf9a8912296e846e8b46ee0ee59104e79cb8064736f6c634300080c0033",
  "bytecodeSha1": "7b5dee71bf78f1968d9c3ad3f7f3a7d5c61714b7",
  "compiler": {
    "evm_version": "istanbul",
    "optimizer": {
      "enabled": true,
      "runs": 200
    },
    "version": "0.8.12+commit.f00d7308"
  },
  "contractName": "AccessControlEnumerableMock",
  "language": "Solidity",
  "natspec": {
    "kind": "dev",
    "methods": {
      "getRoleAdmin(bytes32)": {
        "details": "Returns the admin role that controls `role`. See {grantRole} and {revokeRole}. To change a role's admin, use {_setRoleAdmin}."
      },
      "getRoleMember(bytes32,uint256)": {
        "details": "Returns one of the accounts that have `role`. `index` must be a value between 0 and {getRoleMemberCount}, non-inclusive. Role bearers are not sorted in any particular way, and their ordering may change at any point. WARNING: When using {getRoleMember} and {getRoleMemberCount}, make sure you perform all queries on the same block. See the following https://forum.openzeppelin.com/t/iterating-over-elements-on-enumerableset-in-openzeppelin-contracts/2296[forum post] for more information."
      },
      "getRoleMemberCount(bytes32)": {
        "details": "Returns the number of accounts that have `role`. Can be used together with {getRoleMember} to enumerate all bearers of a role."
      },
      "grantRole(bytes32,address)": {
        "details": "Overload {grantRole} to track enumerable memberships"
      },
      "hasRole(bytes32,address)": {
        "details": "Returns `true` if `account` has been granted `role`."
      },
      "renounceRole(bytes32,address)": {
        "details": "Overload {renounceRole} to track enumerable memberships"
      },
      "revokeRole(bytes32,address)": {
        "details": "Overload {revokeRole} to track enumerable memberships"
      },
      "supportsInterface(bytes4)": {
        "details": "See {IERC165-supportsInterface}."
      }
    },
    "version": 1
  },
  "opcodes": "PUSH1 0x80 PUSH1 0x40 MSTORE CALLVALUE DUP1 ISZERO PUSH2 0x10 JUMPI PUSH1 0x0 DUP1 REVERT JUMPDEST POP PUSH1 0x4 CALLDATASIZE LT PUSH2 0xA9 JUMPI PUSH1 0x0 CALLDATALOAD PUSH1 0xE0 SHR DUP1 PUSH4 0x4B9304A4 GT PUSH2 0x71 JUMPI DUP1 PUSH4 0x4B9304A4 EQ PUSH2 0x142 JUMPI DUP1 PUSH4 0x9010D07C EQ PUSH2 0x155 JUMPI DUP1 PUSH4 0x91D14854 EQ PUSH2 0x180 JUMPI DUP1 PUSH4 0xA217FDDF EQ PUSH2 0x193 JUMPI DUP1 PUSH4 0xCA15C873 EQ PUSH2 0x19B JUMPI DUP1 PUSH4 0xD547741F EQ PUSH2 0x1AE JUMPI PUSH1 0x0 DUP1 REVERT JUMPDEST DUP1 PUSH4 0x1FFC9A7 EQ PUSH2 0xAE JUMPI DUP1 PUSH4 0x1E4E0091 EQ PUSH2 0xD6 JUMPI DUP1 PUSH4 0x248A9CA3 EQ PUSH2 0xEB JUMPI DUP1 PUSH4 0x2F2FF15D EQ PUSH2 0x11C JUMPI DUP1 PUSH4 0x36568ABE EQ PUSH2 0x12F JUMPI JUMPDEST PUSH1 0x0 DUP1 REVERT JUMPDEST PUSH2 0xC1 PUSH2 0xBC CALLDATASIZE PUSH1 0x4 PUSH2 0x8AA JUMP JUMPDEST PUSH2 0x1C1 JUMP JUMPDEST PUSH1 0x40 MLOAD SWAP1 ISZERO ISZERO DUP2 MSTORE PUSH1 0x20 ADD JUMPDEST PUSH1 0x40 MLOAD DUP1 SWAP2 SUB SWAP1 RETURN JUMPDEST PUSH2 0xE9 PUSH2 0xE4 CALLDATASIZE PUSH1 0x4 PUSH2 0x8D4 JUMP JUMPDEST PUSH2 0x1EC JUMP JUMPDEST STOP JUMPDEST PUSH2 0x10E PUSH2 0xF9 CALLDATASIZE PUSH1 0x4 PUSH2 0x8F6 JUMP JUMPDEST PUSH1 0x0 SWAP1 DUP2 MSTORE PUSH1 0x20 DUP2 SWAP1 MSTORE PUSH1 0x40 SWAP1 KECCAK256 PUSH1 0x1 ADD SLOAD SWAP1 JUMP JUMPDEST PUSH1 0x40 MLOAD SWAP1 DUP2 MSTORE PUSH1 0x20 ADD PUSH2 0xCD JUMP JUMPDEST PUSH2 0xE9 PUSH2 0x12A CALLDATASIZE PUSH1 0x4 PUSH2 0x90F JUMP JUMPDEST PUSH2 0x1FA JUMP JUMPDEST PUSH2 0xE9 PUSH2 0x13D CALLDATASIZE PUSH1 0x4 PUSH2 0x90F JUMP JUMPDEST PUSH2 0x221 JUMP JUMPDEST PUSH2 0xE9 PUSH2 0x150 CALLDATASIZE PUSH1 0x4 PUSH2 0x8F6 JUMP JUMPDEST PUSH2 0x243 JUMP JUMPDEST PUSH2 0x168 PUSH2 0x163 CALLDATASIZE PUSH1 0x4 PUSH2 0x8D4 JUMP JUMPDEST PUSH2 0x24E JUMP JUMPDEST PUSH1 0x40 MLOAD PUSH1 0x1 PUSH1 0x1 PUSH1 0xA0 SHL SUB SWAP1 SWAP2 AND DUP2 MSTORE PUSH1 0x20 ADD PUSH2 0xCD JUMP JUMPDEST PUSH2 0xC1 PUSH2 0x18E CALLDATASIZE PUSH1 0x4 PUSH2 0x90F JUMP JUMPDEST PUSH2 0x26D JUMP JUMPDEST PUSH2 0x10E PUSH1 0x0 DUP2 JUMP JUMPDEST PUSH2 0x10E PUSH2 0x1A9 CALLDATASIZE PUSH1 0x4 PUSH2 0x8F6 JUMP JUMPDEST PUSH2 0x296 JUMP JUMPDEST PUSH2 0xE9 PUSH2 0x1BC CALLDATASIZE PUSH1 0x4 PUSH2 0x90F JUMP JUMPDEST PUSH2 0x2AD JUMP JUMPDEST PUSH1 0x0 PUSH1 0x1 PUSH1 0x1 PUSH1 0xE0 SHL SUB NOT DUP3 AND PUSH4 0x5A05180F PUSH1 0xE0 SHL EQ DUP1 PUSH2 0x1E6 JUMPI POP PUSH2 0x1E6 DUP3 PUSH2 0x2D6 JUMP JUMPDEST SWAP3 SWAP2 POP POP JUMP JUMPDEST PUSH2 0x1F6 DUP3 DUP3 PUSH2 0x30B JUMP JUMPDEST POP POP JUMP JUMPDEST PUSH2 0x204 DUP3 DUP3 PUSH2 0x35F JUMP JUMPDEST PUSH1 0x0 DUP3 DUP2 MSTORE PUSH1 0x1 PUSH1 0x20 MSTORE PUSH1 0x40 SWAP1 KECCAK256 PUSH2 0x21C SWAP1 DUP3 PUSH2 0x2C1 JUMP JUMPDEST POP POP POP JUMP JUMPDEST PUSH2 0x22B DUP3 DUP3 PUSH2 0x385 JUMP JUMPDEST PUSH1 0x0 DUP3 DUP2 MSTORE PUSH1 0x1 PUSH1 0x20 MSTORE PUSH1 0x40 SWAP1 KECCAK256 PUSH2 0x21C SWAP1 DUP3 PUSH2 0x404 JUMP JUMPDEST DUP1 PUSH2 0x1F6 DUP2 CALLER PUSH2 0x419 JUMP JUMPDEST PUSH1 0x0 DUP3 DUP2 MSTORE PUSH1 0x1 PUSH1 0x20 MSTORE PUSH1 0x40 DUP2 KECCAK256 PUSH2 0x266 SWAP1 DUP4 PUSH2 0x47D JUMP JUMPDEST SWAP4 SWAP3 POP POP POP JUMP JUMPDEST PUSH1 0x0 SWAP2 DUP3 MSTORE PUSH1 0x20 DUP3 DUP2 MSTORE PUSH1 0x40 DUP1 DUP5 KECCAK256 PUSH1 0x1 PUSH1 0x1 PUSH1 0xA0 SHL SUB SWAP4 SWAP1 SWAP4 AND DUP5 MSTORE SWAP2 SWAP1 MSTORE SWAP1 KECCAK256 SLOAD PUSH1 0xFF AND SWAP1 JUMP JUMPDEST PUSH1 0x0 DUP2 DUP2 MSTORE PUSH1 0x1 PUSH1 0x20 MSTORE PUSH1 0x40 DUP2 KECCAK256 PUSH2 0x1E6 SWAP1 PUSH2 0x489 JUMP JUMPDEST PUSH2 0x22B DUP3 DUP3 PUSH2 0x493 JUMP JUMPDEST PUSH2 0x1F6 DUP3 DUP3 PUSH2 0x4B9 JUMP JUMPDEST PUSH1 0x0 PUSH2 0x266 DUP4 PUSH1 0x1 PUSH1 0x1 PUSH1 0xA0 SHL SUB DUP5 AND PUSH2 0x53D JUMP JUMPDEST PUSH1 0x0 PUSH1 0x1 PUSH1 0x1 PUSH1 0xE0 SHL SUB NOT DUP3 AND PUSH4 0x7965DB0B PUSH1 0xE0 SHL EQ DUP1 PUSH2 0x1E6 JUMPI POP PUSH4 0x1FFC9A7 PUSH1 0xE0 SHL PUSH1 0x1 PUSH1 0x1 PUSH1 0xE0 SHL SUB NOT DUP4 AND EQ PUSH2 0x1E6 JUMP JUMPDEST PUSH1 0x0 DUP3 DUP2 MSTORE PUSH1 0x20 DUP2 SWAP1 MSTORE PUSH1 0x40 SWAP1 KECCAK256 PUSH1 0x1 ADD SLOAD DUP2 SWAP1 PUSH1 0x40 MLOAD DUP5 SWAP1 PUSH32 0xBD79B86FFE0AB8E8776151514217CD7CACD52C909F66475C3AF44E129F0B00FF SWAP1 PUSH1 0x0 SWAP1 LOG4 PUSH1 0x0 SWAP2 DUP3 MSTORE PUSH1 0x20 DUP3 SWAP1 MSTORE PUSH1 0x40 SWAP1 SWAP2 KECCAK256 PUSH1 0x1 ADD SSTORE JUMP JUMPDEST PUSH1 0x0 DUP3 DUP2 MSTORE PUSH1 0x20 DUP2 SWAP1 MSTORE PUSH1 0x40 SWAP1 KECCAK256 PUSH1 0x1 ADD SLOAD PUSH2 0x37B DUP2 CALLER PUSH2 0x419 JUMP JUMPDEST PUSH2 0x21C DUP4 DUP4 PUSH2 0x4B9 JUMP JUMPDEST PUSH1 0x1 PUSH1 0x1 PUSH1 0xA0 SHL SUB DUP2 AND CALLER EQ PUSH2 0x3FA JUMPI PUSH1 0x40 MLOAD PUSH3 0x461BCD PUSH1 0xE5 SHL DUP2 MSTORE PUSH1 0x20 PUSH1 0x4 DUP3 ADD MSTORE PUSH1 0x2F PUSH1 0x24 DUP3 ADD MSTORE PUSH32 0x416363657373436F6E74726F6C3A2063616E206F6E6C792072656E6F756E6365 PUSH1 0x44 DUP3 ADD MSTORE PUSH15 0x103937B632B9903337B91039B2B633 PUSH1 0x89 SHL PUSH1 0x64 DUP3 ADD MSTORE PUSH1 0x84 ADD JUMPDEST PUSH1 0x40 MLOAD DUP1 SWAP2 SUB SWAP1 REVERT JUMPDEST PUSH2 0x1F6 DUP3 DUP3 PUSH2 0x58C JUMP JUMPDEST PUSH1 0x0 PUSH2 0x266 DUP4 PUSH1 0x1 PUSH1 0x1 PUSH1 0xA0 SHL SUB DUP5 AND PUSH2 0x5F1 JUMP JUMPDEST PUSH2 0x423 DUP3 DUP3 PUSH2 0x26D JUMP JUMPDEST PUSH2 0x1F6 JUMPI PUSH2 0x43B DUP2 PUSH1 0x1 PUSH1 0x1 PUSH1 0xA0 SHL SUB AND PUSH1 0x14 PUSH2 0x6E4 JUMP JUMPDEST PUSH2 0x446 DUP4 PUSH1 0x20 PUSH2 0x6E4 JUMP JUMPDEST PUSH1 0x40 MLOAD PUSH1 0x20 ADD PUSH2 0x457 SWAP3 SWAP2 SWAP1 PUSH2 0x97B JUMP JUMPDEST PUSH1 0x40 DUP1 MLOAD PUSH1 0x1F NOT DUP2 DUP5 SUB ADD DUP2 MSTORE SWAP1 DUP3 SWAP1 MSTORE PUSH3 0x461BCD PUSH1 0xE5 SHL DUP3 MSTORE PUSH2 0x3F1 SWAP2 PUSH1 0x4 ADD PUSH2 0x9F0 JUMP JUMPDEST PUSH1 0x0 PUSH2 0x266 DUP4 DUP4 PUSH2 0x880 JUMP JUMPDEST PUSH1 0x0 PUSH2 0x1E6 DUP3 SLOAD SWAP1 JUMP JUMPDEST PUSH1 0x0 DUP3 DUP2 MSTORE PUSH1 0x20 DUP2 SWAP1 MSTORE PUSH1 0x40 SWAP1 KECCAK256 PUSH1 0x1 ADD SLOAD PUSH2 0x4AF DUP2 CALLER PUSH2 0x419 JUMP JUMPDEST PUSH2 0x21C DUP4 DUP4 PUSH2 0x58C JUMP JUMPDEST PUSH2 0x4C3 DUP3 DUP3 PUSH2 0x26D JUMP JUMPDEST PUSH2 0x1F6 JUMPI PUSH1 0x0 DUP3 DUP2 MSTORE PUSH1 0x20 DUP2 DUP2 MSTORE PUSH1 0x40 DUP1 DUP4 KECCAK256 PUSH1 0x1 PUSH1 0x1 PUSH1 0xA0 SHL SUB DUP6 AND DUP5 MSTORE SWAP1 SWAP2 MSTORE SWAP1 KECCAK256 DUP1 SLOAD PUSH1 0xFF NOT AND PUSH1 0x1 OR SWAP1 SSTORE PUSH2 0x4F9 CALLER SWAP1 JUMP JUMPDEST PUSH1 0x1 PUSH1 0x1 PUSH1 0xA0 SHL SUB AND DUP2 PUSH1 0x1 PUSH1 0x1 PUSH1 0xA0 SHL SUB AND DUP4 PUSH32 0x2F8788117E7EFF1D82E926EC794901D17C78024A50270940304540A733656F0D PUSH1 0x40 MLOAD PUSH1 0x40 MLOAD DUP1 SWAP2 SUB SWAP1 LOG4 POP POP JUMP JUMPDEST PUSH1 0x0 DUP2 DUP2 MSTORE PUSH1 0x1 DUP4 ADD PUSH1 0x20 MSTORE PUSH1 0x40 DUP2 KECCAK256 SLOAD PUSH2 0x584 JUMPI POP DUP2 SLOAD PUSH1 0x1 DUP2 DUP2 ADD DUP5 SSTORE PUSH1 0x0 DUP5 DUP2 MSTORE PUSH1 0x20 DUP1 DUP3 KECCAK256 SWAP1 SWAP4 ADD DUP5 SWAP1 SSTORE DUP5 SLOAD DUP5 DUP3 MSTORE DUP3 DUP7 ADD SWAP1 SWAP4 MSTORE PUSH1 0x40 SWAP1 KECCAK256 SWAP2 SWAP1 SWAP2 SSTORE PUSH2 0x1E6 JUMP JUMPDEST POP PUSH1 0x0 PUSH2 0x1E6 JUMP JUMPDEST PUSH2 0x596 DUP3 DUP3 PUSH2 0x26D JUMP JUMPDEST ISZERO PUSH2 0x1F6 JUMPI PUSH1 0x0 DUP3 DUP2 MSTORE PUSH1 0x20 DUP2 DUP2 MSTORE PUSH1 0x40 DUP1 DUP4 KECCAK256 PUSH1 0x1 PUSH1 0x1 PUSH1 0xA0 SHL SUB DUP6 AND DUP1 DUP6 MSTORE SWAP3 MSTORE DUP1 DUP4 KECCAK256 DUP1 SLOAD PUSH1 0xFF NOT AND SWAP1 SSTORE MLOAD CALLER SWAP3 DUP6 SWAP2 PUSH32 0xF6391F5C32D9C69D2A47EA670B442974B53935D1EDC7FD64EB21E047A839171B SWAP2 SWAP1 LOG4 POP POP JUMP JUMPDEST PUSH1 0x0 DUP2 DUP2 MSTORE PUSH1 0x1 DUP4 ADD PUSH1 0x20 MSTORE PUSH1 0x40 DUP2 KECCAK256 SLOAD DUP1 ISZERO PUSH2 0x6DA JUMPI PUSH1 0x0 PUSH2 0x615 PUSH1 0x1 DUP4 PUSH2 0xA39 JUMP JUMPDEST DUP6 SLOAD SWAP1 SWAP2 POP PUSH1 0x0 SWAP1 PUSH2 0x629 SWAP1 PUSH1 0x1 SWAP1 PUSH2 0xA39 JUMP JUMPDEST SWAP1 POP DUP2 DUP2 EQ PUSH2 0x68E JUMPI PUSH1 0x0 DUP7 PUSH1 0x0 ADD DUP3 DUP2 SLOAD DUP2 LT PUSH2 0x649 JUMPI PUSH2 0x649 PUSH2 0xA50 JUMP JUMPDEST SWAP1 PUSH1 0x0 MSTORE PUSH1 0x20 PUSH1 0x0 KECCAK256 ADD SLOAD SWAP1 POP DUP1 DUP8 PUSH1 0x0 ADD DUP5 DUP2 SLOAD DUP2 LT PUSH2 0x66C JUMPI PUSH2 0x66C PUSH2 0xA50 JUMP JUMPDEST PUSH1 0x0 SWAP2 DUP3 MSTORE PUSH1 0x20 DUP1 DUP4 KECCAK256 SWAP1 SWAP2 ADD SWAP3 SWAP1 SWAP3 SSTORE SWAP2 DUP3 MSTORE PUSH1 0x1 DUP9 ADD SWAP1 MSTORE PUSH1 0x40 SWAP1 KECCAK256 DUP4 SWAP1 SSTORE JUMPDEST DUP6 SLOAD DUP7 SWAP1 DUP1 PUSH2 0x69F JUMPI PUSH2 0x69F PUSH2 0xA66 JUMP JUMPDEST PUSH1 0x1 SWAP1 SUB DUP2 DUP2 SWAP1 PUSH1 0x0 MSTORE PUSH1 0x20 PUSH1 0x0 KECCAK256 ADD PUSH1 0x0 SWAP1 SSTORE SWAP1 SSTORE DUP6 PUSH1 0x1 ADD PUSH1 0x0 DUP7 DUP2 MSTORE PUSH1 0x20 ADD SWAP1 DUP2 MSTORE PUSH1 0x20 ADD PUSH1 0x0 KECCAK256 PUSH1 0x0 SWAP1 SSTORE PUSH1 0x1 SWAP4 POP POP POP POP PUSH2 0x1E6 JUMP JUMPDEST PUSH1 0x0 SWAP2 POP POP PUSH2 0x1E6 JUMP JUMPDEST PUSH1 0x60 PUSH1 0x0 PUSH2 0x6F3 DUP4 PUSH1 0x2 PUSH2 0xA7C JUMP JUMPDEST PUSH2 0x6FE SWAP1 PUSH1 0x2 PUSH2 0xA9B JUMP JUMPDEST PUSH8 0xFFFFFFFFFFFFFFFF DUP2 GT ISZERO PUSH2 0x716 JUMPI PUSH2 0x716 PUSH2 0xAB3 JUMP JUMPDEST PUSH1 0x40 MLOAD SWAP1 DUP1 DUP3 MSTORE DUP1 PUSH1 0x1F ADD PUSH1 0x1F NOT AND PUSH1 0x20 ADD DUP3 ADD PUSH1 0x40 MSTORE DUP1 ISZERO PUSH2 0x740 JUMPI PUSH1 0x20 DUP3 ADD DUP2 DUP1 CALLDATASIZE DUP4 CALLDATACOPY ADD SWAP1 POP JUMPDEST POP SWAP1 POP PUSH1 0x3 PUSH1 0xFC SHL DUP2 PUSH1 0x0 DUP2 MLOAD DUP2 LT PUSH2 0x75B JUMPI PUSH2 0x75B PUSH2 0xA50 JUMP JUMPDEST PUSH1 0x20 ADD ADD SWAP1 PUSH1 0x1 PUSH1 0x1 PUSH1 0xF8 SHL SUB NOT AND SWAP1 DUP2 PUSH1 0x0 BYTE SWAP1 MSTORE8 POP PUSH1 0xF PUSH1 0xFB SHL DUP2 PUSH1 0x1 DUP2 MLOAD DUP2 LT PUSH2 0x78A JUMPI PUSH2 0x78A PUSH2 0xA50 JUMP JUMPDEST PUSH1 0x20 ADD ADD SWAP1 PUSH1 0x1 PUSH1 0x1 PUSH1 0xF8 SHL SUB NOT AND SWAP1 DUP2 PUSH1 0x0 BYTE SWAP1 MSTORE8 POP PUSH1 0x0 PUSH2 0x7AE DUP5 PUSH1 0x2 PUSH2 0xA7C JUMP JUMPDEST PUSH2 0x7B9 SWAP1 PUSH1 0x1 PUSH2 0xA9B JUMP JUMPDEST SWAP1 POP JUMPDEST PUSH1 0x1 DUP2 GT ISZERO PUSH2 0x831 JUMPI PUSH16 0x181899199A1A9B1B9C1CB0B131B232B3 PUSH1 0x81 SHL DUP6 PUSH1 0xF AND PUSH1 0x10 DUP2 LT PUSH2 0x7ED JUMPI PUSH2 0x7ED PUSH2 0xA50 JUMP JUMPDEST BYTE PUSH1 0xF8 SHL DUP3 DUP3 DUP2 MLOAD DUP2 LT PUSH2 0x803 JUMPI PUSH2 0x803 PUSH2 0xA50 JUMP JUMPDEST PUSH1 0x20 ADD ADD SWAP1 PUSH1 0x1 PUSH1 0x1 PUSH1 0xF8 SHL SUB NOT AND SWAP1 DUP2 PUSH1 0x0 BYTE SWAP1 MSTORE8 POP PUSH1 0x4 SWAP5 SWAP1 SWAP5 SHR SWAP4 PUSH2 0x82A DUP2 PUSH2 0xAC9 JUMP JUMPDEST SWAP1 POP PUSH2 0x7BC JUMP JUMPDEST POP DUP4 ISZERO PUSH2 0x266 JUMPI PUSH1 0x40 MLOAD PUSH3 0x461BCD PUSH1 0xE5 SHL DUP2 MSTORE PUSH1 0x20 PUSH1 0x4 DUP3 ADD DUP2 SWAP1 MSTORE PUSH1 0x24 DUP3 ADD MSTORE PUSH32 0x537472696E67733A20686578206C656E67746820696E73756666696369656E74 PUSH1 0x44 DUP3 ADD MSTORE PUSH1 0x64 ADD PUSH2 0x3F1 JUMP JUMPDEST PUSH1 0x0 DUP3 PUSH1 0x0 ADD DUP3 DUP2 SLOAD DUP2 LT PUSH2 0x897 JUMPI PUSH2 0x897 PUSH2 0xA50 JUMP JUMPDEST SWAP1 PUSH1 0x0 MSTORE PUSH1 0x20 PUSH1 0x0 KECCAK256 ADD SLOAD SWAP1 POP SWAP3 SWAP2 POP POP JUMP JUMPDEST PUSH1 0x0 PUSH1 0x20 DUP3 DUP5 SUB SLT ISZERO PUSH2 0x8BC JUMPI PUSH1 0x0 DUP1 REVERT JUMPDEST DUP2 CALLDATALOAD PUSH1 0x1 PUSH1 0x1 PUSH1 0xE0 SHL SUB NOT DUP2 AND DUP2 EQ PUSH2 0x266 JUMPI PUSH1 0x0 DUP1 REVERT JUMPDEST PUSH1 0x0 DUP1 PUSH1 0x40 DUP4 DUP6 SUB SLT ISZERO PUSH2 0x8E7 JUMPI PUSH1 0x0 DUP1 REVERT JUMPDEST POP POP DUP1 CALLDATALOAD SWAP3 PUSH1 0x20 SWAP1 SWAP2 ADD CALLDATALOAD SWAP2 POP JUMP JUMPDEST PUSH1 0x0 PUSH1 0x20 DUP3 DUP5 SUB SLT ISZERO PUSH2 0x908 JUMPI PUSH1 0x0 DUP1 REVERT JUMPDEST POP CALLDATALOAD SWAP2 SWAP1 POP JUMP JUMPDEST PUSH1 0x0 DUP1 PUSH1 0x40 DUP4 DUP6 SUB SLT ISZERO PUSH2 0x922 JUMPI PUSH1 0x0 DUP1 REVERT JUMPDEST DUP3 CALLDATALOAD SWAP2 POP PUSH1 0x20 DUP4 ADD CALLDATALOAD PUSH1 0x1 PUSH1 0x1 PUSH1 0xA0 SHL SUB DUP2 AND DUP2 EQ PUSH2 0x940 JUMPI PUSH1 0x0 DUP1 REVERT JUMPDEST DUP1 SWAP2 POP POP SWAP3 POP SWAP3 SWAP1 POP JUMP JUMPDEST PUSH1 0x0 JUMPDEST DUP4 DUP2 LT ISZERO PUSH2 0x966 JUMPI DUP2 DUP2 ADD MLOAD DUP4 DUP3 ADD MSTORE PUSH1 0x20 ADD PUSH2 0x94E JUMP JUMPDEST DUP4 DUP2 GT ISZERO PUSH2 0x975 JUMPI PUSH1 0x0 DUP5 DUP5 ADD MSTORE JUMPDEST POP POP POP POP JUMP JUMPDEST PUSH32 0x416363657373436F6E74726F6C3A206163636F756E7420000000000000000000 DUP2 MSTORE PUSH1 0x0 DUP4 MLOAD PUSH2 0x9B3 DUP2 PUSH1 0x17 DUP6 ADD PUSH1 0x20 DUP9 ADD PUSH2 0x94B JUMP JUMPDEST PUSH17 0x1034B99036B4B9B9B4B733903937B6329 PUSH1 0x7D SHL PUSH1 0x17 SWAP2 DUP5 ADD SWAP2 DUP3 ADD MSTORE DUP4 MLOAD PUSH2 0x9E4 DUP2 PUSH1 0x28 DUP5 ADD PUSH1 0x20 DUP9 ADD PUSH2 0x94B JUMP JUMPDEST ADD PUSH1 0x28 ADD SWAP5 SWAP4 POP POP POP POP JUMP JUMPDEST PUSH1 0x20 DUP2 MSTORE PUSH1 0x0 DUP3 MLOAD DUP1 PUSH1 0x20 DUP5 ADD MSTORE PUSH2 0xA0F DUP2 PUSH1 0x40 DUP6 ADD PUSH1 0x20 DUP8 ADD PUSH2 0x94B JUMP JUMPDEST PUSH1 0x1F ADD PUSH1 0x1F NOT AND SWAP2 SWAP1 SWAP2 ADD PUSH1 0x40 ADD SWAP3 SWAP2 POP POP JUMP JUMPDEST PUSH4 0x4E487B71 PUSH1 0xE0 SHL PUSH1 0x0 MSTORE PUSH1 0x11 PUSH1 0x4 MSTORE PUSH1 0x24 PUSH1 0x0 REVERT JUMPDEST PUSH1 0x0 DUP3 DUP3 LT ISZERO PUSH2 0xA4B JUMPI PUSH2 0xA4B PUSH2 0xA23 JUMP JUMPDEST POP SUB SWAP1 JUMP JUMPDEST PUSH4 0x4E487B71 PUSH1 0xE0 SHL PUSH1 0x0 MSTORE PUSH1 0x32 PUSH1 0x4 MSTORE PUSH1 0x24 PUSH1 0x0 REVERT JUMPDEST PUSH4 0x4E487B71 PUSH1 0xE0 SHL PUSH1 0x0 MSTORE PUSH1 0x31 PUSH1 0x4 MSTORE PUSH1 0x24 PUSH1 0x0 REVERT JUMPDEST PUSH1 0x0 DUP2 PUSH1 0x0 NOT DIV DUP4 GT DUP3 ISZERO ISZERO AND ISZERO PUSH2 0xA96 JUMPI PUSH2 0xA96 PUSH2 0xA23 JUMP JUMPDEST POP MUL SWAP1 JUMP JUMPDEST PUSH1 0x0 DUP3 NOT DUP3 GT ISZERO PUSH2 0xAAE JUMPI PUSH2 0xAAE PUSH2 0xA23 JUMP JUMPDEST POP ADD SWAP1 JUMP JUMPDEST PUSH4 0x4E487B71 PUSH1 0xE0 SHL PUSH1 0x0 MSTORE PUSH1 0x41 PUSH1 0x4 MSTORE PUSH1 0x24 PUSH1 0x0 REVERT JUMPDEST PUSH1 0x0 DUP2 PUSH2 0xAD8 JUMPI PUSH2 0xAD8 PUSH2 0xA23 JUMP JUMPDEST POP PUSH1 0x0 NOT ADD SWAP1 JUMP INVALID LOG2 PUSH5 0x6970667358 0x22 SLT KECCAK256 ADD 0xC7 0xB0 RETURN 0xB2 SGT LOG1 0xD4 0xCF DUP10 EQ NOT PUSH21 0xCDF9A8912296E846E8B46EE0EE59104E79CB806473 PUSH16 0x6C634300080C00330000000000000000 ",
  "sha1": "637b587490da47e97cc1e0f32d4226c56caa53a2",
  "source": "// SPDX-License-Identifier: MIT\n\npragma solidity ^0.8.0;\n\nimport \"../access/AccessControlEnumerable.sol\";\n\ncontract AccessControlEnumerableMock is AccessControlEnumerable {\n    constructor() {\n        _setupRole(DEFAULT_ADMIN_ROLE, _msgSender());\n    }\n\n    function setRoleAdmin(bytes32 roleId, bytes32 adminRoleId) public {\n        _setRoleAdmin(roleId, adminRoleId);\n    }\n\n    function senderProtected(bytes32 roleId) public onlyRole(roleId) {}\n}\n",
  "sourcePath": "contracts/openzeppelin/contracts/mocks/AccessControlEnumerableMock.sol",
  "type": "contract"
}