{
  "abi": [
    {
      "inputs": [
        {
          "internalType": "uint256",
          "name": "index",
          "type": "uint256"
        }
      ],
      "name": "get",
      "outputs": [
        {
          "internalType": "bool",
          "name": "",
          "type": "bool"
        }
      ],
      "stateMutability": "view",
      "type": "function"
    },
    {
      "inputs": [
        {
          "internalType": "uint256",
          "name": "index",
          "type": "uint256"
        }
      ],
      "name": "set",
      "outputs": [],
      "stateMutability": "nonpayable",
      "type": "function"
    },
    {
      "inputs": [
        {
          "internalType": "uint256",
          "name": "index",
          "type": "uint256"
        },
        {
          "internalType": "bool",
          "name": "value",
          "type": "bool"
        }
      ],
      "name": "setTo",
      "outputs": [],
      "stateMutability": "nonpayable",
      "type": "function"
    },
    {
      "inputs": [
        {
          "internalType": "uint256",
          "name": "index",
          "type": "uint256"
        }
      ],
      "name": "unset",
      "outputs": [],
      "stateMutability": "nonpayable",
      "type": "function"
    }
  ],
  "bytecode": "608060405234801561001057600080fd5b5061028c806100206000396000f3fe608060405234801561001057600080fd5b506004361061004c5760003560e01c8063088d22551461005157806360fe47b1146100665780639507d39a14610079578063dcc9d43c146100a0575b600080fd5b61006461005f3660046101ca565b6100b3565b005b6100646100743660046101ca565b6100c1565b61008c6100873660046101ca565b6100cc565b604051901515815260200160405180910390f35b6100646100ae3660046101e3565b6100de565b6100be6000826100ee565b50565b6100be60008261012d565b60006100d8818361016b565b92915050565b6100ea600083836101ab565b5050565b60006100fc6101008361022e565b9050600061010c61010084610242565b600092835260209490945250604090208054600190931b1990921690915550565b600061013b6101008361022e565b9050600061014b61010084610242565b600092835260209490945250604090208054600190931b90921790915550565b60008061017a6101008461022e565b9050600061018a61010085610242565b6000928352602095909552506040902054600190931b909216151592915050565b80156101c0576101bb838361012d565b505050565b6101bb83836100ee565b6000602082840312156101dc57600080fd5b5035919050565b600080604083850312156101f657600080fd5b823591506020830135801515811461020d57600080fd5b809150509250929050565b634e487b7160e01b600052601260045260246000fd5b60008261023d5761023d610218565b500490565b60008261025157610251610218565b50069056fea264697066735822122018b7cceb5b52067ff01d28b1a2f6ef5e42de33fe67629d6061b4f7d06f3161ed64736f6c634300080c0033",
  "bytecodeSha1": "dca5a52a02ce243ee2fbffed5a9f263fa2ebb80e",
  "compiler": {
    "evm_version": "istanbul",
    "optimizer": {
      "enabled": true,
      "runs": 200
    },
    "version": "0.8.12+commit.f00d7308"
  },
  "contractName": "BitMapMock",
  "language": "Solidity",
  "natspec": {
    "kind": "dev",
    "methods": {},
    "version": 1
  },
  "opcodes": "PUSH1 0x80 PUSH1 0x40 MSTORE CALLVALUE DUP1 ISZERO PUSH2 0x10 JUMPI PUSH1 0x0 DUP1 REVERT JUMPDEST POP PUSH1 0x4 CALLDATASIZE LT PUSH2 0x4C JUMPI PUSH1 0x0 CALLDATALOAD PUSH1 0xE0 SHR DUP1 PUSH4 0x88D2255 EQ PUSH2 0x51 JUMPI DUP1 PUSH4 0x60FE47B1 EQ PUSH2 0x66 JUMPI DUP1 PUSH4 0x9507D39A EQ PUSH2 0x79 JUMPI DUP1 PUSH4 0xDCC9D43C EQ PUSH2 0xA0 JUMPI JUMPDEST PUSH1 0x0 DUP1 REVERT JUMPDEST PUSH2 0x64 PUSH2 0x5F CALLDATASIZE PUSH1 0x4 PUSH2 0x1CA JUMP JUMPDEST PUSH2 0xB3 JUMP JUMPDEST STOP JUMPDEST PUSH2 0x64 PUSH2 0x74 CALLDATASIZE PUSH1 0x4 PUSH2 0x1CA JUMP JUMPDEST PUSH2 0xC1 JUMP JUMPDEST PUSH2 0x8C PUSH2 0x87 CALLDATASIZE PUSH1 0x4 PUSH2 0x1CA JUMP JUMPDEST PUSH2 0xCC JUMP JUMPDEST PUSH1 0x40 MLOAD SWAP1 ISZERO ISZERO DUP2 MSTORE PUSH1 0x20 ADD PUSH1 0x40 MLOAD DUP1 SWAP2 SUB SWAP1 RETURN JUMPDEST PUSH2 0x64 PUSH2 0xAE CALLDATASIZE PUSH1 0x4 PUSH2 0x1E3 JUMP JUMPDEST PUSH2 0xDE JUMP JUMPDEST PUSH2 0xBE PUSH1 0x0 DUP3 PUSH2 0xEE JUMP JUMPDEST POP JUMP JUMPDEST PUSH2 0xBE PUSH1 0x0 DUP3 PUSH2 0x12D JUMP JUMPDEST PUSH1 0x0 PUSH2 0xD8 DUP2 DUP4 PUSH2 0x16B JUMP JUMPDEST SWAP3 SWAP2 POP POP JUMP JUMPDEST PUSH2 0xEA PUSH1 0x0 DUP4 DUP4 PUSH2 0x1AB JUMP JUMPDEST POP POP JUMP JUMPDEST PUSH1 0x0 PUSH2 0xFC PUSH2 0x100 DUP4 PUSH2 0x22E JUMP JUMPDEST SWAP1 POP PUSH1 0x0 PUSH2 0x10C PUSH2 0x100 DUP5 PUSH2 0x242 JUMP JUMPDEST PUSH1 0x0 SWAP3 DUP4 MSTORE PUSH1 0x20 SWAP5 SWAP1 SWAP5 MSTORE POP PUSH1 0x40 SWAP1 KECCAK256 DUP1 SLOAD PUSH1 0x1 SWAP1 SWAP4 SHL NOT SWAP1 SWAP3 AND SWAP1 SWAP2 SSTORE POP JUMP JUMPDEST PUSH1 0x0 PUSH2 0x13B PUSH2 0x100 DUP4 PUSH2 0x22E JUMP JUMPDEST SWAP1 POP PUSH1 0x0 PUSH2 0x14B PUSH2 0x100 DUP5 PUSH2 0x242 JUMP JUMPDEST PUSH1 0x0 SWAP3 DUP4 MSTORE PUSH1 0x20 SWAP5 SWAP1 SWAP5 MSTORE POP PUSH1 0x40 SWAP1 KECCAK256 DUP1 SLOAD PUSH1 0x1 SWAP1 SWAP4 SHL SWAP1 SWAP3 OR SWAP1 SWAP2 SSTORE POP JUMP JUMPDEST PUSH1 0x0 DUP1 PUSH2 0x17A PUSH2 0x100 DUP5 PUSH2 0x22E JUMP JUMPDEST SWAP1 POP PUSH1 0x0 PUSH2 0x18A PUSH2 0x100 DUP6 PUSH2 0x242 JUMP JUMPDEST PUSH1 0x0 SWAP3 DUP4 MSTORE PUSH1 0x20 SWAP6 SWAP1 SWAP6 MSTORE POP PUSH1 0x40 SWAP1 KECCAK256 SLOAD PUSH1 0x1 SWAP1 SWAP4 SHL SWAP1 SWAP3 AND ISZERO ISZERO SWAP3 SWAP2 POP POP JUMP JUMPDEST DUP1 ISZERO PUSH2 0x1C0 JUMPI PUSH2 0x1BB DUP4 DUP4 PUSH2 0x12D JUMP JUMPDEST POP POP POP JUMP JUMPDEST PUSH2 0x1BB DUP4 DUP4 PUSH2 0xEE JUMP JUMPDEST PUSH1 0x0 PUSH1 0x20 DUP3 DUP5 SUB SLT ISZERO PUSH2 0x1DC JUMPI PUSH1 0x0 DUP1 REVERT JUMPDEST POP CALLDATALOAD SWAP2 SWAP1 POP JUMP JUMPDEST PUSH1 0x0 DUP1 PUSH1 0x40 DUP4 DUP6 SUB SLT ISZERO PUSH2 0x1F6 JUMPI PUSH1 0x0 DUP1 REVERT JUMPDEST DUP3 CALLDATALOAD SWAP2 POP PUSH1 0x20 DUP4 ADD CALLDATALOAD DUP1 ISZERO ISZERO DUP2 EQ PUSH2 0x20D JUMPI PUSH1 0x0 DUP1 REVERT JUMPDEST DUP1 SWAP2 POP POP SWAP3 POP SWAP3 SWAP1 POP JUMP JUMPDEST PUSH4 0x4E487B71 PUSH1 0xE0 SHL PUSH1 0x0 MSTORE PUSH1 0x12 PUSH1 0x4 MSTORE PUSH1 0x24 PUSH1 0x0 REVERT JUMPDEST PUSH1 0x0 DUP3 PUSH2 0x23D JUMPI PUSH2 0x23D PUSH2 0x218 JUMP JUMPDEST POP DIV SWAP1 JUMP JUMPDEST PUSH1 0x0 DUP3 PUSH2 0x251 JUMPI PUSH2 0x251 PUSH2 0x218 JUMP JUMPDEST POP MOD SWAP1 JUMP INVALID LOG2 PUSH5 0x6970667358 0x22 SLT KECCAK256 XOR 0xB7 0xCC 0xEB JUMPDEST MSTORE MOD PUSH32 0xF01D28B1A2F6EF5E42DE33FE67629D6061B4F7D06F3161ED64736F6C63430008 0xC STOP CALLER ",
  "sha1": "95649a6508ad235bbef879d655406ba602e71e21",
  "source": "// SPDX-License-Identifier: MIT\n\npragma solidity ^0.8.0;\n\nimport \"../utils/structs/BitMaps.sol\";\n\ncontract BitMapMock {\n    using BitMaps for BitMaps.BitMap;\n\n    BitMaps.BitMap private _bitmap;\n\n    function get(uint256 index) public view returns (bool) {\n        return _bitmap.get(index);\n    }\n\n    function setTo(uint256 index, bool value) public {\n        _bitmap.setTo(index, value);\n    }\n\n    function set(uint256 index) public {\n        _bitmap.set(index);\n    }\n\n    function unset(uint256 index) public {\n        _bitmap.unset(index);\n    }\n}\n",
  "sourcePath": "contracts/openzeppelin/contracts/mocks/BitmapMock.sol",
  "type": "contract"
}