{
  "abi": [
    {
      "inputs": [],
      "name": "get",
      "outputs": [
        {
          "internalType": "bool",
          "name": "",
          "type": "bool"
        }
      ],
      "stateMutability": "pure",
      "type": "function"
    },
    {
      "inputs": [
        {
          "internalType": "uint256",
          "name": "_value",
          "type": "uint256"
        },
        {
          "internalType": "string",
          "name": "_text",
          "type": "string"
        },
        {
          "internalType": "uint256[]",
          "name": "_values",
          "type": "uint256[]"
        }
      ],
      "name": "initialize",
      "outputs": [],
      "stateMutability": "nonpayable",
      "type": "function"
    },
    {
      "inputs": [],
      "name": "initializeNonPayable",
      "outputs": [],
      "stateMutability": "nonpayable",
      "type": "function"
    },
    {
      "inputs": [
        {
          "internalType": "uint256",
          "name": "_value",
          "type": "uint256"
        }
      ],
      "name": "initializeNonPayableWithValue",
      "outputs": [],
      "stateMutability": "nonpayable",
      "type": "function"
    },
    {
      "inputs": [],
      "name": "initializePayable",
      "outputs": [],
      "stateMutability": "payable",
      "type": "function"
    },
    {
      "inputs": [
        {
          "internalType": "uint256",
          "name": "_value",
          "type": "uint256"
        }
      ],
      "name": "initializePayableWithValue",
      "outputs": [],
      "stateMutability": "payable",
      "type": "function"
    },
    {
      "inputs": [],
      "name": "reverts",
      "outputs": [],
      "stateMutability": "pure",
      "type": "function"
    },
    {
      "inputs": [],
      "name": "text",
      "outputs": [
        {
          "internalType": "string",
          "name": "",
          "type": "string"
        }
      ],
      "stateMutability": "view",
      "type": "function"
    },
    {
      "inputs": [],
      "name": "value",
      "outputs": [
        {
          "internalType": "uint256",
          "name": "",
          "type": "uint256"
        }
      ],
      "stateMutability": "view",
      "type": "function"
    },
    {
      "inputs": [
        {
          "internalType": "uint256",
          "name": "",
          "type": "uint256"
        }
      ],
      "name": "values",
      "outputs": [
        {
          "internalType": "uint256",
          "name": "",
          "type": "uint256"
        }
      ],
      "stateMutability": "view",
      "type": "function"
    },
    {
      "inputs": [],
      "name": "version",
      "outputs": [
        {
          "internalType": "string",
          "name": "",
          "type": "string"
        }
      ],
      "stateMutability": "pure",
      "type": "function"
    }
  ],
  "bytecode": "608060405234801561001057600080fd5b50610643806100206000396000f3fe60806040526004361061009c5760003560e01c80635e383d21116100645780635e383d21146101495780636d4ce63c14610169578063763e2831146101855780639fba1f9a146101a5578063d31f8b6b146101af578063e79f5bee146101cf57600080fd5b80631f1bd692146100a1578063227367d5146100cc5780633bccbbc9146100e55780633fa4f245146100fa57806354fd4d501461011e575b600080fd5b3480156100ad57600080fd5b506100b66101dd565b6040516100c391906103dd565b60405180910390f35b3480156100d857600080fd5b506100e3600a600055565b005b3480156100f157600080fd5b506100e361026b565b34801561010657600080fd5b5061011060005481565b6040519081526020016100c3565b34801561012a57600080fd5b50604080518082019091526002815261563160f01b60208201526100b6565b34801561015557600080fd5b50610110610164366004610432565b6102b7565b34801561017557600080fd5b50604051600181526020016100c3565b34801561019157600080fd5b506100e36101a0366004610432565b600055565b6100e36064600055565b3480156101bb57600080fd5b506100e36101ca366004610512565b6102d8565b6100e36101a0366004610432565b600180546101ea906105d2565b80601f0160208091040260200160405190810160405280929190818152602001828054610216906105d2565b80156102635780601f1061023857610100808354040283529160200191610263565b820191906000526020600020905b81548152906001019060200180831161024657829003601f168201915b505050505081565b60405162461bcd60e51b815260206004820152601c60248201527f44756d6d79496d706c656d656e746174696f6e20726576657274656400000000604482015260640160405180910390fd5b600281815481106102c757600080fd5b600091825260209091200154905081565b600083905581516102f090600190602085019061030a565b50805161030490600290602084019061038e565b50505050565b828054610316906105d2565b90600052602060002090601f016020900481019282610338576000855561037e565b82601f1061035157805160ff191683800117855561037e565b8280016001018555821561037e579182015b8281111561037e578251825591602001919060010190610363565b5061038a9291506103c8565b5090565b82805482825590600052602060002090810192821561037e579160200282018281111561037e578251825591602001919060010190610363565b5b8082111561038a57600081556001016103c9565b600060208083528351808285015260005b8181101561040a578581018301518582016040015282016103ee565b8181111561041c576000604083870101525b50601f01601f1916929092016040019392505050565b60006020828403121561044457600080fd5b5035919050565b634e487b7160e01b600052604160045260246000fd5b604051601f8201601f1916810167ffffffffffffffff8111828210171561048a5761048a61044b565b604052919050565b600082601f8301126104a357600080fd5b8135602067ffffffffffffffff8211156104bf576104bf61044b565b8160051b6104ce828201610461565b92835284810182019282810190878511156104e857600080fd5b83870192505b84831015610507578235825291830191908301906104ee565b979650505050505050565b60008060006060848603121561052757600080fd5b8335925060208085013567ffffffffffffffff8082111561054757600080fd5b818701915087601f83011261055b57600080fd5b81358181111561056d5761056d61044b565b61057f601f8201601f19168501610461565b818152898583860101111561059357600080fd5b8185850186830137600091810190940152919350604086013591808311156105ba57600080fd5b50506105c886828701610492565b9150509250925092565b600181811c908216806105e657607f821691505b6020821081141561060757634e487b7160e01b600052602260045260246000fd5b5091905056fea264697066735822122073dfdf8000f0ba47d3d995b6f16aa5084618a32aeec68cdeb7cd0afb9033fe2264736f6c634300080c0033",
  "bytecodeSha1": "9215d1fb3d934b1369d93257b3b2db6e67a09e54",
  "compiler": {
    "evm_version": "istanbul",
    "optimizer": {
      "enabled": true,
      "runs": 200
    },
    "version": "0.8.12+commit.f00d7308"
  },
  "contractName": "DummyImplementation",
  "language": "Solidity",
  "natspec": {
    "kind": "dev",
    "methods": {},
    "version": 1
  },
  "opcodes": "PUSH1 0x80 PUSH1 0x40 MSTORE PUSH1 0x4 CALLDATASIZE LT PUSH2 0x9C JUMPI PUSH1 0x0 CALLDATALOAD PUSH1 0xE0 SHR DUP1 PUSH4 0x5E383D21 GT PUSH2 0x64 JUMPI DUP1 PUSH4 0x5E383D21 EQ PUSH2 0x149 JUMPI DUP1 PUSH4 0x6D4CE63C EQ PUSH2 0x169 JUMPI DUP1 PUSH4 0x763E2831 EQ PUSH2 0x185 JUMPI DUP1 PUSH4 0x9FBA1F9A EQ PUSH2 0x1A5 JUMPI DUP1 PUSH4 0xD31F8B6B EQ PUSH2 0x1AF JUMPI DUP1 PUSH4 0xE79F5BEE EQ PUSH2 0x1CF JUMPI PUSH1 0x0 DUP1 REVERT JUMPDEST DUP1 PUSH4 0x1F1BD692 EQ PUSH2 0xA1 JUMPI DUP1 PUSH4 0x227367D5 EQ PUSH2 0xCC JUMPI DUP1 PUSH4 0x3BCCBBC9 EQ PUSH2 0xE5 JUMPI DUP1 PUSH4 0x3FA4F245 EQ PUSH2 0xFA JUMPI DUP1 PUSH4 0x54FD4D50 EQ PUSH2 0x11E JUMPI JUMPDEST PUSH1 0x0 DUP1 REVERT JUMPDEST CALLVALUE DUP1 ISZERO PUSH2 0xAD JUMPI PUSH1 0x0 DUP1 REVERT JUMPDEST POP PUSH2 0xB6 PUSH2 0x1DD JUMP JUMPDEST PUSH1 0x40 MLOAD PUSH2 0xC3 SWAP2 SWAP1 PUSH2 0x3DD JUMP JUMPDEST PUSH1 0x40 MLOAD DUP1 SWAP2 SUB SWAP1 RETURN JUMPDEST CALLVALUE DUP1 ISZERO PUSH2 0xD8 JUMPI PUSH1 0x0 DUP1 REVERT JUMPDEST POP PUSH2 0xE3 PUSH1 0xA PUSH1 0x0 SSTORE JUMP JUMPDEST STOP JUMPDEST CALLVALUE DUP1 ISZERO PUSH2 0xF1 JUMPI PUSH1 0x0 DUP1 REVERT JUMPDEST POP PUSH2 0xE3 PUSH2 0x26B JUMP JUMPDEST CALLVALUE DUP1 ISZERO PUSH2 0x106 JUMPI PUSH1 0x0 DUP1 REVERT JUMPDEST POP PUSH2 0x110 PUSH1 0x0 SLOAD DUP2 JUMP JUMPDEST PUSH1 0x40 MLOAD SWAP1 DUP2 MSTORE PUSH1 0x20 ADD PUSH2 0xC3 JUMP JUMPDEST CALLVALUE DUP1 ISZERO PUSH2 0x12A JUMPI PUSH1 0x0 DUP1 REVERT JUMPDEST POP PUSH1 0x40 DUP1 MLOAD DUP1 DUP3 ADD SWAP1 SWAP2 MSTORE PUSH1 0x2 DUP2 MSTORE PUSH2 0x5631 PUSH1 0xF0 SHL PUSH1 0x20 DUP3 ADD MSTORE PUSH2 0xB6 JUMP JUMPDEST CALLVALUE DUP1 ISZERO PUSH2 0x155 JUMPI PUSH1 0x0 DUP1 REVERT JUMPDEST POP PUSH2 0x110 PUSH2 0x164 CALLDATASIZE PUSH1 0x4 PUSH2 0x432 JUMP JUMPDEST PUSH2 0x2B7 JUMP JUMPDEST CALLVALUE DUP1 ISZERO PUSH2 0x175 JUMPI PUSH1 0x0 DUP1 REVERT JUMPDEST POP PUSH1 0x40 MLOAD PUSH1 0x1 DUP2 MSTORE PUSH1 0x20 ADD PUSH2 0xC3 JUMP JUMPDEST CALLVALUE DUP1 ISZERO PUSH2 0x191 JUMPI PUSH1 0x0 DUP1 REVERT JUMPDEST POP PUSH2 0xE3 PUSH2 0x1A0 CALLDATASIZE PUSH1 0x4 PUSH2 0x432 JUMP JUMPDEST PUSH1 0x0 SSTORE JUMP JUMPDEST PUSH2 0xE3 PUSH1 0x64 PUSH1 0x0 SSTORE JUMP JUMPDEST CALLVALUE DUP1 ISZERO PUSH2 0x1BB JUMPI PUSH1 0x0 DUP1 REVERT JUMPDEST POP PUSH2 0xE3 PUSH2 0x1CA CALLDATASIZE PUSH1 0x4 PUSH2 0x512 JUMP JUMPDEST PUSH2 0x2D8 JUMP JUMPDEST PUSH2 0xE3 PUSH2 0x1A0 CALLDATASIZE PUSH1 0x4 PUSH2 0x432 JUMP JUMPDEST PUSH1 0x1 DUP1 SLOAD PUSH2 0x1EA SWAP1 PUSH2 0x5D2 JUMP JUMPDEST DUP1 PUSH1 0x1F ADD PUSH1 0x20 DUP1 SWAP2 DIV MUL PUSH1 0x20 ADD PUSH1 0x40 MLOAD SWAP1 DUP2 ADD PUSH1 0x40 MSTORE DUP1 SWAP3 SWAP2 SWAP1 DUP2 DUP2 MSTORE PUSH1 0x20 ADD DUP3 DUP1 SLOAD PUSH2 0x216 SWAP1 PUSH2 0x5D2 JUMP JUMPDEST DUP1 ISZERO PUSH2 0x263 JUMPI DUP1 PUSH1 0x1F LT PUSH2 0x238 JUMPI PUSH2 0x100 DUP1 DUP4 SLOAD DIV MUL DUP4 MSTORE SWAP2 PUSH1 0x20 ADD SWAP2 PUSH2 0x263 JUMP JUMPDEST DUP3 ADD SWAP2 SWAP1 PUSH1 0x0 MSTORE PUSH1 0x20 PUSH1 0x0 KECCAK256 SWAP1 JUMPDEST DUP2 SLOAD DUP2 MSTORE SWAP1 PUSH1 0x1 ADD SWAP1 PUSH1 0x20 ADD DUP1 DUP4 GT PUSH2 0x246 JUMPI DUP3 SWAP1 SUB PUSH1 0x1F AND DUP3 ADD SWAP2 JUMPDEST POP POP POP POP POP DUP2 JUMP JUMPDEST PUSH1 0x40 MLOAD PUSH3 0x461BCD PUSH1 0xE5 SHL DUP2 MSTORE PUSH1 0x20 PUSH1 0x4 DUP3 ADD MSTORE PUSH1 0x1C PUSH1 0x24 DUP3 ADD MSTORE PUSH32 0x44756D6D79496D706C656D656E746174696F6E20726576657274656400000000 PUSH1 0x44 DUP3 ADD MSTORE PUSH1 0x64 ADD PUSH1 0x40 MLOAD DUP1 SWAP2 SUB SWAP1 REVERT JUMPDEST PUSH1 0x2 DUP2 DUP2 SLOAD DUP2 LT PUSH2 0x2C7 JUMPI PUSH1 0x0 DUP1 REVERT JUMPDEST PUSH1 0x0 SWAP2 DUP3 MSTORE PUSH1 0x20 SWAP1 SWAP2 KECCAK256 ADD SLOAD SWAP1 POP DUP2 JUMP JUMPDEST PUSH1 0x0 DUP4 SWAP1 SSTORE DUP2 MLOAD PUSH2 0x2F0 SWAP1 PUSH1 0x1 SWAP1 PUSH1 0x20 DUP6 ADD SWAP1 PUSH2 0x30A JUMP JUMPDEST POP DUP1 MLOAD PUSH2 0x304 SWAP1 PUSH1 0x2 SWAP1 PUSH1 0x20 DUP5 ADD SWAP1 PUSH2 0x38E JUMP JUMPDEST POP POP POP POP JUMP JUMPDEST DUP3 DUP1 SLOAD PUSH2 0x316 SWAP1 PUSH2 0x5D2 JUMP JUMPDEST SWAP1 PUSH1 0x0 MSTORE PUSH1 0x20 PUSH1 0x0 KECCAK256 SWAP1 PUSH1 0x1F ADD PUSH1 0x20 SWAP1 DIV DUP2 ADD SWAP3 DUP3 PUSH2 0x338 JUMPI PUSH1 0x0 DUP6 SSTORE PUSH2 0x37E JUMP JUMPDEST DUP3 PUSH1 0x1F LT PUSH2 0x351 JUMPI DUP1 MLOAD PUSH1 0xFF NOT AND DUP4 DUP1 ADD OR DUP6 SSTORE PUSH2 0x37E JUMP JUMPDEST DUP3 DUP1 ADD PUSH1 0x1 ADD DUP6 SSTORE DUP3 ISZERO PUSH2 0x37E JUMPI SWAP2 DUP3 ADD JUMPDEST DUP3 DUP2 GT ISZERO PUSH2 0x37E JUMPI DUP3 MLOAD DUP3 SSTORE SWAP2 PUSH1 0x20 ADD SWAP2 SWAP1 PUSH1 0x1 ADD SWAP1 PUSH2 0x363 JUMP JUMPDEST POP PUSH2 0x38A SWAP3 SWAP2 POP PUSH2 0x3C8 JUMP JUMPDEST POP SWAP1 JUMP JUMPDEST DUP3 DUP1 SLOAD DUP3 DUP3 SSTORE SWAP1 PUSH1 0x0 MSTORE PUSH1 0x20 PUSH1 0x0 KECCAK256 SWAP1 DUP2 ADD SWAP3 DUP3 ISZERO PUSH2 0x37E JUMPI SWAP2 PUSH1 0x20 MUL DUP3 ADD DUP3 DUP2 GT ISZERO PUSH2 0x37E JUMPI DUP3 MLOAD DUP3 SSTORE SWAP2 PUSH1 0x20 ADD SWAP2 SWAP1 PUSH1 0x1 ADD SWAP1 PUSH2 0x363 JUMP JUMPDEST JUMPDEST DUP1 DUP3 GT ISZERO PUSH2 0x38A JUMPI PUSH1 0x0 DUP2 SSTORE PUSH1 0x1 ADD PUSH2 0x3C9 JUMP JUMPDEST PUSH1 0x0 PUSH1 0x20 DUP1 DUP4 MSTORE DUP4 MLOAD DUP1 DUP3 DUP6 ADD MSTORE PUSH1 0x0 JUMPDEST DUP2 DUP2 LT ISZERO PUSH2 0x40A JUMPI DUP6 DUP2 ADD DUP4 ADD MLOAD DUP6 DUP3 ADD PUSH1 0x40 ADD MSTORE DUP3 ADD PUSH2 0x3EE JUMP JUMPDEST DUP2 DUP2 GT ISZERO PUSH2 0x41C JUMPI PUSH1 0x0 PUSH1 0x40 DUP4 DUP8 ADD ADD MSTORE JUMPDEST POP PUSH1 0x1F ADD PUSH1 0x1F NOT AND SWAP3 SWAP1 SWAP3 ADD PUSH1 0x40 ADD SWAP4 SWAP3 POP POP POP JUMP JUMPDEST PUSH1 0x0 PUSH1 0x20 DUP3 DUP5 SUB SLT ISZERO PUSH2 0x444 JUMPI PUSH1 0x0 DUP1 REVERT JUMPDEST POP CALLDATALOAD SWAP2 SWAP1 POP JUMP JUMPDEST PUSH4 0x4E487B71 PUSH1 0xE0 SHL PUSH1 0x0 MSTORE PUSH1 0x41 PUSH1 0x4 MSTORE PUSH1 0x24 PUSH1 0x0 REVERT JUMPDEST PUSH1 0x40 MLOAD PUSH1 0x1F DUP3 ADD PUSH1 0x1F NOT AND DUP2 ADD PUSH8 0xFFFFFFFFFFFFFFFF DUP2 GT DUP3 DUP3 LT OR ISZERO PUSH2 0x48A JUMPI PUSH2 0x48A PUSH2 0x44B JUMP JUMPDEST PUSH1 0x40 MSTORE SWAP2 SWAP1 POP JUMP JUMPDEST PUSH1 0x0 DUP3 PUSH1 0x1F DUP4 ADD SLT PUSH2 0x4A3 JUMPI PUSH1 0x0 DUP1 REVERT JUMPDEST DUP2 CALLDATALOAD PUSH1 0x20 PUSH8 0xFFFFFFFFFFFFFFFF DUP3 GT ISZERO PUSH2 0x4BF JUMPI PUSH2 0x4BF PUSH2 0x44B JUMP JUMPDEST DUP2 PUSH1 0x5 SHL PUSH2 0x4CE DUP3 DUP3 ADD PUSH2 0x461 JUMP JUMPDEST SWAP3 DUP4 MSTORE DUP5 DUP2 ADD DUP3 ADD SWAP3 DUP3 DUP2 ADD SWAP1 DUP8 DUP6 GT ISZERO PUSH2 0x4E8 JUMPI PUSH1 0x0 DUP1 REVERT JUMPDEST DUP4 DUP8 ADD SWAP3 POP JUMPDEST DUP5 DUP4 LT ISZERO PUSH2 0x507 JUMPI DUP3 CALLDATALOAD DUP3 MSTORE SWAP2 DUP4 ADD SWAP2 SWAP1 DUP4 ADD SWAP1 PUSH2 0x4EE JUMP JUMPDEST SWAP8 SWAP7 POP POP POP POP POP POP POP JUMP JUMPDEST PUSH1 0x0 DUP1 PUSH1 0x0 PUSH1 0x60 DUP5 DUP7 SUB SLT ISZERO PUSH2 0x527 JUMPI PUSH1 0x0 DUP1 REVERT JUMPDEST DUP4 CALLDATALOAD SWAP3 POP PUSH1 0x20 DUP1 DUP6 ADD CALLDATALOAD PUSH8 0xFFFFFFFFFFFFFFFF DUP1 DUP3 GT ISZERO PUSH2 0x547 JUMPI PUSH1 0x0 DUP1 REVERT JUMPDEST DUP2 DUP8 ADD SWAP2 POP DUP8 PUSH1 0x1F DUP4 ADD SLT PUSH2 0x55B JUMPI PUSH1 0x0 DUP1 REVERT JUMPDEST DUP2 CALLDATALOAD DUP2 DUP2 GT ISZERO PUSH2 0x56D JUMPI PUSH2 0x56D PUSH2 0x44B JUMP JUMPDEST PUSH2 0x57F PUSH1 0x1F DUP3 ADD PUSH1 0x1F NOT AND DUP6 ADD PUSH2 0x461 JUMP JUMPDEST DUP2 DUP2 MSTORE DUP10 DUP6 DUP4 DUP7 ADD ADD GT ISZERO PUSH2 0x593 JUMPI PUSH1 0x0 DUP1 REVERT JUMPDEST DUP2 DUP6 DUP6 ADD DUP7 DUP4 ADD CALLDATACOPY PUSH1 0x0 SWAP2 DUP2 ADD SWAP1 SWAP5 ADD MSTORE SWAP2 SWAP4 POP PUSH1 0x40 DUP7 ADD CALLDATALOAD SWAP2 DUP1 DUP4 GT ISZERO PUSH2 0x5BA JUMPI PUSH1 0x0 DUP1 REVERT JUMPDEST POP POP PUSH2 0x5C8 DUP7 DUP3 DUP8 ADD PUSH2 0x492 JUMP JUMPDEST SWAP2 POP POP SWAP3 POP SWAP3 POP SWAP3 JUMP JUMPDEST PUSH1 0x1 DUP2 DUP2 SHR SWAP1 DUP3 AND DUP1 PUSH2 0x5E6 JUMPI PUSH1 0x7F DUP3 AND SWAP2 POP JUMPDEST PUSH1 0x20 DUP3 LT DUP2 EQ ISZERO PUSH2 0x607 JUMPI PUSH4 0x4E487B71 PUSH1 0xE0 SHL PUSH1 0x0 MSTORE PUSH1 0x22 PUSH1 0x4 MSTORE PUSH1 0x24 PUSH1 0x0 REVERT JUMPDEST POP SWAP2 SWAP1 POP JUMP INVALID LOG2 PUSH5 0x6970667358 0x22 SLT KECCAK256 PUSH20 0xDFDF8000F0BA47D3D995B6F16AA5084618A32AEE 0xC6 DUP13 0xDE 0xB7 0xCD EXP 0xFB SWAP1 CALLER INVALID 0x22 PUSH5 0x736F6C6343 STOP ADDMOD 0xC STOP CALLER ",
  "sha1": "200f7676dc6520dc03a6ec39670b0e3854b5d340",
  "source": "// SPDX-License-Identifier: MIT\n\npragma solidity ^0.8.0;\n\nabstract contract Impl {\n    function version() public pure virtual returns (string memory);\n}\n\ncontract DummyImplementation {\n    uint256 public value;\n    string public text;\n    uint256[] public values;\n\n    function initializeNonPayable() public {\n        value = 10;\n    }\n\n    function initializePayable() public payable {\n        value = 100;\n    }\n\n    function initializeNonPayableWithValue(uint256 _value) public {\n        value = _value;\n    }\n\n    function initializePayableWithValue(uint256 _value) public payable {\n        value = _value;\n    }\n\n    function initialize(\n        uint256 _value,\n        string memory _text,\n        uint256[] memory _values\n    ) public {\n        value = _value;\n        text = _text;\n        values = _values;\n    }\n\n    function get() public pure returns (bool) {\n        return true;\n    }\n\n    function version() public pure virtual returns (string memory) {\n        return \"V1\";\n    }\n\n    function reverts() public pure {\n        require(false, \"DummyImplementation reverted\");\n    }\n}\n\ncontract DummyImplementationV2 is DummyImplementation {\n    function migrate(uint256 newVal) public payable {\n        value = newVal;\n    }\n\n    function version() public pure override returns (string memory) {\n        return \"V2\";\n    }\n}\n",
  "sourcePath": "contracts/openzeppelin/contracts/mocks/DummyImplementation.sol",
  "type": "contract"
}