{
  "abi": [
    {
      "inputs": [],
      "name": "initialize",
      "outputs": [],
      "stateMutability": "nonpayable",
      "type": "function"
    },
    {
      "inputs": [
        {
          "internalType": "uint256",
          "name": "_number",
          "type": "uint256"
        }
      ],
      "name": "setValue",
      "outputs": [],
      "stateMutability": "nonpayable",
      "type": "function"
    }
  ],
  "bytecode": "608060405234801561001057600080fd5b50610159806100206000396000f3fe608060405234801561001057600080fd5b50600436106100365760003560e01c8063552410771461003b5780638129fc1c14610050575b600080fd5b61004e61004936600461010a565b600155565b005b61004e600054610100900460ff168061006c575060005460ff16155b6100d35760405162461bcd60e51b815260206004820152602e60248201527f496e697469616c697a61626c653a20636f6e747261637420697320616c72656160448201526d191e481a5b9a5d1a585b1a5e995960921b606482015260840160405180910390fd5b600054610100900460ff161580156100f5576000805461ffff19166101011790555b8015610107576000805461ff00191690555b50565b60006020828403121561011c57600080fd5b503591905056fea26469706673582212201df320a0e7969f8db4792aa2edfcf257a73dd3053a3ffab2e9493186feb2d91064736f6c634300080c0033",
  "bytecodeSha1": "0909c2b737b6689a32f4f78a0b2c98932108bab0",
  "compiler": {
    "evm_version": "istanbul",
    "optimizer": {
      "enabled": true,
      "runs": 200
    },
    "version": "0.8.12+commit.f00d7308"
  },
  "contractName": "Implementation1",
  "language": "Solidity",
  "natspec": {
    "kind": "dev",
    "methods": {},
    "version": 1
  },
  "opcodes": "PUSH1 0x80 PUSH1 0x40 MSTORE CALLVALUE DUP1 ISZERO PUSH2 0x10 JUMPI PUSH1 0x0 DUP1 REVERT JUMPDEST POP PUSH1 0x4 CALLDATASIZE LT PUSH2 0x36 JUMPI PUSH1 0x0 CALLDATALOAD PUSH1 0xE0 SHR DUP1 PUSH4 0x55241077 EQ PUSH2 0x3B JUMPI DUP1 PUSH4 0x8129FC1C EQ PUSH2 0x50 JUMPI JUMPDEST PUSH1 0x0 DUP1 REVERT JUMPDEST PUSH2 0x4E PUSH2 0x49 CALLDATASIZE PUSH1 0x4 PUSH2 0x10A JUMP JUMPDEST PUSH1 0x1 SSTORE JUMP JUMPDEST STOP JUMPDEST PUSH2 0x4E PUSH1 0x0 SLOAD PUSH2 0x100 SWAP1 DIV PUSH1 0xFF AND DUP1 PUSH2 0x6C JUMPI POP PUSH1 0x0 SLOAD PUSH1 0xFF AND ISZERO JUMPDEST PUSH2 0xD3 JUMPI PUSH1 0x40 MLOAD PUSH3 0x461BCD PUSH1 0xE5 SHL DUP2 MSTORE PUSH1 0x20 PUSH1 0x4 DUP3 ADD MSTORE PUSH1 0x2E PUSH1 0x24 DUP3 ADD MSTORE PUSH32 0x496E697469616C697A61626C653A20636F6E747261637420697320616C726561 PUSH1 0x44 DUP3 ADD MSTORE PUSH14 0x191E481A5B9A5D1A585B1A5E9959 PUSH1 0x92 SHL PUSH1 0x64 DUP3 ADD MSTORE PUSH1 0x84 ADD PUSH1 0x40 MLOAD DUP1 SWAP2 SUB SWAP1 REVERT JUMPDEST PUSH1 0x0 SLOAD PUSH2 0x100 SWAP1 DIV PUSH1 0xFF AND ISZERO DUP1 ISZERO PUSH2 0xF5 JUMPI PUSH1 0x0 DUP1 SLOAD PUSH2 0xFFFF NOT AND PUSH2 0x101 OR SWAP1 SSTORE JUMPDEST DUP1 ISZERO PUSH2 0x107 JUMPI PUSH1 0x0 DUP1 SLOAD PUSH2 0xFF00 NOT AND SWAP1 SSTORE JUMPDEST POP JUMP JUMPDEST PUSH1 0x0 PUSH1 0x20 DUP3 DUP5 SUB SLT ISZERO PUSH2 0x11C JUMPI PUSH1 0x0 DUP1 REVERT JUMPDEST POP CALLDATALOAD SWAP2 SWAP1 POP JUMP INVALID LOG2 PUSH5 0x6970667358 0x22 SLT KECCAK256 SAR RETURN KECCAK256 LOG0 0xE7 SWAP7 SWAP16 DUP14 0xB4 PUSH26 0x2AA2EDFCF257A73DD3053A3FFAB2E9493186FEB2D91064736F6C PUSH4 0x4300080C STOP CALLER ",
  "sha1": "f03d34b6140bedbdcf0e9429fa4e546e8d615ea7",
  "source": "// SPDX-License-Identifier: MIT\n\npragma solidity ^0.8.0;\n\nimport \"../proxy/utils/Initializable.sol\";\n\ncontract Implementation1 is Initializable {\n    uint256 internal _value;\n\n    function initialize() public initializer {}\n\n    function setValue(uint256 _number) public {\n        _value = _number;\n    }\n}\n\ncontract Implementation2 is Initializable {\n    uint256 internal _value;\n\n    function initialize() public initializer {}\n\n    function setValue(uint256 _number) public {\n        _value = _number;\n    }\n\n    function getValue() public view returns (uint256) {\n        return _value;\n    }\n}\n\ncontract Implementation3 is Initializable {\n    uint256 internal _value;\n\n    function initialize() public initializer {}\n\n    function setValue(uint256 _number) public {\n        _value = _number;\n    }\n\n    function getValue(uint256 _number) public view returns (uint256) {\n        return _value + _number;\n    }\n}\n\ncontract Implementation4 is Initializable {\n    uint256 internal _value;\n\n    function initialize() public initializer {}\n\n    function setValue(uint256 _number) public {\n        _value = _number;\n    }\n\n    function getValue() public view returns (uint256) {\n        return _value;\n    }\n\n    fallback() external {\n        _value = 1;\n    }\n}\n",
  "sourcePath": "contracts/openzeppelin/contracts/mocks/RegressionImplementation.sol",
  "type": "contract"
}