{
  "abi": [
    {
      "inputs": [],
      "name": "admin",
      "outputs": [
        {
          "internalType": "address",
          "name": "",
          "type": "address"
        }
      ],
      "stateMutability": "pure",
      "type": "function"
    },
    {
      "inputs": [],
      "name": "delegatedFunction",
      "outputs": [
        {
          "internalType": "bool",
          "name": "",
          "type": "bool"
        }
      ],
      "stateMutability": "pure",
      "type": "function"
    }
  ],
  "bytecode": "6080604052348015600f57600080fd5b5060928061001e6000396000f3fe6080604052348015600f57600080fd5b506004361060325760003560e01c8063abf8e0e7146037578063f851a44014604b575b600080fd5b604051600181526020015b60405180910390f35b60405163111111428152602001604256fea2646970667358221220223cfb90ac34fac51b72b6ddf91952a4f3c593f9c768bb8ce4eab61b3f91a5a364736f6c634300080c0033",
  "bytecodeSha1": "f980c65fa0f29cb40ae4279cdfa27087efc36dfa",
  "compiler": {
    "evm_version": "istanbul",
    "optimizer": {
      "enabled": true,
      "runs": 200
    },
    "version": "0.8.12+commit.f00d7308"
  },
  "contractName": "ClashingImplementation",
  "language": "Solidity",
  "natspec": {
    "details": "Implementation contract with an admin() function made to clash withTransparentUpgradeableProxy's to test correct functioning of theTransparent Proxy feature.",
    "kind": "dev",
    "methods": {},
    "version": 1
  },
  "opcodes": "PUSH1 0x80 PUSH1 0x40 MSTORE CALLVALUE DUP1 ISZERO PUSH1 0xF JUMPI PUSH1 0x0 DUP1 REVERT JUMPDEST POP PUSH1 0x4 CALLDATASIZE LT PUSH1 0x32 JUMPI PUSH1 0x0 CALLDATALOAD PUSH1 0xE0 SHR DUP1 PUSH4 0xABF8E0E7 EQ PUSH1 0x37 JUMPI DUP1 PUSH4 0xF851A440 EQ PUSH1 0x4B JUMPI JUMPDEST PUSH1 0x0 DUP1 REVERT JUMPDEST PUSH1 0x40 MLOAD PUSH1 0x1 DUP2 MSTORE PUSH1 0x20 ADD JUMPDEST PUSH1 0x40 MLOAD DUP1 SWAP2 SUB SWAP1 RETURN JUMPDEST PUSH1 0x40 MLOAD PUSH4 0x11111142 DUP2 MSTORE PUSH1 0x20 ADD PUSH1 0x42 JUMP INVALID LOG2 PUSH5 0x6970667358 0x22 SLT KECCAK256 0x22 EXTCODECOPY 0xFB SWAP1 0xAC CALLVALUE STATICCALL 0xC5 SHL PUSH19 0xB6DDF91952A4F3C593F9C768BB8CE4EAB61B3F SWAP2 0xA5 LOG3 PUSH5 0x736F6C6343 STOP ADDMOD 0xC STOP CALLER ",
  "sha1": "bed3d0a71887911e1ea94a5cf390705110e159a5",
  "source": "// SPDX-License-Identifier: MIT\n\npragma solidity ^0.8.0;\n\n/**\n * @dev Implementation contract with an admin() function made to clash with\n * @dev TransparentUpgradeableProxy's to test correct functioning of the\n * @dev Transparent Proxy feature.\n */\ncontract ClashingImplementation {\n    function admin() external pure returns (address) {\n        return 0x0000000000000000000000000000000011111142;\n    }\n\n    function delegatedFunction() external pure returns (bool) {\n        return true;\n    }\n}\n",
  "sourcePath": "contracts/openzeppelin/contracts/mocks/ClashingImplementation.sol",
  "type": "contract"
}