{
  "abi": [
    {
      "inputs": [
        {
          "internalType": "address payable",
          "name": "ethtoken",
          "type": "address"
        },
        {
          "internalType": "address payable",
          "name": "usdtoken",
          "type": "address"
        }
      ],
      "stateMutability": "nonpayable",
      "type": "constructor"
    },
    {
      "inputs": [],
      "name": "eth",
      "outputs": [
        {
          "internalType": "contract etherToken",
          "name": "",
          "type": "address"
        }
      ],
      "stateMutability": "view",
      "type": "function"
    },
    {
      "inputs": [
        {
          "internalType": "address",
          "name": "account",
          "type": "address"
        },
        {
          "internalType": "uint256",
          "name": "amount",
          "type": "uint256"
        }
      ],
      "name": "tradeEth",
      "outputs": [],
      "stateMutability": "nonpayable",
      "type": "function"
    },
    {
      "inputs": [
        {
          "internalType": "address",
          "name": "account",
          "type": "address"
        },
        {
          "internalType": "uint256",
          "name": "amount",
          "type": "uint256"
        }
      ],
      "name": "tradeUSD",
      "outputs": [],
      "stateMutability": "nonpayable",
      "type": "function"
    },
    {
      "inputs": [],
      "name": "usd",
      "outputs": [
        {
          "internalType": "contract usdToken",
          "name": "",
          "type": "address"
        }
      ],
      "stateMutability": "view",
      "type": "function"
    },
    {
      "stateMutability": "payable",
      "type": "receive"
    }
  ],
  "bytecode": "608060405234801561001057600080fd5b506040516103c53803806103c583398101604081905261002f9161013d565b600080546001600160a01b038481166001600160a01b0319928316811790935560018054918516919092161790556040516340c10f1960e01b8152306004820152620186a060248201526340c10f1990604401600060405180830381600087803b15801561009c57600080fd5b505af11580156100b0573d6000803e3d6000fd5b50506001546040516340c10f1960e01b815230600482015262030d4060248201526001600160a01b0390911692506340c10f199150604401600060405180830381600087803b15801561010257600080fd5b505af1158015610116573d6000803e3d6000fd5b505050505050610170565b80516001600160a01b038116811461013857600080fd5b919050565b6000806040838503121561015057600080fd5b61015983610121565b915061016760208401610121565b90509250929050565b6102468061017f6000396000f3fe6080604052600436106100435760003560e01c80631324b42d1461004f5780638c7c9e0c14610071578063bb405677146100ad578063d63a6ccd146100cd57600080fd5b3661004a57005b600080fd5b34801561005b57600080fd5b5061006f61006a3660046101af565b6100ed565b005b34801561007d57600080fd5b50600054610091906001600160a01b031681565b6040516001600160a01b03909116815260200160405180910390f35b3480156100b957600080fd5b5061006f6100c83660046101af565b610170565b3480156100d957600080fd5b50600154610091906001600160a01b031681565b6001546040516323b872dd60e01b81523060048201526001600160a01b03848116602483015260448201849052909116906323b872dd906064015b6020604051808303816000875af1158015610147573d6000803e3d6000fd5b505050506040513d601f19601f8201168201806040525081019061016b91906101e7565b505050565b6000546040516323b872dd60e01b81523060048201526001600160a01b03848116602483015260448201849052909116906323b872dd90606401610128565b600080604083850312156101c257600080fd5b82356001600160a01b03811681146101d957600080fd5b946020939093013593505050565b6000602082840312156101f957600080fd5b8151801515811461020957600080fd5b939250505056fea2646970667358221220cc5e5a49e6f3b27b527ac3ac766b723053031c4dd61ac2d38c63de9dd2d658e164736f6c634300080c0033",
  "bytecodeSha1": "5fe468b4e15bce0791c21b3d9b18d37015223e60",
  "compiler": {
    "evm_version": "istanbul",
    "optimizer": {
      "enabled": true,
      "runs": 200
    },
    "version": "0.8.12+commit.f00d7308"
  },
  "contractName": "Dex2",
  "language": "Solidity",
  "natspec": {
    "kind": "dev",
    "methods": {},
    "version": 1
  },
  "opcodes": "PUSH1 0x80 PUSH1 0x40 MSTORE PUSH1 0x4 CALLDATASIZE LT PUSH2 0x43 JUMPI PUSH1 0x0 CALLDATALOAD PUSH1 0xE0 SHR DUP1 PUSH4 0x1324B42D EQ PUSH2 0x4F JUMPI DUP1 PUSH4 0x8C7C9E0C EQ PUSH2 0x71 JUMPI DUP1 PUSH4 0xBB405677 EQ PUSH2 0xAD JUMPI DUP1 PUSH4 0xD63A6CCD EQ PUSH2 0xCD JUMPI PUSH1 0x0 DUP1 REVERT JUMPDEST CALLDATASIZE PUSH2 0x4A JUMPI STOP JUMPDEST PUSH1 0x0 DUP1 REVERT JUMPDEST CALLVALUE DUP1 ISZERO PUSH2 0x5B JUMPI PUSH1 0x0 DUP1 REVERT JUMPDEST POP PUSH2 0x6F PUSH2 0x6A CALLDATASIZE PUSH1 0x4 PUSH2 0x1AF JUMP JUMPDEST PUSH2 0xED JUMP JUMPDEST STOP JUMPDEST CALLVALUE DUP1 ISZERO PUSH2 0x7D JUMPI PUSH1 0x0 DUP1 REVERT JUMPDEST POP PUSH1 0x0 SLOAD PUSH2 0x91 SWAP1 PUSH1 0x1 PUSH1 0x1 PUSH1 0xA0 SHL SUB AND DUP2 JUMP JUMPDEST PUSH1 0x40 MLOAD PUSH1 0x1 PUSH1 0x1 PUSH1 0xA0 SHL SUB SWAP1 SWAP2 AND DUP2 MSTORE PUSH1 0x20 ADD PUSH1 0x40 MLOAD DUP1 SWAP2 SUB SWAP1 RETURN JUMPDEST CALLVALUE DUP1 ISZERO PUSH2 0xB9 JUMPI PUSH1 0x0 DUP1 REVERT JUMPDEST POP PUSH2 0x6F PUSH2 0xC8 CALLDATASIZE PUSH1 0x4 PUSH2 0x1AF JUMP JUMPDEST PUSH2 0x170 JUMP JUMPDEST CALLVALUE DUP1 ISZERO PUSH2 0xD9 JUMPI PUSH1 0x0 DUP1 REVERT JUMPDEST POP PUSH1 0x1 SLOAD PUSH2 0x91 SWAP1 PUSH1 0x1 PUSH1 0x1 PUSH1 0xA0 SHL SUB AND DUP2 JUMP JUMPDEST PUSH1 0x1 SLOAD PUSH1 0x40 MLOAD PUSH4 0x23B872DD PUSH1 0xE0 SHL DUP2 MSTORE ADDRESS PUSH1 0x4 DUP3 ADD MSTORE PUSH1 0x1 PUSH1 0x1 PUSH1 0xA0 SHL SUB DUP5 DUP2 AND PUSH1 0x24 DUP4 ADD MSTORE PUSH1 0x44 DUP3 ADD DUP5 SWAP1 MSTORE SWAP1 SWAP2 AND SWAP1 PUSH4 0x23B872DD SWAP1 PUSH1 0x64 ADD JUMPDEST PUSH1 0x20 PUSH1 0x40 MLOAD DUP1 DUP4 SUB DUP2 PUSH1 0x0 DUP8 GAS CALL ISZERO DUP1 ISZERO PUSH2 0x147 JUMPI RETURNDATASIZE PUSH1 0x0 DUP1 RETURNDATACOPY RETURNDATASIZE PUSH1 0x0 REVERT JUMPDEST POP POP POP POP PUSH1 0x40 MLOAD RETURNDATASIZE PUSH1 0x1F NOT PUSH1 0x1F DUP3 ADD AND DUP3 ADD DUP1 PUSH1 0x40 MSTORE POP DUP2 ADD SWAP1 PUSH2 0x16B SWAP2 SWAP1 PUSH2 0x1E7 JUMP JUMPDEST POP POP POP JUMP JUMPDEST PUSH1 0x0 SLOAD PUSH1 0x40 MLOAD PUSH4 0x23B872DD PUSH1 0xE0 SHL DUP2 MSTORE ADDRESS PUSH1 0x4 DUP3 ADD MSTORE PUSH1 0x1 PUSH1 0x1 PUSH1 0xA0 SHL SUB DUP5 DUP2 AND PUSH1 0x24 DUP4 ADD MSTORE PUSH1 0x44 DUP3 ADD DUP5 SWAP1 MSTORE SWAP1 SWAP2 AND SWAP1 PUSH4 0x23B872DD SWAP1 PUSH1 0x64 ADD PUSH2 0x128 JUMP JUMPDEST PUSH1 0x0 DUP1 PUSH1 0x40 DUP4 DUP6 SUB SLT ISZERO PUSH2 0x1C2 JUMPI PUSH1 0x0 DUP1 REVERT JUMPDEST DUP3 CALLDATALOAD PUSH1 0x1 PUSH1 0x1 PUSH1 0xA0 SHL SUB DUP2 AND DUP2 EQ PUSH2 0x1D9 JUMPI PUSH1 0x0 DUP1 REVERT JUMPDEST SWAP5 PUSH1 0x20 SWAP4 SWAP1 SWAP4 ADD CALLDATALOAD SWAP4 POP POP POP JUMP JUMPDEST PUSH1 0x0 PUSH1 0x20 DUP3 DUP5 SUB SLT ISZERO PUSH2 0x1F9 JUMPI PUSH1 0x0 DUP1 REVERT JUMPDEST DUP2 MLOAD DUP1 ISZERO ISZERO DUP2 EQ PUSH2 0x209 JUMPI PUSH1 0x0 DUP1 REVERT JUMPDEST SWAP4 SWAP3 POP POP POP JUMP INVALID LOG2 PUSH5 0x6970667358 0x22 SLT KECCAK256 0xCC 0x5E GAS 0x49 0xE6 RETURN 0xB2 PUSH28 0x527AC3AC766B723053031C4DD61AC2D38C63DE9DD2D658E164736F6C PUSH4 0x4300080C STOP CALLER ",
  "sha1": "70a8f788db15d593ed115300f83fe5728d36a711",
  "source": "pragma solidity ^0.8.0;\n\nimport \"./openzeppelin/contracts/token/ERC20/IERC20.sol\";\nimport \"./openzeppelin/contracts/token/ERC20/ERC20.sol\";\nimport \"./openzeppelin/contracts/utils/math/SafeMath.sol\";\nimport \"./eth.sol\";\nimport \"./usd.sol\";\n\ncontract Dex2{\nusing SafeMath for uint256;\n etherToken public eth;\n usdToken public usd;\n\nconstructor(address payable ethtoken,address payable usdtoken) public { \n    eth=etherToken(ethtoken);\n    usd=usdToken(usdtoken);\n    eth.mint(address(this),100000);\n    usd.mint(address(this),200000);\n\n}\n\nfunction tradeEth(address account, uint256 amount) external {\n        eth.transferFrom(address(this),account,amount);\n    }\n\nfunction tradeUSD(address account, uint256 amount) external {\n        usd.transferFrom(address(this),account,amount);\n    }\n\n\nreceive() external payable {}\n}",
  "sourcePath": "contracts/dex2.sol",
  "type": "contract"
}