{
  "abi": [
    {
      "inputs": [
        {
          "internalType": "address",
          "name": "trustedForwarder",
          "type": "address"
        }
      ],
      "stateMutability": "nonpayable",
      "type": "constructor"
    },
    {
      "anonymous": false,
      "inputs": [
        {
          "indexed": false,
          "internalType": "bytes",
          "name": "data",
          "type": "bytes"
        },
        {
          "indexed": false,
          "internalType": "uint256",
          "name": "integerValue",
          "type": "uint256"
        },
        {
          "indexed": false,
          "internalType": "string",
          "name": "stringValue",
          "type": "string"
        }
      ],
      "name": "Data",
      "type": "event"
    },
    {
      "anonymous": false,
      "inputs": [
        {
          "indexed": false,
          "internalType": "address",
          "name": "sender",
          "type": "address"
        }
      ],
      "name": "Sender",
      "type": "event"
    },
    {
      "inputs": [
        {
          "internalType": "address",
          "name": "forwarder",
          "type": "address"
        }
      ],
      "name": "isTrustedForwarder",
      "outputs": [
        {
          "internalType": "bool",
          "name": "",
          "type": "bool"
        }
      ],
      "stateMutability": "view",
      "type": "function"
    },
    {
      "inputs": [
        {
          "internalType": "uint256",
          "name": "integerValue",
          "type": "uint256"
        },
        {
          "internalType": "string",
          "name": "stringValue",
          "type": "string"
        }
      ],
      "name": "msgData",
      "outputs": [],
      "stateMutability": "nonpayable",
      "type": "function"
    },
    {
      "inputs": [],
      "name": "msgSender",
      "outputs": [],
      "stateMutability": "nonpayable",
      "type": "function"
    }
  ],
  "bytecode": "60a060405234801561001057600080fd5b5060405161045a38038061045a83398101604081905261002f91610040565b6001600160a01b0316608052610070565b60006020828403121561005257600080fd5b81516001600160a01b038116811461006957600080fd5b9392505050565b6080516103d061008a600039600060d301526103d06000f3fe608060405234801561001057600080fd5b50600436106100415760003560e01c8063376bf26214610046578063572b6c051461005b578063d737d0c714610082575b600080fd5b6100596100543660046101d8565b61008a565b005b61006e610069366004610293565b6100d1565b604051901515815260200160405180910390f35b610059610103565b7faf235354a0a47c91ee171961326335cb2d1a8e55b8a89859b0e61eb049e50ea06100b3610149565b84846040516100c594939291906102c3565b60405180910390a15050565b7f00000000000000000000000000000000000000000000000000000000000000006001600160a01b0390811691161490565b7fd6558c3ed910d959271054471fd1c326679d9fece99c5091b00ed89627cf2bfc61012c61015c565b6040516001600160a01b03909116815260200160405180910390a1565b36600061015461016b565b915091509091565b60006101666101a0565b905090565b366000610177336100d1565b15610198576000803661018b60148261034b565b9261015493929190610370565b600036610154565b60006101ab336100d1565b156101bd575060131936013560601c90565b503390565b634e487b7160e01b600052604160045260246000fd5b600080604083850312156101eb57600080fd5b82359150602083013567ffffffffffffffff8082111561020a57600080fd5b818501915085601f83011261021e57600080fd5b813581811115610230576102306101c2565b604051601f8201601f19908116603f01168101908382118183101715610258576102586101c2565b8160405282815288602084870101111561027157600080fd5b8260208601602083013760006020848301015280955050505050509250929050565b6000602082840312156102a557600080fd5b81356001600160a01b03811681146102bc57600080fd5b9392505050565b60608152836060820152838560808301376000608085830101526000601f1980601f8701168301602086818601526080858303016040860152855180608084015260005b818110156103235787810183015184820160a001528201610307565b8181111561033557600060a083860101525b50601f019092160160a001979650505050505050565b60008282101561036b57634e487b7160e01b600052601160045260246000fd5b500390565b6000808585111561038057600080fd5b8386111561038d57600080fd5b505082019391909203915056fea2646970667358221220bb0d34f6d22f12632aa7818c73f65addb9e4b1a3150bc890ce96b0bdecd484d664736f6c634300080c0033",
  "bytecodeSha1": "e74db1d3e73e24c44342b368105fe995f71cbdb9",
  "compiler": {
    "evm_version": "istanbul",
    "optimizer": {
      "enabled": true,
      "runs": 200
    },
    "version": "0.8.12+commit.f00d7308"
  },
  "contractName": "ERC2771ContextMock",
  "language": "Solidity",
  "natspec": {
    "kind": "dev",
    "methods": {},
    "version": 1
  },
  "opcodes": "PUSH1 0x80 PUSH1 0x40 MSTORE CALLVALUE DUP1 ISZERO PUSH2 0x10 JUMPI PUSH1 0x0 DUP1 REVERT JUMPDEST POP PUSH1 0x4 CALLDATASIZE LT PUSH2 0x41 JUMPI PUSH1 0x0 CALLDATALOAD PUSH1 0xE0 SHR DUP1 PUSH4 0x376BF262 EQ PUSH2 0x46 JUMPI DUP1 PUSH4 0x572B6C05 EQ PUSH2 0x5B JUMPI DUP1 PUSH4 0xD737D0C7 EQ PUSH2 0x82 JUMPI JUMPDEST PUSH1 0x0 DUP1 REVERT JUMPDEST PUSH2 0x59 PUSH2 0x54 CALLDATASIZE PUSH1 0x4 PUSH2 0x1D8 JUMP JUMPDEST PUSH2 0x8A JUMP JUMPDEST STOP JUMPDEST PUSH2 0x6E PUSH2 0x69 CALLDATASIZE PUSH1 0x4 PUSH2 0x293 JUMP JUMPDEST PUSH2 0xD1 JUMP JUMPDEST PUSH1 0x40 MLOAD SWAP1 ISZERO ISZERO DUP2 MSTORE PUSH1 0x20 ADD PUSH1 0x40 MLOAD DUP1 SWAP2 SUB SWAP1 RETURN JUMPDEST PUSH2 0x59 PUSH2 0x103 JUMP JUMPDEST PUSH32 0xAF235354A0A47C91EE171961326335CB2D1A8E55B8A89859B0E61EB049E50EA0 PUSH2 0xB3 PUSH2 0x149 JUMP JUMPDEST DUP5 DUP5 PUSH1 0x40 MLOAD PUSH2 0xC5 SWAP5 SWAP4 SWAP3 SWAP2 SWAP1 PUSH2 0x2C3 JUMP JUMPDEST PUSH1 0x40 MLOAD DUP1 SWAP2 SUB SWAP1 LOG1 POP POP JUMP JUMPDEST PUSH32 0x0 PUSH1 0x1 PUSH1 0x1 PUSH1 0xA0 SHL SUB SWAP1 DUP2 AND SWAP2 AND EQ SWAP1 JUMP JUMPDEST PUSH32 0xD6558C3ED910D959271054471FD1C326679D9FECE99C5091B00ED89627CF2BFC PUSH2 0x12C PUSH2 0x15C JUMP JUMPDEST PUSH1 0x40 MLOAD PUSH1 0x1 PUSH1 0x1 PUSH1 0xA0 SHL SUB SWAP1 SWAP2 AND DUP2 MSTORE PUSH1 0x20 ADD PUSH1 0x40 MLOAD DUP1 SWAP2 SUB SWAP1 LOG1 JUMP JUMPDEST CALLDATASIZE PUSH1 0x0 PUSH2 0x154 PUSH2 0x16B JUMP JUMPDEST SWAP2 POP SWAP2 POP SWAP1 SWAP2 JUMP JUMPDEST PUSH1 0x0 PUSH2 0x166 PUSH2 0x1A0 JUMP JUMPDEST SWAP1 POP SWAP1 JUMP JUMPDEST CALLDATASIZE PUSH1 0x0 PUSH2 0x177 CALLER PUSH2 0xD1 JUMP JUMPDEST ISZERO PUSH2 0x198 JUMPI PUSH1 0x0 DUP1 CALLDATASIZE PUSH2 0x18B PUSH1 0x14 DUP3 PUSH2 0x34B JUMP JUMPDEST SWAP3 PUSH2 0x154 SWAP4 SWAP3 SWAP2 SWAP1 PUSH2 0x370 JUMP JUMPDEST PUSH1 0x0 CALLDATASIZE PUSH2 0x154 JUMP JUMPDEST PUSH1 0x0 PUSH2 0x1AB CALLER PUSH2 0xD1 JUMP JUMPDEST ISZERO PUSH2 0x1BD JUMPI POP PUSH1 0x13 NOT CALLDATASIZE ADD CALLDATALOAD PUSH1 0x60 SHR SWAP1 JUMP JUMPDEST POP CALLER SWAP1 JUMP JUMPDEST PUSH4 0x4E487B71 PUSH1 0xE0 SHL PUSH1 0x0 MSTORE PUSH1 0x41 PUSH1 0x4 MSTORE PUSH1 0x24 PUSH1 0x0 REVERT JUMPDEST PUSH1 0x0 DUP1 PUSH1 0x40 DUP4 DUP6 SUB SLT ISZERO PUSH2 0x1EB JUMPI PUSH1 0x0 DUP1 REVERT JUMPDEST DUP3 CALLDATALOAD SWAP2 POP PUSH1 0x20 DUP4 ADD CALLDATALOAD PUSH8 0xFFFFFFFFFFFFFFFF DUP1 DUP3 GT ISZERO PUSH2 0x20A JUMPI PUSH1 0x0 DUP1 REVERT JUMPDEST DUP2 DUP6 ADD SWAP2 POP DUP6 PUSH1 0x1F DUP4 ADD SLT PUSH2 0x21E JUMPI PUSH1 0x0 DUP1 REVERT JUMPDEST DUP2 CALLDATALOAD DUP2 DUP2 GT ISZERO PUSH2 0x230 JUMPI PUSH2 0x230 PUSH2 0x1C2 JUMP JUMPDEST PUSH1 0x40 MLOAD PUSH1 0x1F DUP3 ADD PUSH1 0x1F NOT SWAP1 DUP2 AND PUSH1 0x3F ADD AND DUP2 ADD SWAP1 DUP4 DUP3 GT DUP2 DUP4 LT OR ISZERO PUSH2 0x258 JUMPI PUSH2 0x258 PUSH2 0x1C2 JUMP JUMPDEST DUP2 PUSH1 0x40 MSTORE DUP3 DUP2 MSTORE DUP9 PUSH1 0x20 DUP5 DUP8 ADD ADD GT ISZERO PUSH2 0x271 JUMPI PUSH1 0x0 DUP1 REVERT JUMPDEST DUP3 PUSH1 0x20 DUP7 ADD PUSH1 0x20 DUP4 ADD CALLDATACOPY PUSH1 0x0 PUSH1 0x20 DUP5 DUP4 ADD ADD MSTORE DUP1 SWAP6 POP POP POP POP POP POP SWAP3 POP SWAP3 SWAP1 POP JUMP JUMPDEST PUSH1 0x0 PUSH1 0x20 DUP3 DUP5 SUB SLT ISZERO PUSH2 0x2A5 JUMPI PUSH1 0x0 DUP1 REVERT JUMPDEST DUP2 CALLDATALOAD PUSH1 0x1 PUSH1 0x1 PUSH1 0xA0 SHL SUB DUP2 AND DUP2 EQ PUSH2 0x2BC JUMPI PUSH1 0x0 DUP1 REVERT JUMPDEST SWAP4 SWAP3 POP POP POP JUMP JUMPDEST PUSH1 0x60 DUP2 MSTORE DUP4 PUSH1 0x60 DUP3 ADD MSTORE DUP4 DUP6 PUSH1 0x80 DUP4 ADD CALLDATACOPY PUSH1 0x0 PUSH1 0x80 DUP6 DUP4 ADD ADD MSTORE PUSH1 0x0 PUSH1 0x1F NOT DUP1 PUSH1 0x1F DUP8 ADD AND DUP4 ADD PUSH1 0x20 DUP7 DUP2 DUP7 ADD MSTORE PUSH1 0x80 DUP6 DUP4 SUB ADD PUSH1 0x40 DUP7 ADD MSTORE DUP6 MLOAD DUP1 PUSH1 0x80 DUP5 ADD MSTORE PUSH1 0x0 JUMPDEST DUP2 DUP2 LT ISZERO PUSH2 0x323 JUMPI DUP8 DUP2 ADD DUP4 ADD MLOAD DUP5 DUP3 ADD PUSH1 0xA0 ADD MSTORE DUP3 ADD PUSH2 0x307 JUMP JUMPDEST DUP2 DUP2 GT ISZERO PUSH2 0x335 JUMPI PUSH1 0x0 PUSH1 0xA0 DUP4 DUP7 ADD ADD MSTORE JUMPDEST POP PUSH1 0x1F ADD SWAP1 SWAP3 AND ADD PUSH1 0xA0 ADD SWAP8 SWAP7 POP POP POP POP POP POP POP JUMP JUMPDEST PUSH1 0x0 DUP3 DUP3 LT ISZERO PUSH2 0x36B JUMPI PUSH4 0x4E487B71 PUSH1 0xE0 SHL PUSH1 0x0 MSTORE PUSH1 0x11 PUSH1 0x4 MSTORE PUSH1 0x24 PUSH1 0x0 REVERT JUMPDEST POP SUB SWAP1 JUMP JUMPDEST PUSH1 0x0 DUP1 DUP6 DUP6 GT ISZERO PUSH2 0x380 JUMPI PUSH1 0x0 DUP1 REVERT JUMPDEST DUP4 DUP7 GT ISZERO PUSH2 0x38D JUMPI PUSH1 0x0 DUP1 REVERT JUMPDEST POP POP DUP3 ADD SWAP4 SWAP2 SWAP1 SWAP3 SUB SWAP2 POP JUMP INVALID LOG2 PUSH5 0x6970667358 0x22 SLT KECCAK256 0xBB 0xD CALLVALUE 0xF6 0xD2 0x2F SLT PUSH4 0x2AA7818C PUSH20 0xF65ADDB9E4B1A3150BC890CE96B0BDECD484D664 PUSH20 0x6F6C634300080C00330000000000000000000000 ",
  "sha1": "d540f89b1d08c0386ae2c3b74806b58ef6969317",
  "source": "// SPDX-License-Identifier: MIT\n\npragma solidity ^0.8.0;\n\nimport \"./ContextMock.sol\";\nimport \"../metatx/ERC2771Context.sol\";\n\n// By inheriting from ERC2771Context, Context's internal functions are overridden automatically\ncontract ERC2771ContextMock is ContextMock, ERC2771Context {\n    constructor(address trustedForwarder) ERC2771Context(trustedForwarder) {}\n\n    function _msgSender() internal view virtual override(Context, ERC2771Context) returns (address) {\n        return ERC2771Context._msgSender();\n    }\n\n    function _msgData() internal view virtual override(Context, ERC2771Context) returns (bytes calldata) {\n        return ERC2771Context._msgData();\n    }\n}\n",
  "sourcePath": "contracts/openzeppelin/contracts/mocks/ERC2771ContextMock.sol",
  "type": "contract"
}