{
  "abi": [
    {
      "inputs": [
        {
          "internalType": "contract IERC20",
          "name": "token",
          "type": "address"
        }
      ],
      "stateMutability": "nonpayable",
      "type": "constructor"
    },
    {
      "inputs": [],
      "name": "allowance",
      "outputs": [
        {
          "internalType": "uint256",
          "name": "",
          "type": "uint256"
        }
      ],
      "stateMutability": "view",
      "type": "function"
    },
    {
      "inputs": [
        {
          "internalType": "uint256",
          "name": "amount",
          "type": "uint256"
        }
      ],
      "name": "approve",
      "outputs": [],
      "stateMutability": "nonpayable",
      "type": "function"
    },
    {
      "inputs": [
        {
          "internalType": "uint256",
          "name": "amount",
          "type": "uint256"
        }
      ],
      "name": "decreaseAllowance",
      "outputs": [],
      "stateMutability": "nonpayable",
      "type": "function"
    },
    {
      "inputs": [
        {
          "internalType": "uint256",
          "name": "amount",
          "type": "uint256"
        }
      ],
      "name": "increaseAllowance",
      "outputs": [],
      "stateMutability": "nonpayable",
      "type": "function"
    },
    {
      "inputs": [
        {
          "internalType": "uint256",
          "name": "allowance_",
          "type": "uint256"
        }
      ],
      "name": "setAllowance",
      "outputs": [],
      "stateMutability": "nonpayable",
      "type": "function"
    },
    {
      "inputs": [],
      "name": "transfer",
      "outputs": [],
      "stateMutability": "nonpayable",
      "type": "function"
    },
    {
      "inputs": [],
      "name": "transferFrom",
      "outputs": [],
      "stateMutability": "nonpayable",
      "type": "function"
    }
  ],
  "bytecode": "608060405234801561001057600080fd5b506040516109e53803806109e583398101604081905261002f91610054565b600080546001600160a01b0319166001600160a01b0392909216919091179055610084565b60006020828403121561006657600080fd5b81516001600160a01b038116811461007d57600080fd5b9392505050565b610952806100936000396000f3fe608060405234801561001057600080fd5b506004361061007d5760003560e01c8063811c34d31161005b578063811c34d3146100bd5780638a4068dd146100c5578063b759f954146100cd578063de242ff4146100e057600080fd5b806310bad4cf1461008257806311e330b2146100975780633ba93f26146100aa575b600080fd5b610095610090366004610827565b6100fa565b005b6100956100a5366004610827565b610117565b6100956100b8366004610827565b610131565b610095610192565b6100956101af565b6100956100db366004610827565b6101c9565b6100e86101e3565b60405190815260200160405180910390f35b60008054610114916001600160a01b03909116908361025d565b50565b60008054610114916001600160a01b0390911690836103a1565b600054604051631dd49f9360e11b8152600481018390526001600160a01b0390911690633ba93f2690602401600060405180830381600087803b15801561017757600080fd5b505af115801561018b573d6000803e3d6000fd5b5050505050565b600080546101ad916001600160a01b03909116908080610459565b565b600080546101ad916001600160a01b039091169080610491565b60008054610114916001600160a01b0390911690836104c6565b60008054604051636eb1769f60e11b815260048101839052602481018390526001600160a01b039091169063dd62ed3e90604401602060405180830381865afa158015610234573d6000803e3d6000fd5b505050506040513d601f19601f820116820180604052508101906102589190610840565b905090565b604051636eb1769f60e11b81523060048201526001600160a01b0383811660248301526000919085169063dd62ed3e90604401602060405180830381865afa1580156102ad573d6000803e3d6000fd5b505050506040513d601f19601f820116820180604052508101906102d19190610840565b90508181101561033a5760405162461bcd60e51b815260206004820152602960248201527f5361666545524332303a2064656372656173656420616c6c6f77616e63652062604482015268656c6f77207a65726f60b81b60648201526084015b60405180910390fd5b6040516001600160a01b0384166024820152828203604482018190529061018b90869063095ea7b360e01b906064015b60408051601f198184030181529190526020810180516001600160e01b03166001600160e01b0319909316929092179091526105db565b604051636eb1769f60e11b81523060048201526001600160a01b038381166024830152600091839186169063dd62ed3e90604401602060405180830381865afa1580156103f2573d6000803e3d6000fd5b505050506040513d601f19601f820116820180604052508101906104169190610840565b6104209190610859565b6040516001600160a01b03851660248201526044810182905290915061045390859063095ea7b360e01b9060640161036a565b50505050565b6040516001600160a01b03808516602483015283166044820152606481018290526104539085906323b872dd60e01b9060840161036a565b6040516001600160a01b0383166024820152604481018290526104c190849063a9059cbb60e01b9060640161036a565b505050565b8015806105405750604051636eb1769f60e11b81523060048201526001600160a01b03838116602483015284169063dd62ed3e90604401602060405180830381865afa15801561051a573d6000803e3d6000fd5b505050506040513d601f19601f8201168201806040525081019061053e9190610840565b155b6105ab5760405162461bcd60e51b815260206004820152603660248201527f5361666545524332303a20617070726f76652066726f6d206e6f6e2d7a65726f60448201527520746f206e6f6e2d7a65726f20616c6c6f77616e636560501b6064820152608401610331565b6040516001600160a01b0383166024820152604481018290526104c190849063095ea7b360e01b9060640161036a565b6000610630826040518060400160405280602081526020017f5361666545524332303a206c6f772d6c6576656c2063616c6c206661696c6564815250856001600160a01b03166106ad9092919063ffffffff16565b8051909150156104c1578080602001905181019061064e919061087f565b6104c15760405162461bcd60e51b815260206004820152602a60248201527f5361666545524332303a204552433230206f7065726174696f6e20646964206e6044820152691bdd081cdd58d8d9595960b21b6064820152608401610331565b60606106bc84846000856106c6565b90505b9392505050565b6060824710156107275760405162461bcd60e51b815260206004820152602660248201527f416464726573733a20696e73756666696369656e742062616c616e636520666f6044820152651c8818d85b1b60d21b6064820152608401610331565b843b6107755760405162461bcd60e51b815260206004820152601d60248201527f416464726573733a2063616c6c20746f206e6f6e2d636f6e74726163740000006044820152606401610331565b600080866001600160a01b0316858760405161079191906108cd565b60006040518083038185875af1925050503d80600081146107ce576040519150601f19603f3d011682016040523d82523d6000602084013e6107d3565b606091505b50915091506107e38282866107ee565b979650505050505050565b606083156107fd5750816106bf565b82511561080d5782518084602001fd5b8160405162461bcd60e51b815260040161033191906108e9565b60006020828403121561083957600080fd5b5035919050565b60006020828403121561085257600080fd5b5051919050565b6000821982111561087a57634e487b7160e01b600052601160045260246000fd5b500190565b60006020828403121561089157600080fd5b815180151581146106bf57600080fd5b60005b838110156108bc5781810151838201526020016108a4565b838111156104535750506000910152565b600082516108df8184602087016108a1565b9190910192915050565b60208152600082518060208401526109088160408501602087016108a1565b601f01601f1916919091016040019291505056fea2646970667358221220e38e7b28bdef35526c6739996e07fd6a2502bbe4309e2b26043b1a35fc5da59e64736f6c634300080c0033",
  "bytecodeSha1": "87d50c924f4e39ccf7d162e9da16dfdf29d871bd",
  "compiler": {
    "evm_version": "istanbul",
    "optimizer": {
      "enabled": true,
      "runs": 200
    },
    "version": "0.8.12+commit.f00d7308"
  },
  "contractName": "SafeERC20Wrapper",
  "language": "Solidity",
  "natspec": {
    "kind": "dev",
    "methods": {},
    "version": 1
  },
  "opcodes": "PUSH1 0x80 PUSH1 0x40 MSTORE CALLVALUE DUP1 ISZERO PUSH2 0x10 JUMPI PUSH1 0x0 DUP1 REVERT JUMPDEST POP PUSH1 0x4 CALLDATASIZE LT PUSH2 0x7D JUMPI PUSH1 0x0 CALLDATALOAD PUSH1 0xE0 SHR DUP1 PUSH4 0x811C34D3 GT PUSH2 0x5B JUMPI DUP1 PUSH4 0x811C34D3 EQ PUSH2 0xBD JUMPI DUP1 PUSH4 0x8A4068DD EQ PUSH2 0xC5 JUMPI DUP1 PUSH4 0xB759F954 EQ PUSH2 0xCD JUMPI DUP1 PUSH4 0xDE242FF4 EQ PUSH2 0xE0 JUMPI PUSH1 0x0 DUP1 REVERT JUMPDEST DUP1 PUSH4 0x10BAD4CF EQ PUSH2 0x82 JUMPI DUP1 PUSH4 0x11E330B2 EQ PUSH2 0x97 JUMPI DUP1 PUSH4 0x3BA93F26 EQ PUSH2 0xAA JUMPI JUMPDEST PUSH1 0x0 DUP1 REVERT JUMPDEST PUSH2 0x95 PUSH2 0x90 CALLDATASIZE PUSH1 0x4 PUSH2 0x827 JUMP JUMPDEST PUSH2 0xFA JUMP JUMPDEST STOP JUMPDEST PUSH2 0x95 PUSH2 0xA5 CALLDATASIZE PUSH1 0x4 PUSH2 0x827 JUMP JUMPDEST PUSH2 0x117 JUMP JUMPDEST PUSH2 0x95 PUSH2 0xB8 CALLDATASIZE PUSH1 0x4 PUSH2 0x827 JUMP JUMPDEST PUSH2 0x131 JUMP JUMPDEST PUSH2 0x95 PUSH2 0x192 JUMP JUMPDEST PUSH2 0x95 PUSH2 0x1AF JUMP JUMPDEST PUSH2 0x95 PUSH2 0xDB CALLDATASIZE PUSH1 0x4 PUSH2 0x827 JUMP JUMPDEST PUSH2 0x1C9 JUMP JUMPDEST PUSH2 0xE8 PUSH2 0x1E3 JUMP JUMPDEST PUSH1 0x40 MLOAD SWAP1 DUP2 MSTORE PUSH1 0x20 ADD PUSH1 0x40 MLOAD DUP1 SWAP2 SUB SWAP1 RETURN JUMPDEST PUSH1 0x0 DUP1 SLOAD PUSH2 0x114 SWAP2 PUSH1 0x1 PUSH1 0x1 PUSH1 0xA0 SHL SUB SWAP1 SWAP2 AND SWAP1 DUP4 PUSH2 0x25D JUMP JUMPDEST POP JUMP JUMPDEST PUSH1 0x0 DUP1 SLOAD PUSH2 0x114 SWAP2 PUSH1 0x1 PUSH1 0x1 PUSH1 0xA0 SHL SUB SWAP1 SWAP2 AND SWAP1 DUP4 PUSH2 0x3A1 JUMP JUMPDEST PUSH1 0x0 SLOAD PUSH1 0x40 MLOAD PUSH4 0x1DD49F93 PUSH1 0xE1 SHL DUP2 MSTORE PUSH1 0x4 DUP2 ADD DUP4 SWAP1 MSTORE PUSH1 0x1 PUSH1 0x1 PUSH1 0xA0 SHL SUB SWAP1 SWAP2 AND SWAP1 PUSH4 0x3BA93F26 SWAP1 PUSH1 0x24 ADD PUSH1 0x0 PUSH1 0x40 MLOAD DUP1 DUP4 SUB DUP2 PUSH1 0x0 DUP8 DUP1 EXTCODESIZE ISZERO DUP1 ISZERO PUSH2 0x177 JUMPI PUSH1 0x0 DUP1 REVERT JUMPDEST POP GAS CALL ISZERO DUP1 ISZERO PUSH2 0x18B JUMPI RETURNDATASIZE PUSH1 0x0 DUP1 RETURNDATACOPY RETURNDATASIZE PUSH1 0x0 REVERT JUMPDEST POP POP POP POP POP JUMP JUMPDEST PUSH1 0x0 DUP1 SLOAD PUSH2 0x1AD SWAP2 PUSH1 0x1 PUSH1 0x1 PUSH1 0xA0 SHL SUB SWAP1 SWAP2 AND SWAP1 DUP1 DUP1 PUSH2 0x459 JUMP JUMPDEST JUMP JUMPDEST PUSH1 0x0 DUP1 SLOAD PUSH2 0x1AD SWAP2 PUSH1 0x1 PUSH1 0x1 PUSH1 0xA0 SHL SUB SWAP1 SWAP2 AND SWAP1 DUP1 PUSH2 0x491 JUMP JUMPDEST PUSH1 0x0 DUP1 SLOAD PUSH2 0x114 SWAP2 PUSH1 0x1 PUSH1 0x1 PUSH1 0xA0 SHL SUB SWAP1 SWAP2 AND SWAP1 DUP4 PUSH2 0x4C6 JUMP JUMPDEST PUSH1 0x0 DUP1 SLOAD PUSH1 0x40 MLOAD PUSH4 0x6EB1769F PUSH1 0xE1 SHL DUP2 MSTORE PUSH1 0x4 DUP2 ADD DUP4 SWAP1 MSTORE PUSH1 0x24 DUP2 ADD DUP4 SWAP1 MSTORE PUSH1 0x1 PUSH1 0x1 PUSH1 0xA0 SHL SUB SWAP1 SWAP2 AND SWAP1 PUSH4 0xDD62ED3E SWAP1 PUSH1 0x44 ADD PUSH1 0x20 PUSH1 0x40 MLOAD DUP1 DUP4 SUB DUP2 DUP7 GAS STATICCALL ISZERO DUP1 ISZERO PUSH2 0x234 JUMPI RETURNDATASIZE PUSH1 0x0 DUP1 RETURNDATACOPY RETURNDATASIZE PUSH1 0x0 REVERT JUMPDEST POP POP POP POP PUSH1 0x40 MLOAD RETURNDATASIZE PUSH1 0x1F NOT PUSH1 0x1F DUP3 ADD AND DUP3 ADD DUP1 PUSH1 0x40 MSTORE POP DUP2 ADD SWAP1 PUSH2 0x258 SWAP2 SWAP1 PUSH2 0x840 JUMP JUMPDEST SWAP1 POP SWAP1 JUMP JUMPDEST PUSH1 0x40 MLOAD PUSH4 0x6EB1769F PUSH1 0xE1 SHL DUP2 MSTORE ADDRESS PUSH1 0x4 DUP3 ADD MSTORE PUSH1 0x1 PUSH1 0x1 PUSH1 0xA0 SHL SUB DUP4 DUP2 AND PUSH1 0x24 DUP4 ADD MSTORE PUSH1 0x0 SWAP2 SWAP1 DUP6 AND SWAP1 PUSH4 0xDD62ED3E SWAP1 PUSH1 0x44 ADD PUSH1 0x20 PUSH1 0x40 MLOAD DUP1 DUP4 SUB DUP2 DUP7 GAS STATICCALL ISZERO DUP1 ISZERO PUSH2 0x2AD JUMPI RETURNDATASIZE PUSH1 0x0 DUP1 RETURNDATACOPY RETURNDATASIZE PUSH1 0x0 REVERT JUMPDEST POP POP POP POP PUSH1 0x40 MLOAD RETURNDATASIZE PUSH1 0x1F NOT PUSH1 0x1F DUP3 ADD AND DUP3 ADD DUP1 PUSH1 0x40 MSTORE POP DUP2 ADD SWAP1 PUSH2 0x2D1 SWAP2 SWAP1 PUSH2 0x840 JUMP JUMPDEST SWAP1 POP DUP2 DUP2 LT ISZERO PUSH2 0x33A JUMPI PUSH1 0x40 MLOAD PUSH3 0x461BCD PUSH1 0xE5 SHL DUP2 MSTORE PUSH1 0x20 PUSH1 0x4 DUP3 ADD MSTORE PUSH1 0x29 PUSH1 0x24 DUP3 ADD MSTORE PUSH32 0x5361666545524332303A2064656372656173656420616C6C6F77616E63652062 PUSH1 0x44 DUP3 ADD MSTORE PUSH9 0x656C6F77207A65726F PUSH1 0xB8 SHL PUSH1 0x64 DUP3 ADD MSTORE PUSH1 0x84 ADD JUMPDEST PUSH1 0x40 MLOAD DUP1 SWAP2 SUB SWAP1 REVERT JUMPDEST PUSH1 0x40 MLOAD PUSH1 0x1 PUSH1 0x1 PUSH1 0xA0 SHL SUB DUP5 AND PUSH1 0x24 DUP3 ADD MSTORE DUP3 DUP3 SUB PUSH1 0x44 DUP3 ADD DUP2 SWAP1 MSTORE SWAP1 PUSH2 0x18B SWAP1 DUP7 SWAP1 PUSH4 0x95EA7B3 PUSH1 0xE0 SHL SWAP1 PUSH1 0x64 ADD JUMPDEST PUSH1 0x40 DUP1 MLOAD PUSH1 0x1F NOT DUP2 DUP5 SUB ADD DUP2 MSTORE SWAP2 SWAP1 MSTORE PUSH1 0x20 DUP2 ADD DUP1 MLOAD PUSH1 0x1 PUSH1 0x1 PUSH1 0xE0 SHL SUB AND PUSH1 0x1 PUSH1 0x1 PUSH1 0xE0 SHL SUB NOT SWAP1 SWAP4 AND SWAP3 SWAP1 SWAP3 OR SWAP1 SWAP2 MSTORE PUSH2 0x5DB JUMP JUMPDEST PUSH1 0x40 MLOAD PUSH4 0x6EB1769F PUSH1 0xE1 SHL DUP2 MSTORE ADDRESS PUSH1 0x4 DUP3 ADD MSTORE PUSH1 0x1 PUSH1 0x1 PUSH1 0xA0 SHL SUB DUP4 DUP2 AND PUSH1 0x24 DUP4 ADD MSTORE PUSH1 0x0 SWAP2 DUP4 SWAP2 DUP7 AND SWAP1 PUSH4 0xDD62ED3E SWAP1 PUSH1 0x44 ADD PUSH1 0x20 PUSH1 0x40 MLOAD DUP1 DUP4 SUB DUP2 DUP7 GAS STATICCALL ISZERO DUP1 ISZERO PUSH2 0x3F2 JUMPI RETURNDATASIZE PUSH1 0x0 DUP1 RETURNDATACOPY RETURNDATASIZE PUSH1 0x0 REVERT JUMPDEST POP POP POP POP PUSH1 0x40 MLOAD RETURNDATASIZE PUSH1 0x1F NOT PUSH1 0x1F DUP3 ADD AND DUP3 ADD DUP1 PUSH1 0x40 MSTORE POP DUP2 ADD SWAP1 PUSH2 0x416 SWAP2 SWAP1 PUSH2 0x840 JUMP JUMPDEST PUSH2 0x420 SWAP2 SWAP1 PUSH2 0x859 JUMP JUMPDEST PUSH1 0x40 MLOAD PUSH1 0x1 PUSH1 0x1 PUSH1 0xA0 SHL SUB DUP6 AND PUSH1 0x24 DUP3 ADD MSTORE PUSH1 0x44 DUP2 ADD DUP3 SWAP1 MSTORE SWAP1 SWAP2 POP PUSH2 0x453 SWAP1 DUP6 SWAP1 PUSH4 0x95EA7B3 PUSH1 0xE0 SHL SWAP1 PUSH1 0x64 ADD PUSH2 0x36A JUMP JUMPDEST POP POP POP POP JUMP JUMPDEST PUSH1 0x40 MLOAD PUSH1 0x1 PUSH1 0x1 PUSH1 0xA0 SHL SUB DUP1 DUP6 AND PUSH1 0x24 DUP4 ADD MSTORE DUP4 AND PUSH1 0x44 DUP3 ADD MSTORE PUSH1 0x64 DUP2 ADD DUP3 SWAP1 MSTORE PUSH2 0x453 SWAP1 DUP6 SWAP1 PUSH4 0x23B872DD PUSH1 0xE0 SHL SWAP1 PUSH1 0x84 ADD PUSH2 0x36A JUMP JUMPDEST PUSH1 0x40 MLOAD PUSH1 0x1 PUSH1 0x1 PUSH1 0xA0 SHL SUB DUP4 AND PUSH1 0x24 DUP3 ADD MSTORE PUSH1 0x44 DUP2 ADD DUP3 SWAP1 MSTORE PUSH2 0x4C1 SWAP1 DUP5 SWAP1 PUSH4 0xA9059CBB PUSH1 0xE0 SHL SWAP1 PUSH1 0x64 ADD PUSH2 0x36A JUMP JUMPDEST POP POP POP JUMP JUMPDEST DUP1 ISZERO DUP1 PUSH2 0x540 JUMPI POP PUSH1 0x40 MLOAD PUSH4 0x6EB1769F PUSH1 0xE1 SHL DUP2 MSTORE ADDRESS PUSH1 0x4 DUP3 ADD MSTORE PUSH1 0x1 PUSH1 0x1 PUSH1 0xA0 SHL SUB DUP4 DUP2 AND PUSH1 0x24 DUP4 ADD MSTORE DUP5 AND SWAP1 PUSH4 0xDD62ED3E SWAP1 PUSH1 0x44 ADD PUSH1 0x20 PUSH1 0x40 MLOAD DUP1 DUP4 SUB DUP2 DUP7 GAS STATICCALL ISZERO DUP1 ISZERO PUSH2 0x51A JUMPI RETURNDATASIZE PUSH1 0x0 DUP1 RETURNDATACOPY RETURNDATASIZE PUSH1 0x0 REVERT JUMPDEST POP POP POP POP PUSH1 0x40 MLOAD RETURNDATASIZE PUSH1 0x1F NOT PUSH1 0x1F DUP3 ADD AND DUP3 ADD DUP1 PUSH1 0x40 MSTORE POP DUP2 ADD SWAP1 PUSH2 0x53E SWAP2 SWAP1 PUSH2 0x840 JUMP JUMPDEST ISZERO JUMPDEST PUSH2 0x5AB JUMPI PUSH1 0x40 MLOAD PUSH3 0x461BCD PUSH1 0xE5 SHL DUP2 MSTORE PUSH1 0x20 PUSH1 0x4 DUP3 ADD MSTORE PUSH1 0x36 PUSH1 0x24 DUP3 ADD MSTORE PUSH32 0x5361666545524332303A20617070726F76652066726F6D206E6F6E2D7A65726F PUSH1 0x44 DUP3 ADD MSTORE PUSH22 0x20746F206E6F6E2D7A65726F20616C6C6F77616E6365 PUSH1 0x50 SHL PUSH1 0x64 DUP3 ADD MSTORE PUSH1 0x84 ADD PUSH2 0x331 JUMP JUMPDEST PUSH1 0x40 MLOAD PUSH1 0x1 PUSH1 0x1 PUSH1 0xA0 SHL SUB DUP4 AND PUSH1 0x24 DUP3 ADD MSTORE PUSH1 0x44 DUP2 ADD DUP3 SWAP1 MSTORE PUSH2 0x4C1 SWAP1 DUP5 SWAP1 PUSH4 0x95EA7B3 PUSH1 0xE0 SHL SWAP1 PUSH1 0x64 ADD PUSH2 0x36A JUMP JUMPDEST PUSH1 0x0 PUSH2 0x630 DUP3 PUSH1 0x40 MLOAD DUP1 PUSH1 0x40 ADD PUSH1 0x40 MSTORE DUP1 PUSH1 0x20 DUP2 MSTORE PUSH1 0x20 ADD PUSH32 0x5361666545524332303A206C6F772D6C6576656C2063616C6C206661696C6564 DUP2 MSTORE POP DUP6 PUSH1 0x1 PUSH1 0x1 PUSH1 0xA0 SHL SUB AND PUSH2 0x6AD SWAP1 SWAP3 SWAP2 SWAP1 PUSH4 0xFFFFFFFF AND JUMP JUMPDEST DUP1 MLOAD SWAP1 SWAP2 POP ISZERO PUSH2 0x4C1 JUMPI DUP1 DUP1 PUSH1 0x20 ADD SWAP1 MLOAD DUP2 ADD SWAP1 PUSH2 0x64E SWAP2 SWAP1 PUSH2 0x87F JUMP JUMPDEST PUSH2 0x4C1 JUMPI PUSH1 0x40 MLOAD PUSH3 0x461BCD PUSH1 0xE5 SHL DUP2 MSTORE PUSH1 0x20 PUSH1 0x4 DUP3 ADD MSTORE PUSH1 0x2A PUSH1 0x24 DUP3 ADD MSTORE PUSH32 0x5361666545524332303A204552433230206F7065726174696F6E20646964206E PUSH1 0x44 DUP3 ADD MSTORE PUSH10 0x1BDD081CDD58D8D95959 PUSH1 0xB2 SHL PUSH1 0x64 DUP3 ADD MSTORE PUSH1 0x84 ADD PUSH2 0x331 JUMP JUMPDEST PUSH1 0x60 PUSH2 0x6BC DUP5 DUP5 PUSH1 0x0 DUP6 PUSH2 0x6C6 JUMP JUMPDEST SWAP1 POP JUMPDEST SWAP4 SWAP3 POP POP POP JUMP JUMPDEST PUSH1 0x60 DUP3 SELFBALANCE LT ISZERO PUSH2 0x727 JUMPI PUSH1 0x40 MLOAD PUSH3 0x461BCD PUSH1 0xE5 SHL DUP2 MSTORE PUSH1 0x20 PUSH1 0x4 DUP3 ADD MSTORE PUSH1 0x26 PUSH1 0x24 DUP3 ADD MSTORE PUSH32 0x416464726573733A20696E73756666696369656E742062616C616E636520666F PUSH1 0x44 DUP3 ADD MSTORE PUSH6 0x1C8818D85B1B PUSH1 0xD2 SHL PUSH1 0x64 DUP3 ADD MSTORE PUSH1 0x84 ADD PUSH2 0x331 JUMP JUMPDEST DUP5 EXTCODESIZE PUSH2 0x775 JUMPI PUSH1 0x40 MLOAD PUSH3 0x461BCD PUSH1 0xE5 SHL DUP2 MSTORE PUSH1 0x20 PUSH1 0x4 DUP3 ADD MSTORE PUSH1 0x1D PUSH1 0x24 DUP3 ADD MSTORE PUSH32 0x416464726573733A2063616C6C20746F206E6F6E2D636F6E7472616374000000 PUSH1 0x44 DUP3 ADD MSTORE PUSH1 0x64 ADD PUSH2 0x331 JUMP JUMPDEST PUSH1 0x0 DUP1 DUP7 PUSH1 0x1 PUSH1 0x1 PUSH1 0xA0 SHL SUB AND DUP6 DUP8 PUSH1 0x40 MLOAD PUSH2 0x791 SWAP2 SWAP1 PUSH2 0x8CD JUMP JUMPDEST PUSH1 0x0 PUSH1 0x40 MLOAD DUP1 DUP4 SUB DUP2 DUP6 DUP8 GAS CALL SWAP3 POP POP POP RETURNDATASIZE DUP1 PUSH1 0x0 DUP2 EQ PUSH2 0x7CE JUMPI PUSH1 0x40 MLOAD SWAP2 POP PUSH1 0x1F NOT PUSH1 0x3F RETURNDATASIZE ADD AND DUP3 ADD PUSH1 0x40 MSTORE RETURNDATASIZE DUP3 MSTORE RETURNDATASIZE PUSH1 0x0 PUSH1 0x20 DUP5 ADD RETURNDATACOPY PUSH2 0x7D3 JUMP JUMPDEST PUSH1 0x60 SWAP2 POP JUMPDEST POP SWAP2 POP SWAP2 POP PUSH2 0x7E3 DUP3 DUP3 DUP7 PUSH2 0x7EE JUMP JUMPDEST SWAP8 SWAP7 POP POP POP POP POP POP POP JUMP JUMPDEST PUSH1 0x60 DUP4 ISZERO PUSH2 0x7FD JUMPI POP DUP2 PUSH2 0x6BF JUMP JUMPDEST DUP3 MLOAD ISZERO PUSH2 0x80D JUMPI DUP3 MLOAD DUP1 DUP5 PUSH1 0x20 ADD REVERT JUMPDEST DUP2 PUSH1 0x40 MLOAD PUSH3 0x461BCD PUSH1 0xE5 SHL DUP2 MSTORE PUSH1 0x4 ADD PUSH2 0x331 SWAP2 SWAP1 PUSH2 0x8E9 JUMP JUMPDEST PUSH1 0x0 PUSH1 0x20 DUP3 DUP5 SUB SLT ISZERO PUSH2 0x839 JUMPI PUSH1 0x0 DUP1 REVERT JUMPDEST POP CALLDATALOAD SWAP2 SWAP1 POP JUMP JUMPDEST PUSH1 0x0 PUSH1 0x20 DUP3 DUP5 SUB SLT ISZERO PUSH2 0x852 JUMPI PUSH1 0x0 DUP1 REVERT JUMPDEST POP MLOAD SWAP2 SWAP1 POP JUMP JUMPDEST PUSH1 0x0 DUP3 NOT DUP3 GT ISZERO PUSH2 0x87A JUMPI PUSH4 0x4E487B71 PUSH1 0xE0 SHL PUSH1 0x0 MSTORE PUSH1 0x11 PUSH1 0x4 MSTORE PUSH1 0x24 PUSH1 0x0 REVERT JUMPDEST POP ADD SWAP1 JUMP JUMPDEST PUSH1 0x0 PUSH1 0x20 DUP3 DUP5 SUB SLT ISZERO PUSH2 0x891 JUMPI PUSH1 0x0 DUP1 REVERT JUMPDEST DUP2 MLOAD DUP1 ISZERO ISZERO DUP2 EQ PUSH2 0x6BF JUMPI PUSH1 0x0 DUP1 REVERT JUMPDEST PUSH1 0x0 JUMPDEST DUP4 DUP2 LT ISZERO PUSH2 0x8BC JUMPI DUP2 DUP2 ADD MLOAD DUP4 DUP3 ADD MSTORE PUSH1 0x20 ADD PUSH2 0x8A4 JUMP JUMPDEST DUP4 DUP2 GT ISZERO PUSH2 0x453 JUMPI POP POP PUSH1 0x0 SWAP2 ADD MSTORE JUMP JUMPDEST PUSH1 0x0 DUP3 MLOAD PUSH2 0x8DF DUP2 DUP5 PUSH1 0x20 DUP8 ADD PUSH2 0x8A1 JUMP JUMPDEST SWAP2 SWAP1 SWAP2 ADD SWAP3 SWAP2 POP POP JUMP JUMPDEST PUSH1 0x20 DUP2 MSTORE PUSH1 0x0 DUP3 MLOAD DUP1 PUSH1 0x20 DUP5 ADD MSTORE PUSH2 0x908 DUP2 PUSH1 0x40 DUP6 ADD PUSH1 0x20 DUP8 ADD PUSH2 0x8A1 JUMP JUMPDEST PUSH1 0x1F ADD PUSH1 0x1F NOT AND SWAP2 SWAP1 SWAP2 ADD PUSH1 0x40 ADD SWAP3 SWAP2 POP POP JUMP INVALID LOG2 PUSH5 0x6970667358 0x22 SLT KECCAK256 0xE3 DUP15 PUSH28 0x28BDEF35526C6739996E07FD6A2502BBE4309E2B26043B1A35FC5DA5 SWAP15 PUSH5 0x736F6C6343 STOP ADDMOD 0xC STOP CALLER ",
  "sha1": "c6c25089a8d5cdbe6490f9ef0e8fec75741d5e59",
  "source": "// SPDX-License-Identifier: MIT\n\npragma solidity ^0.8.0;\n\nimport \"../utils/Context.sol\";\nimport \"../token/ERC20/IERC20.sol\";\nimport \"../token/ERC20/utils/SafeERC20.sol\";\n\ncontract ERC20ReturnFalseMock is Context {\n    uint256 private _allowance;\n\n    // IERC20's functions are not pure, but these mock implementations are: to prevent Solidity from issuing warnings,\n    // we write to a dummy state variable.\n    uint256 private _dummy;\n\n    function transfer(address, uint256) public returns (bool) {\n        _dummy = 0;\n        return false;\n    }\n\n    function transferFrom(\n        address,\n        address,\n        uint256\n    ) public returns (bool) {\n        _dummy = 0;\n        return false;\n    }\n\n    function approve(address, uint256) public returns (bool) {\n        _dummy = 0;\n        return false;\n    }\n\n    function allowance(address, address) public view returns (uint256) {\n        require(_dummy == 0); // Duummy read from a state variable so that the function is view\n        return 0;\n    }\n}\n\ncontract ERC20ReturnTrueMock is Context {\n    mapping(address => uint256) private _allowances;\n\n    // IERC20's functions are not pure, but these mock implementations are: to prevent Solidity from issuing warnings,\n    // we write to a dummy state variable.\n    uint256 private _dummy;\n\n    function transfer(address, uint256) public returns (bool) {\n        _dummy = 0;\n        return true;\n    }\n\n    function transferFrom(\n        address,\n        address,\n        uint256\n    ) public returns (bool) {\n        _dummy = 0;\n        return true;\n    }\n\n    function approve(address, uint256) public returns (bool) {\n        _dummy = 0;\n        return true;\n    }\n\n    function setAllowance(uint256 allowance_) public {\n        _allowances[_msgSender()] = allowance_;\n    }\n\n    function allowance(address owner, address) public view returns (uint256) {\n        return _allowances[owner];\n    }\n}\n\ncontract ERC20NoReturnMock is Context {\n    mapping(address => uint256) private _allowances;\n\n    // IERC20's functions are not pure, but these mock implementations are: to prevent Solidity from issuing warnings,\n    // we write to a dummy state variable.\n    uint256 private _dummy;\n\n    function transfer(address, uint256) public {\n        _dummy = 0;\n    }\n\n    function transferFrom(\n        address,\n        address,\n        uint256\n    ) public {\n        _dummy = 0;\n    }\n\n    function approve(address, uint256) public {\n        _dummy = 0;\n    }\n\n    function setAllowance(uint256 allowance_) public {\n        _allowances[_msgSender()] = allowance_;\n    }\n\n    function allowance(address owner, address) public view returns (uint256) {\n        return _allowances[owner];\n    }\n}\n\ncontract SafeERC20Wrapper is Context {\n    using SafeERC20 for IERC20;\n\n    IERC20 private _token;\n\n    constructor(IERC20 token) {\n        _token = token;\n    }\n\n    function transfer() public {\n        _token.safeTransfer(address(0), 0);\n    }\n\n    function transferFrom() public {\n        _token.safeTransferFrom(address(0), address(0), 0);\n    }\n\n    function approve(uint256 amount) public {\n        _token.safeApprove(address(0), amount);\n    }\n\n    function increaseAllowance(uint256 amount) public {\n        _token.safeIncreaseAllowance(address(0), amount);\n    }\n\n    function decreaseAllowance(uint256 amount) public {\n        _token.safeDecreaseAllowance(address(0), amount);\n    }\n\n    function setAllowance(uint256 allowance_) public {\n        ERC20ReturnTrueMock(address(_token)).setAllowance(allowance_);\n    }\n\n    function allowance() public view returns (uint256) {\n        return _token.allowance(address(0), address(0));\n    }\n}\n",
  "sourcePath": "contracts/openzeppelin/contracts/mocks/SafeERC20Helper.sol",
  "type": "contract"
}