{
  "abi": [
    {
      "inputs": [
        {
          "internalType": "bytes32",
          "name": "slot",
          "type": "bytes32"
        }
      ],
      "name": "getAddress",
      "outputs": [
        {
          "internalType": "address",
          "name": "",
          "type": "address"
        }
      ],
      "stateMutability": "view",
      "type": "function"
    },
    {
      "inputs": [
        {
          "internalType": "bytes32",
          "name": "slot",
          "type": "bytes32"
        }
      ],
      "name": "getBoolean",
      "outputs": [
        {
          "internalType": "bool",
          "name": "",
          "type": "bool"
        }
      ],
      "stateMutability": "view",
      "type": "function"
    },
    {
      "inputs": [
        {
          "internalType": "bytes32",
          "name": "slot",
          "type": "bytes32"
        }
      ],
      "name": "getBytes32",
      "outputs": [
        {
          "internalType": "bytes32",
          "name": "",
          "type": "bytes32"
        }
      ],
      "stateMutability": "view",
      "type": "function"
    },
    {
      "inputs": [
        {
          "internalType": "bytes32",
          "name": "slot",
          "type": "bytes32"
        }
      ],
      "name": "getUint256",
      "outputs": [
        {
          "internalType": "uint256",
          "name": "",
          "type": "uint256"
        }
      ],
      "stateMutability": "view",
      "type": "function"
    },
    {
      "inputs": [
        {
          "internalType": "bytes32",
          "name": "slot",
          "type": "bytes32"
        },
        {
          "internalType": "address",
          "name": "value",
          "type": "address"
        }
      ],
      "name": "setAddress",
      "outputs": [],
      "stateMutability": "nonpayable",
      "type": "function"
    },
    {
      "inputs": [
        {
          "internalType": "bytes32",
          "name": "slot",
          "type": "bytes32"
        },
        {
          "internalType": "bool",
          "name": "value",
          "type": "bool"
        }
      ],
      "name": "setBoolean",
      "outputs": [],
      "stateMutability": "nonpayable",
      "type": "function"
    },
    {
      "inputs": [
        {
          "internalType": "bytes32",
          "name": "slot",
          "type": "bytes32"
        },
        {
          "internalType": "bytes32",
          "name": "value",
          "type": "bytes32"
        }
      ],
      "name": "setBytes32",
      "outputs": [],
      "stateMutability": "nonpayable",
      "type": "function"
    },
    {
      "inputs": [
        {
          "internalType": "bytes32",
          "name": "slot",
          "type": "bytes32"
        },
        {
          "internalType": "uint256",
          "name": "value",
          "type": "uint256"
        }
      ],
      "name": "setUint256",
      "outputs": [],
      "stateMutability": "nonpayable",
      "type": "function"
    }
  ],
  "bytecode": "608060405234801561001057600080fd5b5061023c806100206000396000f3fe608060405234801561001057600080fd5b50600436106100885760003560e01c80634f3029c21161005b5780634f3029c21461010a578063a6ed563e146100c5578063ca446dd91461011e578063f8715b3e1461014957600080fd5b806321f8a7211461008d57806333598b00146100c55780633848207a146100e55780634e91db081461010a575b600080fd5b6100a861009b366004610165565b546001600160a01b031690565b6040516001600160a01b0390911681526020015b60405180910390f35b6100d76100d3366004610165565b5490565b6040519081526020016100bc565b6100fa6100f3366004610165565b5460ff1690565b60405190151581526020016100bc565b61011c61011836600461017e565b9055565b005b61011c61012c3660046101a0565b81546001600160a01b0319166001600160a01b0391909116179055565b61011c6101573660046101dc565b815460ff1916901515179055565b60006020828403121561017757600080fd5b5035919050565b6000806040838503121561019157600080fd5b50508035926020909101359150565b600080604083850312156101b357600080fd5b8235915060208301356001600160a01b03811681146101d157600080fd5b809150509250929050565b600080604083850312156101ef57600080fd5b82359150602083013580151581146101d157600080fdfea2646970667358221220dd4a2892aebb38c2f7af0c08fb70ffd73e93f7a7fc1a769d7aa0bb95533fa8b964736f6c634300080c0033",
  "bytecodeSha1": "89ab7cfd66556058b6f047c285b05102fe64b5d1",
  "compiler": {
    "evm_version": "istanbul",
    "optimizer": {
      "enabled": true,
      "runs": 200
    },
    "version": "0.8.12+commit.f00d7308"
  },
  "contractName": "StorageSlotMock",
  "language": "Solidity",
  "natspec": {
    "kind": "dev",
    "methods": {},
    "version": 1
  },
  "opcodes": "PUSH1 0x80 PUSH1 0x40 MSTORE CALLVALUE DUP1 ISZERO PUSH2 0x10 JUMPI PUSH1 0x0 DUP1 REVERT JUMPDEST POP PUSH1 0x4 CALLDATASIZE LT PUSH2 0x88 JUMPI PUSH1 0x0 CALLDATALOAD PUSH1 0xE0 SHR DUP1 PUSH4 0x4F3029C2 GT PUSH2 0x5B JUMPI DUP1 PUSH4 0x4F3029C2 EQ PUSH2 0x10A JUMPI DUP1 PUSH4 0xA6ED563E EQ PUSH2 0xC5 JUMPI DUP1 PUSH4 0xCA446DD9 EQ PUSH2 0x11E JUMPI DUP1 PUSH4 0xF8715B3E EQ PUSH2 0x149 JUMPI PUSH1 0x0 DUP1 REVERT JUMPDEST DUP1 PUSH4 0x21F8A721 EQ PUSH2 0x8D JUMPI DUP1 PUSH4 0x33598B00 EQ PUSH2 0xC5 JUMPI DUP1 PUSH4 0x3848207A EQ PUSH2 0xE5 JUMPI DUP1 PUSH4 0x4E91DB08 EQ PUSH2 0x10A JUMPI JUMPDEST PUSH1 0x0 DUP1 REVERT JUMPDEST PUSH2 0xA8 PUSH2 0x9B CALLDATASIZE PUSH1 0x4 PUSH2 0x165 JUMP JUMPDEST SLOAD PUSH1 0x1 PUSH1 0x1 PUSH1 0xA0 SHL SUB AND SWAP1 JUMP JUMPDEST PUSH1 0x40 MLOAD PUSH1 0x1 PUSH1 0x1 PUSH1 0xA0 SHL SUB SWAP1 SWAP2 AND DUP2 MSTORE PUSH1 0x20 ADD JUMPDEST PUSH1 0x40 MLOAD DUP1 SWAP2 SUB SWAP1 RETURN JUMPDEST PUSH2 0xD7 PUSH2 0xD3 CALLDATASIZE PUSH1 0x4 PUSH2 0x165 JUMP JUMPDEST SLOAD SWAP1 JUMP JUMPDEST PUSH1 0x40 MLOAD SWAP1 DUP2 MSTORE PUSH1 0x20 ADD PUSH2 0xBC JUMP JUMPDEST PUSH2 0xFA PUSH2 0xF3 CALLDATASIZE PUSH1 0x4 PUSH2 0x165 JUMP JUMPDEST SLOAD PUSH1 0xFF AND SWAP1 JUMP JUMPDEST PUSH1 0x40 MLOAD SWAP1 ISZERO ISZERO DUP2 MSTORE PUSH1 0x20 ADD PUSH2 0xBC JUMP JUMPDEST PUSH2 0x11C PUSH2 0x118 CALLDATASIZE PUSH1 0x4 PUSH2 0x17E JUMP JUMPDEST SWAP1 SSTORE JUMP JUMPDEST STOP JUMPDEST PUSH2 0x11C PUSH2 0x12C CALLDATASIZE PUSH1 0x4 PUSH2 0x1A0 JUMP JUMPDEST DUP2 SLOAD PUSH1 0x1 PUSH1 0x1 PUSH1 0xA0 SHL SUB NOT AND PUSH1 0x1 PUSH1 0x1 PUSH1 0xA0 SHL SUB SWAP2 SWAP1 SWAP2 AND OR SWAP1 SSTORE JUMP JUMPDEST PUSH2 0x11C PUSH2 0x157 CALLDATASIZE PUSH1 0x4 PUSH2 0x1DC JUMP JUMPDEST DUP2 SLOAD PUSH1 0xFF NOT AND SWAP1 ISZERO ISZERO OR SWAP1 SSTORE JUMP JUMPDEST PUSH1 0x0 PUSH1 0x20 DUP3 DUP5 SUB SLT ISZERO PUSH2 0x177 JUMPI PUSH1 0x0 DUP1 REVERT JUMPDEST POP CALLDATALOAD SWAP2 SWAP1 POP JUMP JUMPDEST PUSH1 0x0 DUP1 PUSH1 0x40 DUP4 DUP6 SUB SLT ISZERO PUSH2 0x191 JUMPI PUSH1 0x0 DUP1 REVERT JUMPDEST POP POP DUP1 CALLDATALOAD SWAP3 PUSH1 0x20 SWAP1 SWAP2 ADD CALLDATALOAD SWAP2 POP JUMP JUMPDEST PUSH1 0x0 DUP1 PUSH1 0x40 DUP4 DUP6 SUB SLT ISZERO PUSH2 0x1B3 JUMPI PUSH1 0x0 DUP1 REVERT JUMPDEST DUP3 CALLDATALOAD SWAP2 POP PUSH1 0x20 DUP4 ADD CALLDATALOAD PUSH1 0x1 PUSH1 0x1 PUSH1 0xA0 SHL SUB DUP2 AND DUP2 EQ PUSH2 0x1D1 JUMPI PUSH1 0x0 DUP1 REVERT JUMPDEST DUP1 SWAP2 POP POP SWAP3 POP SWAP3 SWAP1 POP JUMP JUMPDEST PUSH1 0x0 DUP1 PUSH1 0x40 DUP4 DUP6 SUB SLT ISZERO PUSH2 0x1EF JUMPI PUSH1 0x0 DUP1 REVERT JUMPDEST DUP3 CALLDATALOAD SWAP2 POP PUSH1 0x20 DUP4 ADD CALLDATALOAD DUP1 ISZERO ISZERO DUP2 EQ PUSH2 0x1D1 JUMPI PUSH1 0x0 DUP1 REVERT INVALID LOG2 PUSH5 0x6970667358 0x22 SLT KECCAK256 0xDD 0x4A 0x28 SWAP3 0xAE 0xBB CODESIZE 0xC2 0xF7 0xAF 0xC ADDMOD 0xFB PUSH17 0xFFD73E93F7A7FC1A769D7AA0BB95533FA8 0xB9 PUSH5 0x736F6C6343 STOP ADDMOD 0xC STOP CALLER ",
  "sha1": "19ec90a18103f6653bc74e2330205a6278c99d52",
  "source": "// SPDX-License-Identifier: MIT\n\npragma solidity ^0.8.0;\n\nimport \"../utils/StorageSlot.sol\";\n\ncontract StorageSlotMock {\n    using StorageSlot for bytes32;\n\n    function setBoolean(bytes32 slot, bool value) public {\n        slot.getBooleanSlot().value = value;\n    }\n\n    function setAddress(bytes32 slot, address value) public {\n        slot.getAddressSlot().value = value;\n    }\n\n    function setBytes32(bytes32 slot, bytes32 value) public {\n        slot.getBytes32Slot().value = value;\n    }\n\n    function setUint256(bytes32 slot, uint256 value) public {\n        slot.getUint256Slot().value = value;\n    }\n\n    function getBoolean(bytes32 slot) public view returns (bool) {\n        return slot.getBooleanSlot().value;\n    }\n\n    function getAddress(bytes32 slot) public view returns (address) {\n        return slot.getAddressSlot().value;\n    }\n\n    function getBytes32(bytes32 slot) public view returns (bytes32) {\n        return slot.getBytes32Slot().value;\n    }\n\n    function getUint256(bytes32 slot) public view returns (uint256) {\n        return slot.getUint256Slot().value;\n    }\n}\n",
  "sourcePath": "contracts/openzeppelin/contracts/mocks/StorageSlotMock.sol",
  "type": "contract"
}