{
  "abi": [
    {
      "anonymous": false,
      "inputs": [],
      "name": "BeforeTokenTransfer",
      "type": "event"
    },
    {
      "anonymous": false,
      "inputs": [
        {
          "indexed": false,
          "internalType": "address",
          "name": "operator",
          "type": "address"
        },
        {
          "indexed": false,
          "internalType": "address",
          "name": "from",
          "type": "address"
        },
        {
          "indexed": false,
          "internalType": "address",
          "name": "to",
          "type": "address"
        },
        {
          "indexed": false,
          "internalType": "uint256",
          "name": "amount",
          "type": "uint256"
        },
        {
          "indexed": false,
          "internalType": "bytes",
          "name": "data",
          "type": "bytes"
        },
        {
          "indexed": false,
          "internalType": "bytes",
          "name": "operatorData",
          "type": "bytes"
        },
        {
          "indexed": false,
          "internalType": "address",
          "name": "token",
          "type": "address"
        },
        {
          "indexed": false,
          "internalType": "uint256",
          "name": "fromBalance",
          "type": "uint256"
        },
        {
          "indexed": false,
          "internalType": "uint256",
          "name": "toBalance",
          "type": "uint256"
        }
      ],
      "name": "TokensReceivedCalled",
      "type": "event"
    },
    {
      "anonymous": false,
      "inputs": [
        {
          "indexed": false,
          "internalType": "address",
          "name": "operator",
          "type": "address"
        },
        {
          "indexed": false,
          "internalType": "address",
          "name": "from",
          "type": "address"
        },
        {
          "indexed": false,
          "internalType": "address",
          "name": "to",
          "type": "address"
        },
        {
          "indexed": false,
          "internalType": "uint256",
          "name": "amount",
          "type": "uint256"
        },
        {
          "indexed": false,
          "internalType": "bytes",
          "name": "data",
          "type": "bytes"
        },
        {
          "indexed": false,
          "internalType": "bytes",
          "name": "operatorData",
          "type": "bytes"
        },
        {
          "indexed": false,
          "internalType": "address",
          "name": "token",
          "type": "address"
        },
        {
          "indexed": false,
          "internalType": "uint256",
          "name": "fromBalance",
          "type": "uint256"
        },
        {
          "indexed": false,
          "internalType": "uint256",
          "name": "toBalance",
          "type": "uint256"
        }
      ],
      "name": "TokensToSendCalled",
      "type": "event"
    },
    {
      "inputs": [
        {
          "internalType": "contract IERC777",
          "name": "token",
          "type": "address"
        },
        {
          "internalType": "uint256",
          "name": "amount",
          "type": "uint256"
        },
        {
          "internalType": "bytes",
          "name": "data",
          "type": "bytes"
        }
      ],
      "name": "burn",
      "outputs": [],
      "stateMutability": "nonpayable",
      "type": "function"
    },
    {
      "inputs": [
        {
          "internalType": "bytes32",
          "name": "interfaceHash",
          "type": "bytes32"
        },
        {
          "internalType": "address",
          "name": "account",
          "type": "address"
        }
      ],
      "name": "canImplementInterfaceForAddress",
      "outputs": [
        {
          "internalType": "bytes32",
          "name": "",
          "type": "bytes32"
        }
      ],
      "stateMutability": "view",
      "type": "function"
    },
    {
      "inputs": [
        {
          "internalType": "address",
          "name": "account",
          "type": "address"
        }
      ],
      "name": "recipientFor",
      "outputs": [],
      "stateMutability": "nonpayable",
      "type": "function"
    },
    {
      "inputs": [
        {
          "internalType": "address",
          "name": "recipient",
          "type": "address"
        }
      ],
      "name": "registerRecipient",
      "outputs": [],
      "stateMutability": "nonpayable",
      "type": "function"
    },
    {
      "inputs": [
        {
          "internalType": "address",
          "name": "sender",
          "type": "address"
        }
      ],
      "name": "registerSender",
      "outputs": [],
      "stateMutability": "nonpayable",
      "type": "function"
    },
    {
      "inputs": [
        {
          "internalType": "contract IERC777",
          "name": "token",
          "type": "address"
        },
        {
          "internalType": "address",
          "name": "to",
          "type": "address"
        },
        {
          "internalType": "uint256",
          "name": "amount",
          "type": "uint256"
        },
        {
          "internalType": "bytes",
          "name": "data",
          "type": "bytes"
        }
      ],
      "name": "send",
      "outputs": [],
      "stateMutability": "nonpayable",
      "type": "function"
    },
    {
      "inputs": [
        {
          "internalType": "address",
          "name": "account",
          "type": "address"
        }
      ],
      "name": "senderFor",
      "outputs": [],
      "stateMutability": "nonpayable",
      "type": "function"
    },
    {
      "inputs": [
        {
          "internalType": "bool",
          "name": "shouldRevert",
          "type": "bool"
        }
      ],
      "name": "setShouldRevertReceive",
      "outputs": [],
      "stateMutability": "nonpayable",
      "type": "function"
    },
    {
      "inputs": [
        {
          "internalType": "bool",
          "name": "shouldRevert",
          "type": "bool"
        }
      ],
      "name": "setShouldRevertSend",
      "outputs": [],
      "stateMutability": "nonpayable",
      "type": "function"
    },
    {
      "inputs": [
        {
          "internalType": "address",
          "name": "operator",
          "type": "address"
        },
        {
          "internalType": "address",
          "name": "from",
          "type": "address"
        },
        {
          "internalType": "address",
          "name": "to",
          "type": "address"
        },
        {
          "internalType": "uint256",
          "name": "amount",
          "type": "uint256"
        },
        {
          "internalType": "bytes",
          "name": "userData",
          "type": "bytes"
        },
        {
          "internalType": "bytes",
          "name": "operatorData",
          "type": "bytes"
        }
      ],
      "name": "tokensReceived",
      "outputs": [],
      "stateMutability": "nonpayable",
      "type": "function"
    },
    {
      "inputs": [
        {
          "internalType": "address",
          "name": "operator",
          "type": "address"
        },
        {
          "internalType": "address",
          "name": "from",
          "type": "address"
        },
        {
          "internalType": "address",
          "name": "to",
          "type": "address"
        },
        {
          "internalType": "uint256",
          "name": "amount",
          "type": "uint256"
        },
        {
          "internalType": "bytes",
          "name": "userData",
          "type": "bytes"
        },
        {
          "internalType": "bytes",
          "name": "operatorData",
          "type": "bytes"
        }
      ],
      "name": "tokensToSend",
      "outputs": [],
      "stateMutability": "nonpayable",
      "type": "function"
    }
  ],
  "bytecode": "60806040526001805462010000600160b01b031916751820a4b7618bde71dce8cdc73aab6c95905fad24000017905534801561003a57600080fd5b50610b918061004a6000396000f3fe608060405234801561001057600080fd5b50600436106100a85760003560e01c806375ab97821161007157806375ab97821461012e578063a8badaa514610141578063c97e18fc14610154578063d2de64741461017c578063e0eb21801461018f578063e1ecbd30146101a257600080fd5b806223de29146100ad578063249cb3fa146100c25780633836ef89146100e757806344d17187146100fa5780634e4ae5a51461010d575b600080fd5b6100c06100bb36600461077c565b6101b5565b005b6100d56100d036600461082d565b610307565b60405190815260200160405180910390f35b6100c06100f5366004610900565b61035f565b6100c061010836600461096c565b6103c7565b6100c061011b3660046109c5565b6001805460ff1916911515919091179055565b6100c061013c36600461077c565b61042c565b6100c061014f3660046109e7565b610564565b6100c06101623660046109c5565b600180549115156101000261ff0019909216919091179055565b6100c061018a3660046109e7565b6105fa565b6100c061019d3660046109e7565b610643565b6100c06101b03660046109e7565b610688565b600154610100900460ff16156101ca57600080fd5b6000336040516370a0823160e01b81526001600160a01b038a811660048301529192506000918316906370a0823190602401602060405180830381865afa158015610219573d6000803e3d6000fd5b505050506040513d601f19601f8201168201806040525081019061023d9190610a04565b6040516370a0823160e01b81526001600160a01b038a811660048301529192506000918416906370a0823190602401602060405180830381865afa158015610289573d6000803e3d6000fd5b505050506040513d601f19601f820116820180604052508101906102ad9190610a04565b90507f47e915878c47f3ec4d7ff646a2becb229f64fd2abe4d2b5e2bb4275b0cf50d4e8b8b8b8b8b8b8b8b8b8b8b6040516102f29b9a99989796959493929190610a46565b60405180910390a15050505050505050505050565b6000828152602081815260408083206001600160a01b038516845290915281205460ff16610336576000610358565b7fa2ef4600d742022d532d4747cb3547474667d6f13804902513b2ec01c848f4b45b9392505050565b604051634decdde360e11b81526001600160a01b03851690639bd9bbc69061038f90869086908690600401610b0a565b600060405180830381600087803b1580156103a957600080fd5b505af11580156103bd573d6000803e3d6000fd5b5050505050505050565b60405163fe9d930360e01b81526001600160a01b0384169063fe9d9303906103f59085908590600401610b3a565b600060405180830381600087803b15801561040f57600080fd5b505af1158015610423573d6000803e3d6000fd5b50505050505050565b60015460ff161561043c57600080fd5b6000336040516370a0823160e01b81526001600160a01b038a811660048301529192506000918316906370a0823190602401602060405180830381865afa15801561048b573d6000803e3d6000fd5b505050506040513d601f19601f820116820180604052508101906104af9190610a04565b6040516370a0823160e01b81526001600160a01b038a811660048301529192506000918416906370a0823190602401602060405180830381865afa1580156104fb573d6000803e3d6000fd5b505050506040513d601f19601f8201168201806040525081019061051f9190610a04565b90507faa3e88aca472e90221daf7d3d601abafb62b120319089d7a2c2f63588da855298b8b8b8b8b8b8b8b8b8b8b6040516102f29b9a99989796959493929190610a46565b6001546040516329965a1d60e01b81523060048201527fb281fc8c12954d22544db45de3159a39272895b169a852b314f9cc762e44c53b60248201526001600160a01b03838116604483015262010000909204909116906329965a1d906064015b600060405180830381600087803b1580156105df57600080fd5b505af11580156105f3573d6000803e3d6000fd5b5050505050565b6106247f29ddb589b1fb5fc7cf394961c1adf5f8c6454761adf795e67fe149f658abe895826106ed565b306001600160a01b03821681141561063f5761063f81610688565b5050565b61066d7fb281fc8c12954d22544db45de3159a39272895b169a852b314f9cc762e44c53b826106ed565b306001600160a01b03821681141561063f5761063f81610564565b6001546040516329965a1d60e01b81523060048201527f29ddb589b1fb5fc7cf394961c1adf5f8c6454761adf795e67fe149f658abe89560248201526001600160a01b03838116604483015262010000909204909116906329965a1d906064016105c5565b6000918252602082815260408084206001600160a01b0390931684529190529020805460ff19166001179055565b6001600160a01b038116811461073057600080fd5b50565b60008083601f84011261074557600080fd5b50813567ffffffffffffffff81111561075d57600080fd5b60208301915083602082850101111561077557600080fd5b9250929050565b60008060008060008060008060c0898b03121561079857600080fd5b88356107a38161071b565b975060208901356107b38161071b565b965060408901356107c38161071b565b955060608901359450608089013567ffffffffffffffff808211156107e757600080fd5b6107f38c838d01610733565b909650945060a08b013591508082111561080c57600080fd5b506108198b828c01610733565b999c989b5096995094979396929594505050565b6000806040838503121561084057600080fd5b8235915060208301356108528161071b565b809150509250929050565b634e487b7160e01b600052604160045260246000fd5b600082601f83011261088457600080fd5b813567ffffffffffffffff8082111561089f5761089f61085d565b604051601f8301601f19908116603f011681019082821181831017156108c7576108c761085d565b816040528381528660208588010111156108e057600080fd5b836020870160208301376000602085830101528094505050505092915050565b6000806000806080858703121561091657600080fd5b84356109218161071b565b935060208501356109318161071b565b925060408501359150606085013567ffffffffffffffff81111561095457600080fd5b61096087828801610873565b91505092959194509250565b60008060006060848603121561098157600080fd5b833561098c8161071b565b925060208401359150604084013567ffffffffffffffff8111156109af57600080fd5b6109bb86828701610873565b9150509250925092565b6000602082840312156109d757600080fd5b8135801515811461035857600080fd5b6000602082840312156109f957600080fd5b81356103588161071b565b600060208284031215610a1657600080fd5b5051919050565b81835281816020850137506000828201602090810191909152601f909101601f19169091010190565b6001600160a01b038c811682528b811660208301528a81166040830152606082018a905261012060808301819052600091610a848483018b8d610a1d565b915083820360a0850152610a9982898b610a1d565b961660c0840152505060e08101929092526101009091015298975050505050505050565b6000815180845260005b81811015610ae357602081850181015186830182015201610ac7565b81811115610af5576000602083870101525b50601f01601f19169290920160200192915050565b60018060a01b0384168152826020820152606060408201526000610b316060830184610abd565b95945050505050565b828152604060208201526000610b536040830184610abd565b94935050505056fea26469706673582212207b5233d5a453f15b44c927118a71facbedd3600edb324941406026083e5e5da664736f6c634300080c0033",
  "bytecodeSha1": "3d87f3c0daec57f91b31ecb0280b7130c69e7295",
  "compiler": {
    "evm_version": "istanbul",
    "optimizer": {
      "enabled": true,
      "runs": 200
    },
    "version": "0.8.12+commit.f00d7308"
  },
  "contractName": "ERC777SenderRecipientMock",
  "language": "Solidity",
  "natspec": {
    "kind": "dev",
    "methods": {
      "canImplementInterfaceForAddress(bytes32,address)": {
        "details": "See {IERC1820Implementer-canImplementInterfaceForAddress}."
      },
      "tokensReceived(address,address,address,uint256,bytes,bytes)": {
        "details": "Called by an {IERC777} token contract whenever tokens are being moved or created into a registered account (`to`). The type of operation is conveyed by `from` being the zero address or not. This call occurs _after_ the token contract's state is updated, so {IERC777-balanceOf}, etc., can be used to query the post-operation state. This function may revert to prevent the operation from being executed."
      },
      "tokensToSend(address,address,address,uint256,bytes,bytes)": {
        "details": "Called by an {IERC777} token contract whenever a registered holder's (`from`) tokens are about to be moved or destroyed. The type of operation is conveyed by `to` being the zero address or not. This call occurs _before_ the token contract's state is updated, so {IERC777-balanceOf}, etc., can be used to query the pre-operation state. This function may revert to prevent the operation from being executed."
      }
    },
    "version": 1
  },
  "opcodes": "PUSH1 0x80 PUSH1 0x40 MSTORE CALLVALUE DUP1 ISZERO PUSH2 0x10 JUMPI PUSH1 0x0 DUP1 REVERT JUMPDEST POP PUSH1 0x4 CALLDATASIZE LT PUSH2 0xA8 JUMPI PUSH1 0x0 CALLDATALOAD PUSH1 0xE0 SHR DUP1 PUSH4 0x75AB9782 GT PUSH2 0x71 JUMPI DUP1 PUSH4 0x75AB9782 EQ PUSH2 0x12E JUMPI DUP1 PUSH4 0xA8BADAA5 EQ PUSH2 0x141 JUMPI DUP1 PUSH4 0xC97E18FC EQ PUSH2 0x154 JUMPI DUP1 PUSH4 0xD2DE6474 EQ PUSH2 0x17C JUMPI DUP1 PUSH4 0xE0EB2180 EQ PUSH2 0x18F JUMPI DUP1 PUSH4 0xE1ECBD30 EQ PUSH2 0x1A2 JUMPI PUSH1 0x0 DUP1 REVERT JUMPDEST DUP1 PUSH3 0x23DE29 EQ PUSH2 0xAD JUMPI DUP1 PUSH4 0x249CB3FA EQ PUSH2 0xC2 JUMPI DUP1 PUSH4 0x3836EF89 EQ PUSH2 0xE7 JUMPI DUP1 PUSH4 0x44D17187 EQ PUSH2 0xFA JUMPI DUP1 PUSH4 0x4E4AE5A5 EQ PUSH2 0x10D JUMPI JUMPDEST PUSH1 0x0 DUP1 REVERT JUMPDEST PUSH2 0xC0 PUSH2 0xBB CALLDATASIZE PUSH1 0x4 PUSH2 0x77C JUMP JUMPDEST PUSH2 0x1B5 JUMP JUMPDEST STOP JUMPDEST PUSH2 0xD5 PUSH2 0xD0 CALLDATASIZE PUSH1 0x4 PUSH2 0x82D JUMP JUMPDEST PUSH2 0x307 JUMP JUMPDEST PUSH1 0x40 MLOAD SWAP1 DUP2 MSTORE PUSH1 0x20 ADD PUSH1 0x40 MLOAD DUP1 SWAP2 SUB SWAP1 RETURN JUMPDEST PUSH2 0xC0 PUSH2 0xF5 CALLDATASIZE PUSH1 0x4 PUSH2 0x900 JUMP JUMPDEST PUSH2 0x35F JUMP JUMPDEST PUSH2 0xC0 PUSH2 0x108 CALLDATASIZE PUSH1 0x4 PUSH2 0x96C JUMP JUMPDEST PUSH2 0x3C7 JUMP JUMPDEST PUSH2 0xC0 PUSH2 0x11B CALLDATASIZE PUSH1 0x4 PUSH2 0x9C5 JUMP JUMPDEST PUSH1 0x1 DUP1 SLOAD PUSH1 0xFF NOT AND SWAP2 ISZERO ISZERO SWAP2 SWAP1 SWAP2 OR SWAP1 SSTORE JUMP JUMPDEST PUSH2 0xC0 PUSH2 0x13C CALLDATASIZE PUSH1 0x4 PUSH2 0x77C JUMP JUMPDEST PUSH2 0x42C JUMP JUMPDEST PUSH2 0xC0 PUSH2 0x14F CALLDATASIZE PUSH1 0x4 PUSH2 0x9E7 JUMP JUMPDEST PUSH2 0x564 JUMP JUMPDEST PUSH2 0xC0 PUSH2 0x162 CALLDATASIZE PUSH1 0x4 PUSH2 0x9C5 JUMP JUMPDEST PUSH1 0x1 DUP1 SLOAD SWAP2 ISZERO ISZERO PUSH2 0x100 MUL PUSH2 0xFF00 NOT SWAP1 SWAP3 AND SWAP2 SWAP1 SWAP2 OR SWAP1 SSTORE JUMP JUMPDEST PUSH2 0xC0 PUSH2 0x18A CALLDATASIZE PUSH1 0x4 PUSH2 0x9E7 JUMP JUMPDEST PUSH2 0x5FA JUMP JUMPDEST PUSH2 0xC0 PUSH2 0x19D CALLDATASIZE PUSH1 0x4 PUSH2 0x9E7 JUMP JUMPDEST PUSH2 0x643 JUMP JUMPDEST PUSH2 0xC0 PUSH2 0x1B0 CALLDATASIZE PUSH1 0x4 PUSH2 0x9E7 JUMP JUMPDEST PUSH2 0x688 JUMP JUMPDEST PUSH1 0x1 SLOAD PUSH2 0x100 SWAP1 DIV PUSH1 0xFF AND ISZERO PUSH2 0x1CA JUMPI PUSH1 0x0 DUP1 REVERT JUMPDEST PUSH1 0x0 CALLER PUSH1 0x40 MLOAD PUSH4 0x70A08231 PUSH1 0xE0 SHL DUP2 MSTORE PUSH1 0x1 PUSH1 0x1 PUSH1 0xA0 SHL SUB DUP11 DUP2 AND PUSH1 0x4 DUP4 ADD MSTORE SWAP2 SWAP3 POP PUSH1 0x0 SWAP2 DUP4 AND SWAP1 PUSH4 0x70A08231 SWAP1 PUSH1 0x24 ADD PUSH1 0x20 PUSH1 0x40 MLOAD DUP1 DUP4 SUB DUP2 DUP7 GAS STATICCALL ISZERO DUP1 ISZERO PUSH2 0x219 JUMPI RETURNDATASIZE PUSH1 0x0 DUP1 RETURNDATACOPY RETURNDATASIZE PUSH1 0x0 REVERT JUMPDEST POP POP POP POP PUSH1 0x40 MLOAD RETURNDATASIZE PUSH1 0x1F NOT PUSH1 0x1F DUP3 ADD AND DUP3 ADD DUP1 PUSH1 0x40 MSTORE POP DUP2 ADD SWAP1 PUSH2 0x23D SWAP2 SWAP1 PUSH2 0xA04 JUMP JUMPDEST PUSH1 0x40 MLOAD PUSH4 0x70A08231 PUSH1 0xE0 SHL DUP2 MSTORE PUSH1 0x1 PUSH1 0x1 PUSH1 0xA0 SHL SUB DUP11 DUP2 AND PUSH1 0x4 DUP4 ADD MSTORE SWAP2 SWAP3 POP PUSH1 0x0 SWAP2 DUP5 AND SWAP1 PUSH4 0x70A08231 SWAP1 PUSH1 0x24 ADD PUSH1 0x20 PUSH1 0x40 MLOAD DUP1 DUP4 SUB DUP2 DUP7 GAS STATICCALL ISZERO DUP1 ISZERO PUSH2 0x289 JUMPI RETURNDATASIZE PUSH1 0x0 DUP1 RETURNDATACOPY RETURNDATASIZE PUSH1 0x0 REVERT JUMPDEST POP POP POP POP PUSH1 0x40 MLOAD RETURNDATASIZE PUSH1 0x1F NOT PUSH1 0x1F DUP3 ADD AND DUP3 ADD DUP1 PUSH1 0x40 MSTORE POP DUP2 ADD SWAP1 PUSH2 0x2AD SWAP2 SWAP1 PUSH2 0xA04 JUMP JUMPDEST SWAP1 POP PUSH32 0x47E915878C47F3EC4D7FF646A2BECB229F64FD2ABE4D2B5E2BB4275B0CF50D4E DUP12 DUP12 DUP12 DUP12 DUP12 DUP12 DUP12 DUP12 DUP12 DUP12 DUP12 PUSH1 0x40 MLOAD PUSH2 0x2F2 SWAP12 SWAP11 SWAP10 SWAP9 SWAP8 SWAP7 SWAP6 SWAP5 SWAP4 SWAP3 SWAP2 SWAP1 PUSH2 0xA46 JUMP JUMPDEST PUSH1 0x40 MLOAD DUP1 SWAP2 SUB SWAP1 LOG1 POP POP POP POP POP POP POP POP POP POP POP JUMP JUMPDEST PUSH1 0x0 DUP3 DUP2 MSTORE PUSH1 0x20 DUP2 DUP2 MSTORE PUSH1 0x40 DUP1 DUP4 KECCAK256 PUSH1 0x1 PUSH1 0x1 PUSH1 0xA0 SHL SUB DUP6 AND DUP5 MSTORE SWAP1 SWAP2 MSTORE DUP2 KECCAK256 SLOAD PUSH1 0xFF AND PUSH2 0x336 JUMPI PUSH1 0x0 PUSH2 0x358 JUMP JUMPDEST PUSH32 0xA2EF4600D742022D532D4747CB3547474667D6F13804902513B2EC01C848F4B4 JUMPDEST SWAP4 SWAP3 POP POP POP JUMP JUMPDEST PUSH1 0x40 MLOAD PUSH4 0x4DECDDE3 PUSH1 0xE1 SHL DUP2 MSTORE PUSH1 0x1 PUSH1 0x1 PUSH1 0xA0 SHL SUB DUP6 AND SWAP1 PUSH4 0x9BD9BBC6 SWAP1 PUSH2 0x38F SWAP1 DUP7 SWAP1 DUP7 SWAP1 DUP7 SWAP1 PUSH1 0x4 ADD PUSH2 0xB0A JUMP JUMPDEST PUSH1 0x0 PUSH1 0x40 MLOAD DUP1 DUP4 SUB DUP2 PUSH1 0x0 DUP8 DUP1 EXTCODESIZE ISZERO DUP1 ISZERO PUSH2 0x3A9 JUMPI PUSH1 0x0 DUP1 REVERT JUMPDEST POP GAS CALL ISZERO DUP1 ISZERO PUSH2 0x3BD JUMPI RETURNDATASIZE PUSH1 0x0 DUP1 RETURNDATACOPY RETURNDATASIZE PUSH1 0x0 REVERT JUMPDEST POP POP POP POP POP POP POP POP JUMP JUMPDEST PUSH1 0x40 MLOAD PUSH4 0xFE9D9303 PUSH1 0xE0 SHL DUP2 MSTORE PUSH1 0x1 PUSH1 0x1 PUSH1 0xA0 SHL SUB DUP5 AND SWAP1 PUSH4 0xFE9D9303 SWAP1 PUSH2 0x3F5 SWAP1 DUP6 SWAP1 DUP6 SWAP1 PUSH1 0x4 ADD PUSH2 0xB3A JUMP JUMPDEST PUSH1 0x0 PUSH1 0x40 MLOAD DUP1 DUP4 SUB DUP2 PUSH1 0x0 DUP8 DUP1 EXTCODESIZE ISZERO DUP1 ISZERO PUSH2 0x40F JUMPI PUSH1 0x0 DUP1 REVERT JUMPDEST POP GAS CALL ISZERO DUP1 ISZERO PUSH2 0x423 JUMPI RETURNDATASIZE PUSH1 0x0 DUP1 RETURNDATACOPY RETURNDATASIZE PUSH1 0x0 REVERT JUMPDEST POP POP POP POP POP POP POP JUMP JUMPDEST PUSH1 0x1 SLOAD PUSH1 0xFF AND ISZERO PUSH2 0x43C JUMPI PUSH1 0x0 DUP1 REVERT JUMPDEST PUSH1 0x0 CALLER PUSH1 0x40 MLOAD PUSH4 0x70A08231 PUSH1 0xE0 SHL DUP2 MSTORE PUSH1 0x1 PUSH1 0x1 PUSH1 0xA0 SHL SUB DUP11 DUP2 AND PUSH1 0x4 DUP4 ADD MSTORE SWAP2 SWAP3 POP PUSH1 0x0 SWAP2 DUP4 AND SWAP1 PUSH4 0x70A08231 SWAP1 PUSH1 0x24 ADD PUSH1 0x20 PUSH1 0x40 MLOAD DUP1 DUP4 SUB DUP2 DUP7 GAS STATICCALL ISZERO DUP1 ISZERO PUSH2 0x48B JUMPI RETURNDATASIZE PUSH1 0x0 DUP1 RETURNDATACOPY RETURNDATASIZE PUSH1 0x0 REVERT JUMPDEST POP POP POP POP PUSH1 0x40 MLOAD RETURNDATASIZE PUSH1 0x1F NOT PUSH1 0x1F DUP3 ADD AND DUP3 ADD DUP1 PUSH1 0x40 MSTORE POP DUP2 ADD SWAP1 PUSH2 0x4AF SWAP2 SWAP1 PUSH2 0xA04 JUMP JUMPDEST PUSH1 0x40 MLOAD PUSH4 0x70A08231 PUSH1 0xE0 SHL DUP2 MSTORE PUSH1 0x1 PUSH1 0x1 PUSH1 0xA0 SHL SUB DUP11 DUP2 AND PUSH1 0x4 DUP4 ADD MSTORE SWAP2 SWAP3 POP PUSH1 0x0 SWAP2 DUP5 AND SWAP1 PUSH4 0x70A08231 SWAP1 PUSH1 0x24 ADD PUSH1 0x20 PUSH1 0x40 MLOAD DUP1 DUP4 SUB DUP2 DUP7 GAS STATICCALL ISZERO DUP1 ISZERO PUSH2 0x4FB JUMPI RETURNDATASIZE PUSH1 0x0 DUP1 RETURNDATACOPY RETURNDATASIZE PUSH1 0x0 REVERT JUMPDEST POP POP POP POP PUSH1 0x40 MLOAD RETURNDATASIZE PUSH1 0x1F NOT PUSH1 0x1F DUP3 ADD AND DUP3 ADD DUP1 PUSH1 0x40 MSTORE POP DUP2 ADD SWAP1 PUSH2 0x51F SWAP2 SWAP1 PUSH2 0xA04 JUMP JUMPDEST SWAP1 POP PUSH32 0xAA3E88ACA472E90221DAF7D3D601ABAFB62B120319089D7A2C2F63588DA85529 DUP12 DUP12 DUP12 DUP12 DUP12 DUP12 DUP12 DUP12 DUP12 DUP12 DUP12 PUSH1 0x40 MLOAD PUSH2 0x2F2 SWAP12 SWAP11 SWAP10 SWAP9 SWAP8 SWAP7 SWAP6 SWAP5 SWAP4 SWAP3 SWAP2 SWAP1 PUSH2 0xA46 JUMP JUMPDEST PUSH1 0x1 SLOAD PUSH1 0x40 MLOAD PUSH4 0x29965A1D PUSH1 0xE0 SHL DUP2 MSTORE ADDRESS PUSH1 0x4 DUP3 ADD MSTORE PUSH32 0xB281FC8C12954D22544DB45DE3159A39272895B169A852B314F9CC762E44C53B PUSH1 0x24 DUP3 ADD MSTORE PUSH1 0x1 PUSH1 0x1 PUSH1 0xA0 SHL SUB DUP4 DUP2 AND PUSH1 0x44 DUP4 ADD MSTORE PUSH3 0x10000 SWAP1 SWAP3 DIV SWAP1 SWAP2 AND SWAP1 PUSH4 0x29965A1D SWAP1 PUSH1 0x64 ADD JUMPDEST PUSH1 0x0 PUSH1 0x40 MLOAD DUP1 DUP4 SUB DUP2 PUSH1 0x0 DUP8 DUP1 EXTCODESIZE ISZERO DUP1 ISZERO PUSH2 0x5DF JUMPI PUSH1 0x0 DUP1 REVERT JUMPDEST POP GAS CALL ISZERO DUP1 ISZERO PUSH2 0x5F3 JUMPI RETURNDATASIZE PUSH1 0x0 DUP1 RETURNDATACOPY RETURNDATASIZE PUSH1 0x0 REVERT JUMPDEST POP POP POP POP POP JUMP JUMPDEST PUSH2 0x624 PUSH32 0x29DDB589B1FB5FC7CF394961C1ADF5F8C6454761ADF795E67FE149F658ABE895 DUP3 PUSH2 0x6ED JUMP JUMPDEST ADDRESS PUSH1 0x1 PUSH1 0x1 PUSH1 0xA0 SHL SUB DUP3 AND DUP2 EQ ISZERO PUSH2 0x63F JUMPI PUSH2 0x63F DUP2 PUSH2 0x688 JUMP JUMPDEST POP POP JUMP JUMPDEST PUSH2 0x66D PUSH32 0xB281FC8C12954D22544DB45DE3159A39272895B169A852B314F9CC762E44C53B DUP3 PUSH2 0x6ED JUMP JUMPDEST ADDRESS PUSH1 0x1 PUSH1 0x1 PUSH1 0xA0 SHL SUB DUP3 AND DUP2 EQ ISZERO PUSH2 0x63F JUMPI PUSH2 0x63F DUP2 PUSH2 0x564 JUMP JUMPDEST PUSH1 0x1 SLOAD PUSH1 0x40 MLOAD PUSH4 0x29965A1D PUSH1 0xE0 SHL DUP2 MSTORE ADDRESS PUSH1 0x4 DUP3 ADD MSTORE PUSH32 0x29DDB589B1FB5FC7CF394961C1ADF5F8C6454761ADF795E67FE149F658ABE895 PUSH1 0x24 DUP3 ADD MSTORE PUSH1 0x1 PUSH1 0x1 PUSH1 0xA0 SHL SUB DUP4 DUP2 AND PUSH1 0x44 DUP4 ADD MSTORE PUSH3 0x10000 SWAP1 SWAP3 DIV SWAP1 SWAP2 AND SWAP1 PUSH4 0x29965A1D SWAP1 PUSH1 0x64 ADD PUSH2 0x5C5 JUMP JUMPDEST PUSH1 0x0 SWAP2 DUP3 MSTORE PUSH1 0x20 DUP3 DUP2 MSTORE PUSH1 0x40 DUP1 DUP5 KECCAK256 PUSH1 0x1 PUSH1 0x1 PUSH1 0xA0 SHL SUB SWAP1 SWAP4 AND DUP5 MSTORE SWAP2 SWAP1 MSTORE SWAP1 KECCAK256 DUP1 SLOAD PUSH1 0xFF NOT AND PUSH1 0x1 OR SWAP1 SSTORE JUMP JUMPDEST PUSH1 0x1 PUSH1 0x1 PUSH1 0xA0 SHL SUB DUP2 AND DUP2 EQ PUSH2 0x730 JUMPI PUSH1 0x0 DUP1 REVERT JUMPDEST POP JUMP JUMPDEST PUSH1 0x0 DUP1 DUP4 PUSH1 0x1F DUP5 ADD SLT PUSH2 0x745 JUMPI PUSH1 0x0 DUP1 REVERT JUMPDEST POP DUP2 CALLDATALOAD PUSH8 0xFFFFFFFFFFFFFFFF DUP2 GT ISZERO PUSH2 0x75D JUMPI PUSH1 0x0 DUP1 REVERT JUMPDEST PUSH1 0x20 DUP4 ADD SWAP2 POP DUP4 PUSH1 0x20 DUP3 DUP6 ADD ADD GT ISZERO PUSH2 0x775 JUMPI PUSH1 0x0 DUP1 REVERT JUMPDEST SWAP3 POP SWAP3 SWAP1 POP JUMP JUMPDEST PUSH1 0x0 DUP1 PUSH1 0x0 DUP1 PUSH1 0x0 DUP1 PUSH1 0x0 DUP1 PUSH1 0xC0 DUP10 DUP12 SUB SLT ISZERO PUSH2 0x798 JUMPI PUSH1 0x0 DUP1 REVERT JUMPDEST DUP9 CALLDATALOAD PUSH2 0x7A3 DUP2 PUSH2 0x71B JUMP JUMPDEST SWAP8 POP PUSH1 0x20 DUP10 ADD CALLDATALOAD PUSH2 0x7B3 DUP2 PUSH2 0x71B JUMP JUMPDEST SWAP7 POP PUSH1 0x40 DUP10 ADD CALLDATALOAD PUSH2 0x7C3 DUP2 PUSH2 0x71B JUMP JUMPDEST SWAP6 POP PUSH1 0x60 DUP10 ADD CALLDATALOAD SWAP5 POP PUSH1 0x80 DUP10 ADD CALLDATALOAD PUSH8 0xFFFFFFFFFFFFFFFF DUP1 DUP3 GT ISZERO PUSH2 0x7E7 JUMPI PUSH1 0x0 DUP1 REVERT JUMPDEST PUSH2 0x7F3 DUP13 DUP4 DUP14 ADD PUSH2 0x733 JUMP JUMPDEST SWAP1 SWAP7 POP SWAP5 POP PUSH1 0xA0 DUP12 ADD CALLDATALOAD SWAP2 POP DUP1 DUP3 GT ISZERO PUSH2 0x80C JUMPI PUSH1 0x0 DUP1 REVERT JUMPDEST POP PUSH2 0x819 DUP12 DUP3 DUP13 ADD PUSH2 0x733 JUMP JUMPDEST SWAP10 SWAP13 SWAP9 SWAP12 POP SWAP7 SWAP10 POP SWAP5 SWAP8 SWAP4 SWAP7 SWAP3 SWAP6 SWAP5 POP POP POP JUMP JUMPDEST PUSH1 0x0 DUP1 PUSH1 0x40 DUP4 DUP6 SUB SLT ISZERO PUSH2 0x840 JUMPI PUSH1 0x0 DUP1 REVERT JUMPDEST DUP3 CALLDATALOAD SWAP2 POP PUSH1 0x20 DUP4 ADD CALLDATALOAD PUSH2 0x852 DUP2 PUSH2 0x71B JUMP JUMPDEST DUP1 SWAP2 POP POP SWAP3 POP SWAP3 SWAP1 POP JUMP JUMPDEST PUSH4 0x4E487B71 PUSH1 0xE0 SHL PUSH1 0x0 MSTORE PUSH1 0x41 PUSH1 0x4 MSTORE PUSH1 0x24 PUSH1 0x0 REVERT JUMPDEST PUSH1 0x0 DUP3 PUSH1 0x1F DUP4 ADD SLT PUSH2 0x884 JUMPI PUSH1 0x0 DUP1 REVERT JUMPDEST DUP2 CALLDATALOAD PUSH8 0xFFFFFFFFFFFFFFFF DUP1 DUP3 GT ISZERO PUSH2 0x89F JUMPI PUSH2 0x89F PUSH2 0x85D JUMP JUMPDEST PUSH1 0x40 MLOAD PUSH1 0x1F DUP4 ADD PUSH1 0x1F NOT SWAP1 DUP2 AND PUSH1 0x3F ADD AND DUP2 ADD SWAP1 DUP3 DUP3 GT DUP2 DUP4 LT OR ISZERO PUSH2 0x8C7 JUMPI PUSH2 0x8C7 PUSH2 0x85D JUMP JUMPDEST DUP2 PUSH1 0x40 MSTORE DUP4 DUP2 MSTORE DUP7 PUSH1 0x20 DUP6 DUP9 ADD ADD GT ISZERO PUSH2 0x8E0 JUMPI PUSH1 0x0 DUP1 REVERT JUMPDEST DUP4 PUSH1 0x20 DUP8 ADD PUSH1 0x20 DUP4 ADD CALLDATACOPY PUSH1 0x0 PUSH1 0x20 DUP6 DUP4 ADD ADD MSTORE DUP1 SWAP5 POP POP POP POP POP SWAP3 SWAP2 POP POP JUMP JUMPDEST PUSH1 0x0 DUP1 PUSH1 0x0 DUP1 PUSH1 0x80 DUP6 DUP8 SUB SLT ISZERO PUSH2 0x916 JUMPI PUSH1 0x0 DUP1 REVERT JUMPDEST DUP5 CALLDATALOAD PUSH2 0x921 DUP2 PUSH2 0x71B JUMP JUMPDEST SWAP4 POP PUSH1 0x20 DUP6 ADD CALLDATALOAD PUSH2 0x931 DUP2 PUSH2 0x71B JUMP JUMPDEST SWAP3 POP PUSH1 0x40 DUP6 ADD CALLDATALOAD SWAP2 POP PUSH1 0x60 DUP6 ADD CALLDATALOAD PUSH8 0xFFFFFFFFFFFFFFFF DUP2 GT ISZERO PUSH2 0x954 JUMPI PUSH1 0x0 DUP1 REVERT JUMPDEST PUSH2 0x960 DUP8 DUP3 DUP9 ADD PUSH2 0x873 JUMP JUMPDEST SWAP2 POP POP SWAP3 SWAP6 SWAP2 SWAP5 POP SWAP3 POP JUMP JUMPDEST PUSH1 0x0 DUP1 PUSH1 0x0 PUSH1 0x60 DUP5 DUP7 SUB SLT ISZERO PUSH2 0x981 JUMPI PUSH1 0x0 DUP1 REVERT JUMPDEST DUP4 CALLDATALOAD PUSH2 0x98C DUP2 PUSH2 0x71B JUMP JUMPDEST SWAP3 POP PUSH1 0x20 DUP5 ADD CALLDATALOAD SWAP2 POP PUSH1 0x40 DUP5 ADD CALLDATALOAD PUSH8 0xFFFFFFFFFFFFFFFF DUP2 GT ISZERO PUSH2 0x9AF JUMPI PUSH1 0x0 DUP1 REVERT JUMPDEST PUSH2 0x9BB DUP7 DUP3 DUP8 ADD PUSH2 0x873 JUMP JUMPDEST SWAP2 POP POP SWAP3 POP SWAP3 POP SWAP3 JUMP JUMPDEST PUSH1 0x0 PUSH1 0x20 DUP3 DUP5 SUB SLT ISZERO PUSH2 0x9D7 JUMPI PUSH1 0x0 DUP1 REVERT JUMPDEST DUP2 CALLDATALOAD DUP1 ISZERO ISZERO DUP2 EQ PUSH2 0x358 JUMPI PUSH1 0x0 DUP1 REVERT JUMPDEST PUSH1 0x0 PUSH1 0x20 DUP3 DUP5 SUB SLT ISZERO PUSH2 0x9F9 JUMPI PUSH1 0x0 DUP1 REVERT JUMPDEST DUP2 CALLDATALOAD PUSH2 0x358 DUP2 PUSH2 0x71B JUMP JUMPDEST PUSH1 0x0 PUSH1 0x20 DUP3 DUP5 SUB SLT ISZERO PUSH2 0xA16 JUMPI PUSH1 0x0 DUP1 REVERT JUMPDEST POP MLOAD SWAP2 SWAP1 POP JUMP JUMPDEST DUP2 DUP4 MSTORE DUP2 DUP2 PUSH1 0x20 DUP6 ADD CALLDATACOPY POP PUSH1 0x0 DUP3 DUP3 ADD PUSH1 0x20 SWAP1 DUP2 ADD SWAP2 SWAP1 SWAP2 MSTORE PUSH1 0x1F SWAP1 SWAP2 ADD PUSH1 0x1F NOT AND SWAP1 SWAP2 ADD ADD SWAP1 JUMP JUMPDEST PUSH1 0x1 PUSH1 0x1 PUSH1 0xA0 SHL SUB DUP13 DUP2 AND DUP3 MSTORE DUP12 DUP2 AND PUSH1 0x20 DUP4 ADD MSTORE DUP11 DUP2 AND PUSH1 0x40 DUP4 ADD MSTORE PUSH1 0x60 DUP3 ADD DUP11 SWAP1 MSTORE PUSH2 0x120 PUSH1 0x80 DUP4 ADD DUP2 SWAP1 MSTORE PUSH1 0x0 SWAP2 PUSH2 0xA84 DUP5 DUP4 ADD DUP12 DUP14 PUSH2 0xA1D JUMP JUMPDEST SWAP2 POP DUP4 DUP3 SUB PUSH1 0xA0 DUP6 ADD MSTORE PUSH2 0xA99 DUP3 DUP10 DUP12 PUSH2 0xA1D JUMP JUMPDEST SWAP7 AND PUSH1 0xC0 DUP5 ADD MSTORE POP POP PUSH1 0xE0 DUP2 ADD SWAP3 SWAP1 SWAP3 MSTORE PUSH2 0x100 SWAP1 SWAP2 ADD MSTORE SWAP9 SWAP8 POP POP POP POP POP POP POP POP JUMP JUMPDEST PUSH1 0x0 DUP2 MLOAD DUP1 DUP5 MSTORE PUSH1 0x0 JUMPDEST DUP2 DUP2 LT ISZERO PUSH2 0xAE3 JUMPI PUSH1 0x20 DUP2 DUP6 ADD DUP2 ADD MLOAD DUP7 DUP4 ADD DUP3 ADD MSTORE ADD PUSH2 0xAC7 JUMP JUMPDEST DUP2 DUP2 GT ISZERO PUSH2 0xAF5 JUMPI PUSH1 0x0 PUSH1 0x20 DUP4 DUP8 ADD ADD MSTORE JUMPDEST POP PUSH1 0x1F ADD PUSH1 0x1F NOT AND SWAP3 SWAP1 SWAP3 ADD PUSH1 0x20 ADD SWAP3 SWAP2 POP POP JUMP JUMPDEST PUSH1 0x1 DUP1 PUSH1 0xA0 SHL SUB DUP5 AND DUP2 MSTORE DUP3 PUSH1 0x20 DUP3 ADD MSTORE PUSH1 0x60 PUSH1 0x40 DUP3 ADD MSTORE PUSH1 0x0 PUSH2 0xB31 PUSH1 0x60 DUP4 ADD DUP5 PUSH2 0xABD JUMP JUMPDEST SWAP6 SWAP5 POP POP POP POP POP JUMP JUMPDEST DUP3 DUP2 MSTORE PUSH1 0x40 PUSH1 0x20 DUP3 ADD MSTORE PUSH1 0x0 PUSH2 0xB53 PUSH1 0x40 DUP4 ADD DUP5 PUSH2 0xABD JUMP JUMPDEST SWAP5 SWAP4 POP POP POP POP JUMP INVALID LOG2 PUSH5 0x6970667358 0x22 SLT KECCAK256 PUSH28 0x5233D5A453F15B44C927118A71FACBEDD3600EDB324941406026083E 0x5E 0x5D 0xA6 PUSH5 0x736F6C6343 STOP ADDMOD 0xC STOP CALLER ",
  "sha1": "dca99bdf30c46e50bcdc17f817a402b767d4097e",
  "source": "// SPDX-License-Identifier: MIT\n\npragma solidity ^0.8.0;\n\nimport \"../token/ERC777/IERC777.sol\";\nimport \"../token/ERC777/IERC777Sender.sol\";\nimport \"../token/ERC777/IERC777Recipient.sol\";\nimport \"../utils/Context.sol\";\nimport \"../utils/introspection/IERC1820Registry.sol\";\nimport \"../utils/introspection/ERC1820Implementer.sol\";\n\ncontract ERC777SenderRecipientMock is Context, IERC777Sender, IERC777Recipient, ERC1820Implementer {\n    event TokensToSendCalled(\n        address operator,\n        address from,\n        address to,\n        uint256 amount,\n        bytes data,\n        bytes operatorData,\n        address token,\n        uint256 fromBalance,\n        uint256 toBalance\n    );\n\n    event TokensReceivedCalled(\n        address operator,\n        address from,\n        address to,\n        uint256 amount,\n        bytes data,\n        bytes operatorData,\n        address token,\n        uint256 fromBalance,\n        uint256 toBalance\n    );\n\n    // Emitted in ERC777Mock. Here for easier decoding\n    event BeforeTokenTransfer();\n\n    bool private _shouldRevertSend;\n    bool private _shouldRevertReceive;\n\n    IERC1820Registry private _erc1820 = IERC1820Registry(0x1820a4B7618BdE71Dce8cdc73aAB6C95905faD24);\n\n    bytes32 private constant _TOKENS_SENDER_INTERFACE_HASH = keccak256(\"ERC777TokensSender\");\n    bytes32 private constant _TOKENS_RECIPIENT_INTERFACE_HASH = keccak256(\"ERC777TokensRecipient\");\n\n    function tokensToSend(\n        address operator,\n        address from,\n        address to,\n        uint256 amount,\n        bytes calldata userData,\n        bytes calldata operatorData\n    ) external override {\n        if (_shouldRevertSend) {\n            revert();\n        }\n\n        IERC777 token = IERC777(_msgSender());\n\n        uint256 fromBalance = token.balanceOf(from);\n        // when called due to burn, to will be the zero address, which will have a balance of 0\n        uint256 toBalance = token.balanceOf(to);\n\n        emit TokensToSendCalled(\n            operator,\n            from,\n            to,\n            amount,\n            userData,\n            operatorData,\n            address(token),\n            fromBalance,\n            toBalance\n        );\n    }\n\n    function tokensReceived(\n        address operator,\n        address from,\n        address to,\n        uint256 amount,\n        bytes calldata userData,\n        bytes calldata operatorData\n    ) external override {\n        if (_shouldRevertReceive) {\n            revert();\n        }\n\n        IERC777 token = IERC777(_msgSender());\n\n        uint256 fromBalance = token.balanceOf(from);\n        // when called due to burn, to will be the zero address, which will have a balance of 0\n        uint256 toBalance = token.balanceOf(to);\n\n        emit TokensReceivedCalled(\n            operator,\n            from,\n            to,\n            amount,\n            userData,\n            operatorData,\n            address(token),\n            fromBalance,\n            toBalance\n        );\n    }\n\n    function senderFor(address account) public {\n        _registerInterfaceForAddress(_TOKENS_SENDER_INTERFACE_HASH, account);\n\n        address self = address(this);\n        if (account == self) {\n            registerSender(self);\n        }\n    }\n\n    function registerSender(address sender) public {\n        _erc1820.setInterfaceImplementer(address(this), _TOKENS_SENDER_INTERFACE_HASH, sender);\n    }\n\n    function recipientFor(address account) public {\n        _registerInterfaceForAddress(_TOKENS_RECIPIENT_INTERFACE_HASH, account);\n\n        address self = address(this);\n        if (account == self) {\n            registerRecipient(self);\n        }\n    }\n\n    function registerRecipient(address recipient) public {\n        _erc1820.setInterfaceImplementer(address(this), _TOKENS_RECIPIENT_INTERFACE_HASH, recipient);\n    }\n\n    function setShouldRevertSend(bool shouldRevert) public {\n        _shouldRevertSend = shouldRevert;\n    }\n\n    function setShouldRevertReceive(bool shouldRevert) public {\n        _shouldRevertReceive = shouldRevert;\n    }\n\n    function send(\n        IERC777 token,\n        address to,\n        uint256 amount,\n        bytes memory data\n    ) public {\n        // This is 777's send function, not the Solidity send function\n        token.send(to, amount, data); // solhint-disable-line check-send-result\n    }\n\n    function burn(\n        IERC777 token,\n        uint256 amount,\n        bytes memory data\n    ) public {\n        token.burn(amount, data);\n    }\n}\n",
  "sourcePath": "contracts/openzeppelin/contracts/mocks/ERC777SenderRecipientMock.sol",
  "type": "contract"
}