{
  "abi": [
    {
      "inputs": [
        {
          "internalType": "uint256",
          "name": "value",
          "type": "uint256"
        }
      ],
      "name": "initialize",
      "outputs": [],
      "stateMutability": "payable",
      "type": "function"
    },
    {
      "inputs": [],
      "name": "x",
      "outputs": [
        {
          "internalType": "uint256",
          "name": "",
          "type": "uint256"
        }
      ],
      "stateMutability": "view",
      "type": "function"
    }
  ],
  "bytecode": "608060405234801561001057600080fd5b50610177806100206000396000f3fe6080604052600436106100295760003560e01c80630c55699c1461002e578063fe4b84df14610056575b600080fd5b34801561003a57600080fd5b5061004460015481565b60405190815260200160405180910390f35b610069610064366004610128565b61006b565b005b600054610100900460ff1680610084575060005460ff16155b6100eb5760405162461bcd60e51b815260206004820152602e60248201527f496e697469616c697a61626c653a20636f6e747261637420697320616c72656160448201526d191e481a5b9a5d1a585b1a5e995960921b606482015260840160405180910390fd5b600054610100900460ff1615801561010d576000805461ffff19166101011790555b60018290558015610124576000805461ff00191690555b5050565b60006020828403121561013a57600080fd5b503591905056fea26469706673582212204c2e10624c8b622c9c058b8eb9d480bb6bb25199a192860d5df6a55b0eb3ba5564736f6c634300080c0033",
  "bytecodeSha1": "35bfe97f59ad8dad4a9cc4419b946f04d600379e",
  "compiler": {
    "evm_version": "istanbul",
    "optimizer": {
      "enabled": true,
      "runs": 200
    },
    "version": "0.8.12+commit.f00d7308"
  },
  "contractName": "MigratableMockV1",
  "language": "Solidity",
  "natspec": {
    "details": "This contract is a mock to test initializable functionality through migrations",
    "kind": "dev",
    "methods": {},
    "title": "MigratableMockV1",
    "version": 1
  },
  "opcodes": "PUSH1 0x80 PUSH1 0x40 MSTORE PUSH1 0x4 CALLDATASIZE LT PUSH2 0x29 JUMPI PUSH1 0x0 CALLDATALOAD PUSH1 0xE0 SHR DUP1 PUSH4 0xC55699C EQ PUSH2 0x2E JUMPI DUP1 PUSH4 0xFE4B84DF EQ PUSH2 0x56 JUMPI JUMPDEST PUSH1 0x0 DUP1 REVERT JUMPDEST CALLVALUE DUP1 ISZERO PUSH2 0x3A JUMPI PUSH1 0x0 DUP1 REVERT JUMPDEST POP PUSH2 0x44 PUSH1 0x1 SLOAD DUP2 JUMP JUMPDEST PUSH1 0x40 MLOAD SWAP1 DUP2 MSTORE PUSH1 0x20 ADD PUSH1 0x40 MLOAD DUP1 SWAP2 SUB SWAP1 RETURN JUMPDEST PUSH2 0x69 PUSH2 0x64 CALLDATASIZE PUSH1 0x4 PUSH2 0x128 JUMP JUMPDEST PUSH2 0x6B JUMP JUMPDEST STOP JUMPDEST PUSH1 0x0 SLOAD PUSH2 0x100 SWAP1 DIV PUSH1 0xFF AND DUP1 PUSH2 0x84 JUMPI POP PUSH1 0x0 SLOAD PUSH1 0xFF AND ISZERO JUMPDEST PUSH2 0xEB JUMPI PUSH1 0x40 MLOAD PUSH3 0x461BCD PUSH1 0xE5 SHL DUP2 MSTORE PUSH1 0x20 PUSH1 0x4 DUP3 ADD MSTORE PUSH1 0x2E PUSH1 0x24 DUP3 ADD MSTORE PUSH32 0x496E697469616C697A61626C653A20636F6E747261637420697320616C726561 PUSH1 0x44 DUP3 ADD MSTORE PUSH14 0x191E481A5B9A5D1A585B1A5E9959 PUSH1 0x92 SHL PUSH1 0x64 DUP3 ADD MSTORE PUSH1 0x84 ADD PUSH1 0x40 MLOAD DUP1 SWAP2 SUB SWAP1 REVERT JUMPDEST PUSH1 0x0 SLOAD PUSH2 0x100 SWAP1 DIV PUSH1 0xFF AND ISZERO DUP1 ISZERO PUSH2 0x10D JUMPI PUSH1 0x0 DUP1 SLOAD PUSH2 0xFFFF NOT AND PUSH2 0x101 OR SWAP1 SSTORE JUMPDEST PUSH1 0x1 DUP3 SWAP1 SSTORE DUP1 ISZERO PUSH2 0x124 JUMPI PUSH1 0x0 DUP1 SLOAD PUSH2 0xFF00 NOT AND SWAP1 SSTORE JUMPDEST POP POP JUMP JUMPDEST PUSH1 0x0 PUSH1 0x20 DUP3 DUP5 SUB SLT ISZERO PUSH2 0x13A JUMPI PUSH1 0x0 DUP1 REVERT JUMPDEST POP CALLDATALOAD SWAP2 SWAP1 POP JUMP INVALID LOG2 PUSH5 0x6970667358 0x22 SLT KECCAK256 0x4C 0x2E LT PUSH3 0x4C8B62 0x2C SWAP13 SDIV DUP12 DUP15 0xB9 0xD4 DUP1 0xBB PUSH12 0xB25199A192860D5DF6A55B0E 0xB3 0xBA SSTORE PUSH5 0x736F6C6343 STOP ADDMOD 0xC STOP CALLER ",
  "sha1": "cddf6f8075a4690819e13422616a1f61eeb64b20",
  "source": "// SPDX-License-Identifier: MIT\n\npragma solidity ^0.8.0;\n\nimport \"../proxy/utils/Initializable.sol\";\n\n/**\n * @title MigratableMockV1\n * @dev This contract is a mock to test initializable functionality through migrations\n */\ncontract MigratableMockV1 is Initializable {\n    uint256 public x;\n\n    function initialize(uint256 value) public payable initializer {\n        x = value;\n    }\n}\n\n/**\n * @title MigratableMockV2\n * @dev This contract is a mock to test migratable functionality with params\n */\ncontract MigratableMockV2 is MigratableMockV1 {\n    bool internal _migratedV2;\n    uint256 public y;\n\n    function migrate(uint256 value, uint256 anotherValue) public payable {\n        require(!_migratedV2);\n        x = value;\n        y = anotherValue;\n        _migratedV2 = true;\n    }\n}\n\n/**\n * @title MigratableMockV3\n * @dev This contract is a mock to test migratable functionality without params\n */\ncontract MigratableMockV3 is MigratableMockV2 {\n    bool internal _migratedV3;\n\n    function migrate() public payable {\n        require(!_migratedV3);\n        uint256 oldX = x;\n        x = y;\n        y = oldX;\n        _migratedV3 = true;\n    }\n}\n",
  "sourcePath": "contracts/openzeppelin/contracts/mocks/SingleInheritanceInitializableMocks.sol",
  "type": "contract"
}